{
	"contracts/FixedStaking.sol": {
		"FixedStaking": {
			"abi": [
				{
					"inputs": [],
					"stateMutability": "nonpayable",
					"type": "constructor"
				},
				{
					"anonymous": false,
					"inputs": [
						{
							"indexed": true,
							"internalType": "address",
							"name": "owner",
							"type": "address"
						},
						{
							"indexed": true,
							"internalType": "address",
							"name": "spender",
							"type": "address"
						},
						{
							"indexed": false,
							"internalType": "uint256",
							"name": "value",
							"type": "uint256"
						}
					],
					"name": "Approval",
					"type": "event"
				},
				{
					"anonymous": false,
					"inputs": [
						{
							"indexed": true,
							"internalType": "address",
							"name": "from",
							"type": "address"
						},
						{
							"indexed": true,
							"internalType": "address",
							"name": "to",
							"type": "address"
						},
						{
							"indexed": false,
							"internalType": "uint256",
							"name": "value",
							"type": "uint256"
						}
					],
					"name": "Transfer",
					"type": "event"
				},
				{
					"inputs": [
						{
							"internalType": "address",
							"name": "owner",
							"type": "address"
						},
						{
							"internalType": "address",
							"name": "spender",
							"type": "address"
						}
					],
					"name": "allowance",
					"outputs": [
						{
							"internalType": "uint256",
							"name": "",
							"type": "uint256"
						}
					],
					"stateMutability": "view",
					"type": "function"
				},
				{
					"inputs": [
						{
							"internalType": "address",
							"name": "spender",
							"type": "address"
						},
						{
							"internalType": "uint256",
							"name": "amount",
							"type": "uint256"
						}
					],
					"name": "approve",
					"outputs": [
						{
							"internalType": "bool",
							"name": "",
							"type": "bool"
						}
					],
					"stateMutability": "nonpayable",
					"type": "function"
				},
				{
					"inputs": [
						{
							"internalType": "address",
							"name": "account",
							"type": "address"
						}
					],
					"name": "balanceOf",
					"outputs": [
						{
							"internalType": "uint256",
							"name": "",
							"type": "uint256"
						}
					],
					"stateMutability": "view",
					"type": "function"
				},
				{
					"inputs": [],
					"name": "claim",
					"outputs": [],
					"stateMutability": "nonpayable",
					"type": "function"
				},
				{
					"inputs": [],
					"name": "decimals",
					"outputs": [
						{
							"internalType": "uint8",
							"name": "",
							"type": "uint8"
						}
					],
					"stateMutability": "view",
					"type": "function"
				},
				{
					"inputs": [
						{
							"internalType": "address",
							"name": "spender",
							"type": "address"
						},
						{
							"internalType": "uint256",
							"name": "subtractedValue",
							"type": "uint256"
						}
					],
					"name": "decreaseAllowance",
					"outputs": [
						{
							"internalType": "bool",
							"name": "",
							"type": "bool"
						}
					],
					"stateMutability": "nonpayable",
					"type": "function"
				},
				{
					"inputs": [
						{
							"internalType": "address",
							"name": "spender",
							"type": "address"
						},
						{
							"internalType": "uint256",
							"name": "addedValue",
							"type": "uint256"
						}
					],
					"name": "increaseAllowance",
					"outputs": [
						{
							"internalType": "bool",
							"name": "",
							"type": "bool"
						}
					],
					"stateMutability": "nonpayable",
					"type": "function"
				},
				{
					"inputs": [],
					"name": "name",
					"outputs": [
						{
							"internalType": "string",
							"name": "",
							"type": "string"
						}
					],
					"stateMutability": "view",
					"type": "function"
				},
				{
					"inputs": [
						{
							"internalType": "uint256",
							"name": "amount",
							"type": "uint256"
						}
					],
					"name": "stake",
					"outputs": [],
					"stateMutability": "nonpayable",
					"type": "function"
				},
				{
					"inputs": [
						{
							"internalType": "address",
							"name": "",
							"type": "address"
						}
					],
					"name": "staked",
					"outputs": [
						{
							"internalType": "uint256",
							"name": "",
							"type": "uint256"
						}
					],
					"stateMutability": "view",
					"type": "function"
				},
				{
					"inputs": [],
					"name": "symbol",
					"outputs": [
						{
							"internalType": "string",
							"name": "",
							"type": "string"
						}
					],
					"stateMutability": "view",
					"type": "function"
				},
				{
					"inputs": [],
					"name": "totalSupply",
					"outputs": [
						{
							"internalType": "uint256",
							"name": "",
							"type": "uint256"
						}
					],
					"stateMutability": "view",
					"type": "function"
				},
				{
					"inputs": [
						{
							"internalType": "address",
							"name": "to",
							"type": "address"
						},
						{
							"internalType": "uint256",
							"name": "amount",
							"type": "uint256"
						}
					],
					"name": "transfer",
					"outputs": [
						{
							"internalType": "bool",
							"name": "",
							"type": "bool"
						}
					],
					"stateMutability": "nonpayable",
					"type": "function"
				},
				{
					"inputs": [
						{
							"internalType": "address",
							"name": "from",
							"type": "address"
						},
						{
							"internalType": "address",
							"name": "to",
							"type": "address"
						},
						{
							"internalType": "uint256",
							"name": "amount",
							"type": "uint256"
						}
					],
					"name": "transferFrom",
					"outputs": [
						{
							"internalType": "bool",
							"name": "",
							"type": "bool"
						}
					],
					"stateMutability": "nonpayable",
					"type": "function"
				},
				{
					"inputs": [
						{
							"internalType": "uint256",
							"name": "amount",
							"type": "uint256"
						}
					],
					"name": "unstake",
					"outputs": [],
					"stateMutability": "nonpayable",
					"type": "function"
				}
			],
			"devdoc": {
				"kind": "dev",
				"methods": {
					"allowance(address,address)": {
						"details": "See {IERC20-allowance}."
					},
					"approve(address,uint256)": {
						"details": "See {IERC20-approve}. NOTE: If `amount` is the maximum `uint256`, the allowance is not updated on `transferFrom`. This is semantically equivalent to an infinite approval. Requirements: - `spender` cannot be the zero address."
					},
					"balanceOf(address)": {
						"details": "See {IERC20-balanceOf}."
					},
					"decimals()": {
						"details": "Returns the number of decimals used to get its user representation. For example, if `decimals` equals `2`, a balance of `505` tokens should be displayed to a user as `5.05` (`505 / 10 ** 2`). Tokens usually opt for a value of 18, imitating the relationship between Ether and Wei. This is the default value returned by this function, unless it's overridden. NOTE: This information is only used for _display_ purposes: it in no way affects any of the arithmetic of the contract, including {IERC20-balanceOf} and {IERC20-transfer}."
					},
					"decreaseAllowance(address,uint256)": {
						"details": "Atomically decreases the allowance granted to `spender` by the caller. This is an alternative to {approve} that can be used as a mitigation for problems described in {IERC20-approve}. Emits an {Approval} event indicating the updated allowance. Requirements: - `spender` cannot be the zero address. - `spender` must have allowance for the caller of at least `subtractedValue`."
					},
					"increaseAllowance(address,uint256)": {
						"details": "Atomically increases the allowance granted to `spender` by the caller. This is an alternative to {approve} that can be used as a mitigation for problems described in {IERC20-approve}. Emits an {Approval} event indicating the updated allowance. Requirements: - `spender` cannot be the zero address."
					},
					"name()": {
						"details": "Returns the name of the token."
					},
					"symbol()": {
						"details": "Returns the symbol of the token, usually a shorter version of the name."
					},
					"totalSupply()": {
						"details": "See {IERC20-totalSupply}."
					},
					"transfer(address,uint256)": {
						"details": "See {IERC20-transfer}. Requirements: - `to` cannot be the zero address. - the caller must have a balance of at least `amount`."
					},
					"transferFrom(address,address,uint256)": {
						"details": "See {IERC20-transferFrom}. Emits an {Approval} event indicating the updated allowance. This is not required by the EIP. See the note at the beginning of {ERC20}. NOTE: Does not update the allowance if the current allowance is the maximum `uint256`. Requirements: - `from` and `to` cannot be the zero address. - `from` must have a balance of at least `amount`. - the caller must have allowance for ``from``'s tokens of at least `amount`."
					}
				},
				"version": 1
			},
			"evm": {
				"assembly": "    /* \"contracts/FixedStaking.sol\":122:1363  contract FixedStaking is ERC20 {... */\n  mstore(0x40, 0x80)\n    /* \"contracts/FixedStaking.sol\":262:361  constructor() ERC20(\"Fixed Staking\", \"FIX\") {... */\n  callvalue\n  dup1\n  iszero\n  tag_1\n  jumpi\n  0x00\n  dup1\n  revert\ntag_1:\n  pop\n    /* \"@openzeppelin/contracts@4.9.3/token/ERC20/ERC20.sol\":1980:2093  constructor(string memory name_, string memory symbol_) {... */\n  mload(0x40)\n  dup1\n  0x40\n  add\n  0x40\n  mstore\n  dup1\n  0x0d\n  dup2\n  mstore\n  0x20\n  add\n  0x4669786564205374616b696e6700000000000000000000000000000000000000\n  dup2\n  mstore\n  pop\n  mload(0x40)\n  dup1\n  0x40\n  add\n  0x40\n  mstore\n  dup1\n  0x03\n  dup2\n  mstore\n  0x20\n  add\n  0x4649580000000000000000000000000000000000000000000000000000000000\n  dup2\n  mstore\n  pop\n    /* \"@openzeppelin/contracts@4.9.3/token/ERC20/ERC20.sol\":2054:2059  name_ */\n  dup2\n    /* \"@openzeppelin/contracts@4.9.3/token/ERC20/ERC20.sol\":2046:2051  _name */\n  0x03\n    /* \"@openzeppelin/contracts@4.9.3/token/ERC20/ERC20.sol\":2046:2059  _name = name_ */\n  swap1\n  dup2\n  tag_5\n  swap2\n  swap1\n  tag_6\n  jump\t// in\ntag_5:\n  pop\n    /* \"@openzeppelin/contracts@4.9.3/token/ERC20/ERC20.sol\":2079:2086  symbol_ */\n  dup1\n    /* \"@openzeppelin/contracts@4.9.3/token/ERC20/ERC20.sol\":2069:2076  _symbol */\n  0x04\n    /* \"@openzeppelin/contracts@4.9.3/token/ERC20/ERC20.sol\":2069:2086  _symbol = symbol_ */\n  swap1\n  dup2\n  tag_7\n  swap2\n  swap1\n  tag_6\n  jump\t// in\ntag_7:\n  pop\n    /* \"@openzeppelin/contracts@4.9.3/token/ERC20/ERC20.sol\":1980:2093  constructor(string memory name_, string memory symbol_) {... */\n  pop\n  pop\n    /* \"contracts/FixedStaking.sol\":316:354  _mint(msg.sender, 1000000000000000000) */\n  tag_9\n    /* \"contracts/FixedStaking.sol\":322:332  msg.sender */\n  caller\n    /* \"contracts/FixedStaking.sol\":334:353  1000000000000000000 */\n  0x0de0b6b3a7640000\n    /* \"contracts/FixedStaking.sol\":316:321  _mint */\n  shl(0x20, tag_10)\n    /* \"contracts/FixedStaking.sol\":316:354  _mint(msg.sender, 1000000000000000000) */\n  0x20\n  shr\n  jump\t// in\ntag_9:\n    /* \"contracts/FixedStaking.sol\":122:1363  contract FixedStaking is ERC20 {... */\n  jump(tag_11)\n    /* \"@openzeppelin/contracts@4.9.3/token/ERC20/ERC20.sol\":8520:9055  function _mint(address account, uint256 amount) internal virtual {... */\ntag_10:\n    /* \"@openzeppelin/contracts@4.9.3/token/ERC20/ERC20.sol\":8622:8623  0 */\n  0x00\n    /* \"@openzeppelin/contracts@4.9.3/token/ERC20/ERC20.sol\":8603:8624  account != address(0) */\n  0xffffffffffffffffffffffffffffffffffffffff\n  and\n    /* \"@openzeppelin/contracts@4.9.3/token/ERC20/ERC20.sol\":8603:8610  account */\n  dup3\n    /* \"@openzeppelin/contracts@4.9.3/token/ERC20/ERC20.sol\":8603:8624  account != address(0) */\n  0xffffffffffffffffffffffffffffffffffffffff\n  and\n  sub\n    /* \"@openzeppelin/contracts@4.9.3/token/ERC20/ERC20.sol\":8595:8660  require(account != address(0), \"ERC20: mint to the zero address\") */\n  tag_13\n  jumpi\n  mload(0x40)\n  0x08c379a000000000000000000000000000000000000000000000000000000000\n  dup2\n  mstore\n  0x04\n  add\n  tag_14\n  swap1\n  tag_15\n  jump\t// in\ntag_14:\n  mload(0x40)\n  dup1\n  swap2\n  sub\n  swap1\n  revert\ntag_13:\n    /* \"@openzeppelin/contracts@4.9.3/token/ERC20/ERC20.sol\":8671:8720  _beforeTokenTransfer(address(0), account, amount) */\n  tag_16\n    /* \"@openzeppelin/contracts@4.9.3/token/ERC20/ERC20.sol\":8700:8701  0 */\n  0x00\n    /* \"@openzeppelin/contracts@4.9.3/token/ERC20/ERC20.sol\":8704:8711  account */\n  dup4\n    /* \"@openzeppelin/contracts@4.9.3/token/ERC20/ERC20.sol\":8713:8719  amount */\n  dup4\n    /* \"@openzeppelin/contracts@4.9.3/token/ERC20/ERC20.sol\":8671:8691  _beforeTokenTransfer */\n  shl(0x20, tag_17)\n    /* \"@openzeppelin/contracts@4.9.3/token/ERC20/ERC20.sol\":8671:8720  _beforeTokenTransfer(address(0), account, amount) */\n  0x20\n  shr\n  jump\t// in\ntag_16:\n    /* \"@openzeppelin/contracts@4.9.3/token/ERC20/ERC20.sol\":8747:8753  amount */\n  dup1\n    /* \"@openzeppelin/contracts@4.9.3/token/ERC20/ERC20.sol\":8731:8743  _totalSupply */\n  0x02\n  0x00\n    /* \"@openzeppelin/contracts@4.9.3/token/ERC20/ERC20.sol\":8731:8753  _totalSupply += amount */\n  dup3\n  dup3\n  sload\n  tag_18\n  swap2\n  swap1\n  tag_19\n  jump\t// in\ntag_18:\n  swap3\n  pop\n  pop\n  dup2\n  swap1\n  sstore\n  pop\n    /* \"@openzeppelin/contracts@4.9.3/token/ERC20/ERC20.sol\":8921:8927  amount */\n  dup1\n    /* \"@openzeppelin/contracts@4.9.3/token/ERC20/ERC20.sol\":8899:8908  _balances */\n  0x00\n    /* \"@openzeppelin/contracts@4.9.3/token/ERC20/ERC20.sol\":8899:8917  _balances[account] */\n  dup1\n    /* \"@openzeppelin/contracts@4.9.3/token/ERC20/ERC20.sol\":8909:8916  account */\n  dup5\n    /* \"@openzeppelin/contracts@4.9.3/token/ERC20/ERC20.sol\":8899:8917  _balances[account] */\n  0xffffffffffffffffffffffffffffffffffffffff\n  and\n  0xffffffffffffffffffffffffffffffffffffffff\n  and\n  dup2\n  mstore\n  0x20\n  add\n  swap1\n  dup2\n  mstore\n  0x20\n  add\n  0x00\n  keccak256\n  0x00\n    /* \"@openzeppelin/contracts@4.9.3/token/ERC20/ERC20.sol\":8899:8927  _balances[account] += amount */\n  dup3\n  dup3\n  sload\n  add\n  swap3\n  pop\n  pop\n  dup2\n  swap1\n  sstore\n  pop\n    /* \"@openzeppelin/contracts@4.9.3/token/ERC20/ERC20.sol\":8973:8980  account */\n  dup2\n    /* \"@openzeppelin/contracts@4.9.3/token/ERC20/ERC20.sol\":8952:8989  Transfer(address(0), account, amount) */\n  0xffffffffffffffffffffffffffffffffffffffff\n  and\n    /* \"@openzeppelin/contracts@4.9.3/token/ERC20/ERC20.sol\":8969:8970  0 */\n  0x00\n    /* \"@openzeppelin/contracts@4.9.3/token/ERC20/ERC20.sol\":8952:8989  Transfer(address(0), account, amount) */\n  0xffffffffffffffffffffffffffffffffffffffff\n  and\n  0xddf252ad1be2c89b69c2b068fc378daa952ba7f163c4a11628f55a4df523b3ef\n    /* \"@openzeppelin/contracts@4.9.3/token/ERC20/ERC20.sol\":8982:8988  amount */\n  dup4\n    /* \"@openzeppelin/contracts@4.9.3/token/ERC20/ERC20.sol\":8952:8989  Transfer(address(0), account, amount) */\n  mload(0x40)\n  tag_20\n  swap2\n  swap1\n  tag_21\n  jump\t// in\ntag_20:\n  mload(0x40)\n  dup1\n  swap2\n  sub\n  swap1\n  log3\n    /* \"@openzeppelin/contracts@4.9.3/token/ERC20/ERC20.sol\":9000:9048  _afterTokenTransfer(address(0), account, amount) */\n  tag_22\n    /* \"@openzeppelin/contracts@4.9.3/token/ERC20/ERC20.sol\":9028:9029  0 */\n  0x00\n    /* \"@openzeppelin/contracts@4.9.3/token/ERC20/ERC20.sol\":9032:9039  account */\n  dup4\n    /* \"@openzeppelin/contracts@4.9.3/token/ERC20/ERC20.sol\":9041:9047  amount */\n  dup4\n    /* \"@openzeppelin/contracts@4.9.3/token/ERC20/ERC20.sol\":9000:9019  _afterTokenTransfer */\n  shl(0x20, tag_23)\n    /* \"@openzeppelin/contracts@4.9.3/token/ERC20/ERC20.sol\":9000:9048  _afterTokenTransfer(address(0), account, amount) */\n  0x20\n  shr\n  jump\t// in\ntag_22:\n    /* \"@openzeppelin/contracts@4.9.3/token/ERC20/ERC20.sol\":8520:9055  function _mint(address account, uint256 amount) internal virtual {... */\n  pop\n  pop\n  jump\t// out\n    /* \"@openzeppelin/contracts@4.9.3/token/ERC20/ERC20.sol\":12073:12164  function _beforeTokenTransfer(address from, address to, uint256 amount) internal virtual {} */\ntag_17:\n  pop\n  pop\n  pop\n  jump\t// out\n    /* \"@openzeppelin/contracts@4.9.3/token/ERC20/ERC20.sol\":12752:12842  function _afterTokenTransfer(address from, address to, uint256 amount) internal virtual {} */\ntag_23:\n  pop\n  pop\n  pop\n  jump\t// out\n    /* \"#utility.yul\":7:106   */\ntag_26:\n    /* \"#utility.yul\":59:65   */\n  0x00\n    /* \"#utility.yul\":93:98   */\n  dup2\n    /* \"#utility.yul\":87:99   */\n  mload\n    /* \"#utility.yul\":77:99   */\n  swap1\n  pop\n    /* \"#utility.yul\":7:106   */\n  swap2\n  swap1\n  pop\n  jump\t// out\n    /* \"#utility.yul\":112:292   */\ntag_27:\n    /* \"#utility.yul\":160:237   */\n  0x4e487b7100000000000000000000000000000000000000000000000000000000\n    /* \"#utility.yul\":157:158   */\n  0x00\n    /* \"#utility.yul\":150:238   */\n  mstore\n    /* \"#utility.yul\":257:261   */\n  0x41\n    /* \"#utility.yul\":254:255   */\n  0x04\n    /* \"#utility.yul\":247:262   */\n  mstore\n    /* \"#utility.yul\":281:285   */\n  0x24\n    /* \"#utility.yul\":278:279   */\n  0x00\n    /* \"#utility.yul\":271:286   */\n  revert\n    /* \"#utility.yul\":298:478   */\ntag_28:\n    /* \"#utility.yul\":346:423   */\n  0x4e487b7100000000000000000000000000000000000000000000000000000000\n    /* \"#utility.yul\":343:344   */\n  0x00\n    /* \"#utility.yul\":336:424   */\n  mstore\n    /* \"#utility.yul\":443:447   */\n  0x22\n    /* \"#utility.yul\":440:441   */\n  0x04\n    /* \"#utility.yul\":433:448   */\n  mstore\n    /* \"#utility.yul\":467:471   */\n  0x24\n    /* \"#utility.yul\":464:465   */\n  0x00\n    /* \"#utility.yul\":457:472   */\n  revert\n    /* \"#utility.yul\":484:804   */\ntag_29:\n    /* \"#utility.yul\":528:534   */\n  0x00\n    /* \"#utility.yul\":565:566   */\n  0x02\n    /* \"#utility.yul\":559:563   */\n  dup3\n    /* \"#utility.yul\":555:567   */\n  div\n    /* \"#utility.yul\":545:567   */\n  swap1\n  pop\n    /* \"#utility.yul\":612:613   */\n  0x01\n    /* \"#utility.yul\":606:610   */\n  dup3\n    /* \"#utility.yul\":602:614   */\n  and\n    /* \"#utility.yul\":633:651   */\n  dup1\n    /* \"#utility.yul\":623:704   */\n  tag_56\n  jumpi\n    /* \"#utility.yul\":689:693   */\n  0x7f\n    /* \"#utility.yul\":681:687   */\n  dup3\n    /* \"#utility.yul\":677:694   */\n  and\n    /* \"#utility.yul\":667:694   */\n  swap2\n  pop\n    /* \"#utility.yul\":623:704   */\ntag_56:\n    /* \"#utility.yul\":751:753   */\n  0x20\n    /* \"#utility.yul\":743:749   */\n  dup3\n    /* \"#utility.yul\":740:754   */\n  lt\n    /* \"#utility.yul\":720:738   */\n  dup2\n    /* \"#utility.yul\":717:755   */\n  sub\n    /* \"#utility.yul\":714:798   */\n  tag_57\n  jumpi\n    /* \"#utility.yul\":770:788   */\n  tag_58\n  tag_28\n  jump\t// in\ntag_58:\n    /* \"#utility.yul\":714:798   */\ntag_57:\n    /* \"#utility.yul\":535:804   */\n  pop\n    /* \"#utility.yul\":484:804   */\n  swap2\n  swap1\n  pop\n  jump\t// out\n    /* \"#utility.yul\":810:951   */\ntag_30:\n    /* \"#utility.yul\":859:863   */\n  0x00\n    /* \"#utility.yul\":882:885   */\n  dup2\n    /* \"#utility.yul\":874:885   */\n  swap1\n  pop\n    /* \"#utility.yul\":905:908   */\n  dup2\n    /* \"#utility.yul\":902:903   */\n  0x00\n    /* \"#utility.yul\":895:909   */\n  mstore\n    /* \"#utility.yul\":939:943   */\n  0x20\n    /* \"#utility.yul\":936:937   */\n  0x00\n    /* \"#utility.yul\":926:944   */\n  keccak256\n    /* \"#utility.yul\":918:944   */\n  swap1\n  pop\n    /* \"#utility.yul\":810:951   */\n  swap2\n  swap1\n  pop\n  jump\t// out\n    /* \"#utility.yul\":957:1050   */\ntag_31:\n    /* \"#utility.yul\":994:1000   */\n  0x00\n    /* \"#utility.yul\":1041:1043   */\n  0x20\n    /* \"#utility.yul\":1036:1038   */\n  0x1f\n    /* \"#utility.yul\":1029:1034   */\n  dup4\n    /* \"#utility.yul\":1025:1039   */\n  add\n    /* \"#utility.yul\":1021:1044   */\n  div\n    /* \"#utility.yul\":1011:1044   */\n  swap1\n  pop\n    /* \"#utility.yul\":957:1050   */\n  swap2\n  swap1\n  pop\n  jump\t// out\n    /* \"#utility.yul\":1056:1163   */\ntag_32:\n    /* \"#utility.yul\":1100:1108   */\n  0x00\n    /* \"#utility.yul\":1150:1155   */\n  dup3\n    /* \"#utility.yul\":1144:1148   */\n  dup3\n    /* \"#utility.yul\":1140:1156   */\n  shl\n    /* \"#utility.yul\":1119:1156   */\n  swap1\n  pop\n    /* \"#utility.yul\":1056:1163   */\n  swap3\n  swap2\n  pop\n  pop\n  jump\t// out\n    /* \"#utility.yul\":1169:1562   */\ntag_33:\n    /* \"#utility.yul\":1238:1244   */\n  0x00\n    /* \"#utility.yul\":1288:1289   */\n  0x08\n    /* \"#utility.yul\":1276:1286   */\n  dup4\n    /* \"#utility.yul\":1272:1290   */\n  mul\n    /* \"#utility.yul\":1311:1408   */\n  tag_63\n    /* \"#utility.yul\":1341:1407   */\n  0xffffffffffffffffffffffffffffffffffffffffffffffffffffffffffffffff\n    /* \"#utility.yul\":1330:1339   */\n  dup3\n    /* \"#utility.yul\":1311:1408   */\n  tag_32\n  jump\t// in\ntag_63:\n    /* \"#utility.yul\":1429:1468   */\n  tag_64\n    /* \"#utility.yul\":1459:1467   */\n  dup7\n    /* \"#utility.yul\":1448:1457   */\n  dup4\n    /* \"#utility.yul\":1429:1468   */\n  tag_32\n  jump\t// in\ntag_64:\n    /* \"#utility.yul\":1417:1468   */\n  swap6\n  pop\n    /* \"#utility.yul\":1501:1505   */\n  dup1\n    /* \"#utility.yul\":1497:1506   */\n  not\n    /* \"#utility.yul\":1490:1495   */\n  dup5\n    /* \"#utility.yul\":1486:1507   */\n  and\n    /* \"#utility.yul\":1477:1507   */\n  swap4\n  pop\n    /* \"#utility.yul\":1550:1554   */\n  dup1\n    /* \"#utility.yul\":1540:1548   */\n  dup7\n    /* \"#utility.yul\":1536:1555   */\n  and\n    /* \"#utility.yul\":1529:1534   */\n  dup5\n    /* \"#utility.yul\":1526:1556   */\n  or\n    /* \"#utility.yul\":1516:1556   */\n  swap3\n  pop\n    /* \"#utility.yul\":1245:1562   */\n  pop\n  pop\n    /* \"#utility.yul\":1169:1562   */\n  swap4\n  swap3\n  pop\n  pop\n  pop\n  jump\t// out\n    /* \"#utility.yul\":1568:1645   */\ntag_34:\n    /* \"#utility.yul\":1605:1612   */\n  0x00\n    /* \"#utility.yul\":1634:1639   */\n  dup2\n    /* \"#utility.yul\":1623:1639   */\n  swap1\n  pop\n    /* \"#utility.yul\":1568:1645   */\n  swap2\n  swap1\n  pop\n  jump\t// out\n    /* \"#utility.yul\":1651:1711   */\ntag_35:\n    /* \"#utility.yul\":1679:1682   */\n  0x00\n    /* \"#utility.yul\":1700:1705   */\n  dup2\n    /* \"#utility.yul\":1693:1705   */\n  swap1\n  pop\n    /* \"#utility.yul\":1651:1711   */\n  swap2\n  swap1\n  pop\n  jump\t// out\n    /* \"#utility.yul\":1717:1859   */\ntag_36:\n    /* \"#utility.yul\":1767:1776   */\n  0x00\n    /* \"#utility.yul\":1800:1853   */\n  tag_68\n    /* \"#utility.yul\":1818:1852   */\n  tag_69\n    /* \"#utility.yul\":1827:1851   */\n  tag_70\n    /* \"#utility.yul\":1845:1850   */\n  dup5\n    /* \"#utility.yul\":1827:1851   */\n  tag_34\n  jump\t// in\ntag_70:\n    /* \"#utility.yul\":1818:1852   */\n  tag_35\n  jump\t// in\ntag_69:\n    /* \"#utility.yul\":1800:1853   */\n  tag_34\n  jump\t// in\ntag_68:\n    /* \"#utility.yul\":1787:1853   */\n  swap1\n  pop\n    /* \"#utility.yul\":1717:1859   */\n  swap2\n  swap1\n  pop\n  jump\t// out\n    /* \"#utility.yul\":1865:1940   */\ntag_37:\n    /* \"#utility.yul\":1908:1911   */\n  0x00\n    /* \"#utility.yul\":1929:1934   */\n  dup2\n    /* \"#utility.yul\":1922:1934   */\n  swap1\n  pop\n    /* \"#utility.yul\":1865:1940   */\n  swap2\n  swap1\n  pop\n  jump\t// out\n    /* \"#utility.yul\":1946:2215   */\ntag_38:\n    /* \"#utility.yul\":2056:2095   */\n  tag_73\n    /* \"#utility.yul\":2087:2094   */\n  dup4\n    /* \"#utility.yul\":2056:2095   */\n  tag_36\n  jump\t// in\ntag_73:\n    /* \"#utility.yul\":2117:2208   */\n  tag_74\n    /* \"#utility.yul\":2166:2207   */\n  tag_75\n    /* \"#utility.yul\":2190:2206   */\n  dup3\n    /* \"#utility.yul\":2166:2207   */\n  tag_37\n  jump\t// in\ntag_75:\n    /* \"#utility.yul\":2158:2164   */\n  dup5\n    /* \"#utility.yul\":2151:2155   */\n  dup5\n    /* \"#utility.yul\":2145:2156   */\n  sload\n    /* \"#utility.yul\":2117:2208   */\n  tag_33\n  jump\t// in\ntag_74:\n    /* \"#utility.yul\":2111:2115   */\n  dup3\n    /* \"#utility.yul\":2104:2209   */\n  sstore\n    /* \"#utility.yul\":2022:2215   */\n  pop\n    /* \"#utility.yul\":1946:2215   */\n  pop\n  pop\n  pop\n  jump\t// out\n    /* \"#utility.yul\":2221:2294   */\ntag_39:\n    /* \"#utility.yul\":2266:2269   */\n  0x00\n    /* \"#utility.yul\":2221:2294   */\n  swap1\n  jump\t// out\n    /* \"#utility.yul\":2300:2489   */\ntag_40:\n    /* \"#utility.yul\":2377:2409   */\n  tag_78\n  tag_39\n  jump\t// in\ntag_78:\n    /* \"#utility.yul\":2418:2483   */\n  tag_79\n    /* \"#utility.yul\":2476:2482   */\n  dup2\n    /* \"#utility.yul\":2468:2474   */\n  dup5\n    /* \"#utility.yul\":2462:2466   */\n  dup5\n    /* \"#utility.yul\":2418:2483   */\n  tag_38\n  jump\t// in\ntag_79:\n    /* \"#utility.yul\":2353:2489   */\n  pop\n    /* \"#utility.yul\":2300:2489   */\n  pop\n  pop\n  jump\t// out\n    /* \"#utility.yul\":2495:2681   */\ntag_41:\n    /* \"#utility.yul\":2555:2675   */\ntag_81:\n    /* \"#utility.yul\":2572:2575   */\n  dup2\n    /* \"#utility.yul\":2565:2570   */\n  dup2\n    /* \"#utility.yul\":2562:2576   */\n  lt\n    /* \"#utility.yul\":2555:2675   */\n  iszero\n  tag_83\n  jumpi\n    /* \"#utility.yul\":2626:2665   */\n  tag_84\n    /* \"#utility.yul\":2663:2664   */\n  0x00\n    /* \"#utility.yul\":2656:2661   */\n  dup3\n    /* \"#utility.yul\":2626:2665   */\n  tag_40\n  jump\t// in\ntag_84:\n    /* \"#utility.yul\":2599:2600   */\n  0x01\n    /* \"#utility.yul\":2592:2597   */\n  dup2\n    /* \"#utility.yul\":2588:2601   */\n  add\n    /* \"#utility.yul\":2579:2601   */\n  swap1\n  pop\n    /* \"#utility.yul\":2555:2675   */\n  jump(tag_81)\ntag_83:\n    /* \"#utility.yul\":2495:2681   */\n  pop\n  pop\n  jump\t// out\n    /* \"#utility.yul\":2687:3230   */\ntag_42:\n    /* \"#utility.yul\":2788:2790   */\n  0x1f\n    /* \"#utility.yul\":2783:2786   */\n  dup3\n    /* \"#utility.yul\":2780:2791   */\n  gt\n    /* \"#utility.yul\":2777:3223   */\n  iszero\n  tag_86\n  jumpi\n    /* \"#utility.yul\":2822:2860   */\n  tag_87\n    /* \"#utility.yul\":2854:2859   */\n  dup2\n    /* \"#utility.yul\":2822:2860   */\n  tag_30\n  jump\t// in\ntag_87:\n    /* \"#utility.yul\":2906:2935   */\n  tag_88\n    /* \"#utility.yul\":2924:2934   */\n  dup5\n    /* \"#utility.yul\":2906:2935   */\n  tag_31\n  jump\t// in\ntag_88:\n    /* \"#utility.yul\":2896:2904   */\n  dup2\n    /* \"#utility.yul\":2892:2936   */\n  add\n    /* \"#utility.yul\":3089:3091   */\n  0x20\n    /* \"#utility.yul\":3077:3087   */\n  dup6\n    /* \"#utility.yul\":3074:3092   */\n  lt\n    /* \"#utility.yul\":3071:3120   */\n  iszero\n  tag_89\n  jumpi\n    /* \"#utility.yul\":3110:3118   */\n  dup2\n    /* \"#utility.yul\":3095:3118   */\n  swap1\n  pop\n    /* \"#utility.yul\":3071:3120   */\ntag_89:\n    /* \"#utility.yul\":3133:3213   */\n  tag_90\n    /* \"#utility.yul\":3189:3211   */\n  tag_91\n    /* \"#utility.yul\":3207:3210   */\n  dup6\n    /* \"#utility.yul\":3189:3211   */\n  tag_31\n  jump\t// in\ntag_91:\n    /* \"#utility.yul\":3179:3187   */\n  dup4\n    /* \"#utility.yul\":3175:3212   */\n  add\n    /* \"#utility.yul\":3162:3173   */\n  dup3\n    /* \"#utility.yul\":3133:3213   */\n  tag_41\n  jump\t// in\ntag_90:\n    /* \"#utility.yul\":2792:3223   */\n  pop\n  pop\n    /* \"#utility.yul\":2777:3223   */\ntag_86:\n    /* \"#utility.yul\":2687:3230   */\n  pop\n  pop\n  pop\n  jump\t// out\n    /* \"#utility.yul\":3236:3353   */\ntag_43:\n    /* \"#utility.yul\":3290:3298   */\n  0x00\n    /* \"#utility.yul\":3340:3345   */\n  dup3\n    /* \"#utility.yul\":3334:3338   */\n  dup3\n    /* \"#utility.yul\":3330:3346   */\n  shr\n    /* \"#utility.yul\":3309:3346   */\n  swap1\n  pop\n    /* \"#utility.yul\":3236:3353   */\n  swap3\n  swap2\n  pop\n  pop\n  jump\t// out\n    /* \"#utility.yul\":3359:3528   */\ntag_44:\n    /* \"#utility.yul\":3403:3409   */\n  0x00\n    /* \"#utility.yul\":3436:3487   */\n  tag_94\n    /* \"#utility.yul\":3484:3485   */\n  0x00\n    /* \"#utility.yul\":3480:3486   */\n  not\n    /* \"#utility.yul\":3472:3477   */\n  dup5\n    /* \"#utility.yul\":3469:3470   */\n  0x08\n    /* \"#utility.yul\":3465:3478   */\n  mul\n    /* \"#utility.yul\":3436:3487   */\n  tag_43\n  jump\t// in\ntag_94:\n    /* \"#utility.yul\":3432:3488   */\n  not\n    /* \"#utility.yul\":3517:3521   */\n  dup1\n    /* \"#utility.yul\":3511:3515   */\n  dup4\n    /* \"#utility.yul\":3507:3522   */\n  and\n    /* \"#utility.yul\":3497:3522   */\n  swap2\n  pop\n    /* \"#utility.yul\":3410:3528   */\n  pop\n    /* \"#utility.yul\":3359:3528   */\n  swap3\n  swap2\n  pop\n  pop\n  jump\t// out\n    /* \"#utility.yul\":3533:3828   */\ntag_45:\n    /* \"#utility.yul\":3609:3613   */\n  0x00\n    /* \"#utility.yul\":3755:3784   */\n  tag_96\n    /* \"#utility.yul\":3780:3783   */\n  dup4\n    /* \"#utility.yul\":3774:3778   */\n  dup4\n    /* \"#utility.yul\":3755:3784   */\n  tag_44\n  jump\t// in\ntag_96:\n    /* \"#utility.yul\":3747:3784   */\n  swap2\n  pop\n    /* \"#utility.yul\":3817:3820   */\n  dup3\n    /* \"#utility.yul\":3814:3815   */\n  0x02\n    /* \"#utility.yul\":3810:3821   */\n  mul\n    /* \"#utility.yul\":3804:3808   */\n  dup3\n    /* \"#utility.yul\":3801:3822   */\n  or\n    /* \"#utility.yul\":3793:3822   */\n  swap1\n  pop\n    /* \"#utility.yul\":3533:3828   */\n  swap3\n  swap2\n  pop\n  pop\n  jump\t// out\n    /* \"#utility.yul\":3833:5228   */\ntag_6:\n    /* \"#utility.yul\":3950:3987   */\n  tag_98\n    /* \"#utility.yul\":3983:3986   */\n  dup3\n    /* \"#utility.yul\":3950:3987   */\n  tag_26\n  jump\t// in\ntag_98:\n    /* \"#utility.yul\":4052:4070   */\n  0xffffffffffffffff\n    /* \"#utility.yul\":4044:4050   */\n  dup2\n    /* \"#utility.yul\":4041:4071   */\n  gt\n    /* \"#utility.yul\":4038:4094   */\n  iszero\n  tag_99\n  jumpi\n    /* \"#utility.yul\":4074:4092   */\n  tag_100\n  tag_27\n  jump\t// in\ntag_100:\n    /* \"#utility.yul\":4038:4094   */\ntag_99:\n    /* \"#utility.yul\":4118:4156   */\n  tag_101\n    /* \"#utility.yul\":4150:4154   */\n  dup3\n    /* \"#utility.yul\":4144:4155   */\n  sload\n    /* \"#utility.yul\":4118:4156   */\n  tag_29\n  jump\t// in\ntag_101:\n    /* \"#utility.yul\":4203:4270   */\n  tag_102\n    /* \"#utility.yul\":4263:4269   */\n  dup3\n    /* \"#utility.yul\":4255:4261   */\n  dup3\n    /* \"#utility.yul\":4249:4253   */\n  dup6\n    /* \"#utility.yul\":4203:4270   */\n  tag_42\n  jump\t// in\ntag_102:\n    /* \"#utility.yul\":4297:4298   */\n  0x00\n    /* \"#utility.yul\":4321:4325   */\n  0x20\n    /* \"#utility.yul\":4308:4325   */\n  swap1\n  pop\n    /* \"#utility.yul\":4353:4355   */\n  0x1f\n    /* \"#utility.yul\":4345:4351   */\n  dup4\n    /* \"#utility.yul\":4342:4356   */\n  gt\n    /* \"#utility.yul\":4370:4371   */\n  0x01\n    /* \"#utility.yul\":4365:4983   */\n  dup2\n  eq\n  tag_104\n  jumpi\n    /* \"#utility.yul\":5027:5028   */\n  0x00\n    /* \"#utility.yul\":5044:5050   */\n  dup5\n    /* \"#utility.yul\":5041:5118   */\n  iszero\n  tag_105\n  jumpi\n    /* \"#utility.yul\":5093:5102   */\n  dup3\n    /* \"#utility.yul\":5088:5091   */\n  dup8\n    /* \"#utility.yul\":5084:5103   */\n  add\n    /* \"#utility.yul\":5078:5104   */\n  mload\n    /* \"#utility.yul\":5069:5104   */\n  swap1\n  pop\n    /* \"#utility.yul\":5041:5118   */\ntag_105:\n    /* \"#utility.yul\":5144:5211   */\n  tag_106\n    /* \"#utility.yul\":5204:5210   */\n  dup6\n    /* \"#utility.yul\":5197:5202   */\n  dup3\n    /* \"#utility.yul\":5144:5211   */\n  tag_45\n  jump\t// in\ntag_106:\n    /* \"#utility.yul\":5138:5142   */\n  dup7\n    /* \"#utility.yul\":5131:5212   */\n  sstore\n    /* \"#utility.yul\":5000:5222   */\n  pop\n    /* \"#utility.yul\":4335:5222   */\n  jump(tag_103)\n    /* \"#utility.yul\":4365:4983   */\ntag_104:\n    /* \"#utility.yul\":4417:4421   */\n  0x1f\n    /* \"#utility.yul\":4413:4422   */\n  not\n    /* \"#utility.yul\":4405:4411   */\n  dup5\n    /* \"#utility.yul\":4401:4423   */\n  and\n    /* \"#utility.yul\":4451:4488   */\n  tag_107\n    /* \"#utility.yul\":4483:4487   */\n  dup7\n    /* \"#utility.yul\":4451:4488   */\n  tag_30\n  jump\t// in\ntag_107:\n    /* \"#utility.yul\":4510:4511   */\n  0x00\n    /* \"#utility.yul\":4524:4732   */\ntag_108:\n    /* \"#utility.yul\":4538:4545   */\n  dup3\n    /* \"#utility.yul\":4535:4536   */\n  dup2\n    /* \"#utility.yul\":4532:4546   */\n  lt\n    /* \"#utility.yul\":4524:4732   */\n  iszero\n  tag_110\n  jumpi\n    /* \"#utility.yul\":4617:4626   */\n  dup5\n    /* \"#utility.yul\":4612:4615   */\n  dup10\n    /* \"#utility.yul\":4608:4627   */\n  add\n    /* \"#utility.yul\":4602:4628   */\n  mload\n    /* \"#utility.yul\":4594:4600   */\n  dup3\n    /* \"#utility.yul\":4587:4629   */\n  sstore\n    /* \"#utility.yul\":4668:4669   */\n  0x01\n    /* \"#utility.yul\":4660:4666   */\n  dup3\n    /* \"#utility.yul\":4656:4670   */\n  add\n    /* \"#utility.yul\":4646:4670   */\n  swap2\n  pop\n    /* \"#utility.yul\":4715:4717   */\n  0x20\n    /* \"#utility.yul\":4704:4713   */\n  dup6\n    /* \"#utility.yul\":4700:4718   */\n  add\n    /* \"#utility.yul\":4687:4718   */\n  swap5\n  pop\n    /* \"#utility.yul\":4561:4565   */\n  0x20\n    /* \"#utility.yul\":4558:4559   */\n  dup2\n    /* \"#utility.yul\":4554:4566   */\n  add\n    /* \"#utility.yul\":4549:4566   */\n  swap1\n  pop\n    /* \"#utility.yul\":4524:4732   */\n  jump(tag_108)\ntag_110:\n    /* \"#utility.yul\":4760:4766   */\n  dup7\n    /* \"#utility.yul\":4751:4758   */\n  dup4\n    /* \"#utility.yul\":4748:4767   */\n  lt\n    /* \"#utility.yul\":4745:4924   */\n  iszero\n  tag_111\n  jumpi\n    /* \"#utility.yul\":4818:4827   */\n  dup5\n    /* \"#utility.yul\":4813:4816   */\n  dup10\n    /* \"#utility.yul\":4809:4828   */\n  add\n    /* \"#utility.yul\":4803:4829   */\n  mload\n    /* \"#utility.yul\":4861:4909   */\n  tag_112\n    /* \"#utility.yul\":4903:4907   */\n  0x1f\n    /* \"#utility.yul\":4895:4901   */\n  dup10\n    /* \"#utility.yul\":4891:4908   */\n  and\n    /* \"#utility.yul\":4880:4889   */\n  dup3\n    /* \"#utility.yul\":4861:4909   */\n  tag_44\n  jump\t// in\ntag_112:\n    /* \"#utility.yul\":4853:4859   */\n  dup4\n    /* \"#utility.yul\":4846:4910   */\n  sstore\n    /* \"#utility.yul\":4768:4924   */\n  pop\n    /* \"#utility.yul\":4745:4924   */\ntag_111:\n    /* \"#utility.yul\":4970:4971   */\n  0x01\n    /* \"#utility.yul\":4966:4967   */\n  0x02\n    /* \"#utility.yul\":4958:4964   */\n  dup9\n    /* \"#utility.yul\":4954:4968   */\n  mul\n    /* \"#utility.yul\":4950:4972   */\n  add\n    /* \"#utility.yul\":4944:4948   */\n  dup9\n    /* \"#utility.yul\":4937:4973   */\n  sstore\n    /* \"#utility.yul\":4372:4983   */\n  pop\n  pop\n  pop\n    /* \"#utility.yul\":4335:5222   */\ntag_103:\n  pop\n    /* \"#utility.yul\":3925:5228   */\n  pop\n  pop\n  pop\n    /* \"#utility.yul\":3833:5228   */\n  pop\n  pop\n  jump\t// out\n    /* \"#utility.yul\":5234:5403   */\ntag_46:\n    /* \"#utility.yul\":5318:5329   */\n  0x00\n    /* \"#utility.yul\":5352:5358   */\n  dup3\n    /* \"#utility.yul\":5347:5350   */\n  dup3\n    /* \"#utility.yul\":5340:5359   */\n  mstore\n    /* \"#utility.yul\":5392:5396   */\n  0x20\n    /* \"#utility.yul\":5387:5390   */\n  dup3\n    /* \"#utility.yul\":5383:5397   */\n  add\n    /* \"#utility.yul\":5368:5397   */\n  swap1\n  pop\n    /* \"#utility.yul\":5234:5403   */\n  swap3\n  swap2\n  pop\n  pop\n  jump\t// out\n    /* \"#utility.yul\":5409:5590   */\ntag_47:\n    /* \"#utility.yul\":5549:5582   */\n  0x45524332303a206d696e7420746f20746865207a65726f206164647265737300\n    /* \"#utility.yul\":5545:5546   */\n  0x00\n    /* \"#utility.yul\":5537:5543   */\n  dup3\n    /* \"#utility.yul\":5533:5547   */\n  add\n    /* \"#utility.yul\":5526:5583   */\n  mstore\n    /* \"#utility.yul\":5409:5590   */\n  pop\n  jump\t// out\n    /* \"#utility.yul\":5596:5962   */\ntag_48:\n    /* \"#utility.yul\":5738:5741   */\n  0x00\n    /* \"#utility.yul\":5759:5826   */\n  tag_116\n    /* \"#utility.yul\":5823:5825   */\n  0x1f\n    /* \"#utility.yul\":5818:5821   */\n  dup4\n    /* \"#utility.yul\":5759:5826   */\n  tag_46\n  jump\t// in\ntag_116:\n    /* \"#utility.yul\":5752:5826   */\n  swap2\n  pop\n    /* \"#utility.yul\":5835:5928   */\n  tag_117\n    /* \"#utility.yul\":5924:5927   */\n  dup3\n    /* \"#utility.yul\":5835:5928   */\n  tag_47\n  jump\t// in\ntag_117:\n    /* \"#utility.yul\":5953:5955   */\n  0x20\n    /* \"#utility.yul\":5948:5951   */\n  dup3\n    /* \"#utility.yul\":5944:5956   */\n  add\n    /* \"#utility.yul\":5937:5956   */\n  swap1\n  pop\n    /* \"#utility.yul\":5596:5962   */\n  swap2\n  swap1\n  pop\n  jump\t// out\n    /* \"#utility.yul\":5968:6387   */\ntag_15:\n    /* \"#utility.yul\":6134:6138   */\n  0x00\n    /* \"#utility.yul\":6172:6174   */\n  0x20\n    /* \"#utility.yul\":6161:6170   */\n  dup3\n    /* \"#utility.yul\":6157:6175   */\n  add\n    /* \"#utility.yul\":6149:6175   */\n  swap1\n  pop\n    /* \"#utility.yul\":6221:6230   */\n  dup2\n    /* \"#utility.yul\":6215:6219   */\n  dup2\n    /* \"#utility.yul\":6211:6231   */\n  sub\n    /* \"#utility.yul\":6207:6208   */\n  0x00\n    /* \"#utility.yul\":6196:6205   */\n  dup4\n    /* \"#utility.yul\":6192:6209   */\n  add\n    /* \"#utility.yul\":6185:6232   */\n  mstore\n    /* \"#utility.yul\":6249:6380   */\n  tag_119\n    /* \"#utility.yul\":6375:6379   */\n  dup2\n    /* \"#utility.yul\":6249:6380   */\n  tag_48\n  jump\t// in\ntag_119:\n    /* \"#utility.yul\":6241:6380   */\n  swap1\n  pop\n    /* \"#utility.yul\":5968:6387   */\n  swap2\n  swap1\n  pop\n  jump\t// out\n    /* \"#utility.yul\":6393:6573   */\ntag_49:\n    /* \"#utility.yul\":6441:6518   */\n  0x4e487b7100000000000000000000000000000000000000000000000000000000\n    /* \"#utility.yul\":6438:6439   */\n  0x00\n    /* \"#utility.yul\":6431:6519   */\n  mstore\n    /* \"#utility.yul\":6538:6542   */\n  0x11\n    /* \"#utility.yul\":6535:6536   */\n  0x04\n    /* \"#utility.yul\":6528:6543   */\n  mstore\n    /* \"#utility.yul\":6562:6566   */\n  0x24\n    /* \"#utility.yul\":6559:6560   */\n  0x00\n    /* \"#utility.yul\":6552:6567   */\n  revert\n    /* \"#utility.yul\":6579:6884   */\ntag_19:\n    /* \"#utility.yul\":6619:6622   */\n  0x00\n    /* \"#utility.yul\":6638:6658   */\n  tag_122\n    /* \"#utility.yul\":6656:6657   */\n  dup3\n    /* \"#utility.yul\":6638:6658   */\n  tag_34\n  jump\t// in\ntag_122:\n    /* \"#utility.yul\":6633:6658   */\n  swap2\n  pop\n    /* \"#utility.yul\":6672:6692   */\n  tag_123\n    /* \"#utility.yul\":6690:6691   */\n  dup4\n    /* \"#utility.yul\":6672:6692   */\n  tag_34\n  jump\t// in\ntag_123:\n    /* \"#utility.yul\":6667:6692   */\n  swap3\n  pop\n    /* \"#utility.yul\":6826:6827   */\n  dup3\n    /* \"#utility.yul\":6758:6824   */\n  0xffffffffffffffffffffffffffffffffffffffffffffffffffffffffffffffff\n    /* \"#utility.yul\":6754:6828   */\n  sub\n    /* \"#utility.yul\":6751:6752   */\n  dup3\n    /* \"#utility.yul\":6748:6829   */\n  gt\n    /* \"#utility.yul\":6745:6852   */\n  iszero\n  tag_124\n  jumpi\n    /* \"#utility.yul\":6832:6850   */\n  tag_125\n  tag_49\n  jump\t// in\ntag_125:\n    /* \"#utility.yul\":6745:6852   */\ntag_124:\n    /* \"#utility.yul\":6876:6877   */\n  dup3\n    /* \"#utility.yul\":6873:6874   */\n  dup3\n    /* \"#utility.yul\":6869:6878   */\n  add\n    /* \"#utility.yul\":6862:6878   */\n  swap1\n  pop\n    /* \"#utility.yul\":6579:6884   */\n  swap3\n  swap2\n  pop\n  pop\n  jump\t// out\n    /* \"#utility.yul\":6890:7008   */\ntag_50:\n    /* \"#utility.yul\":6977:7001   */\n  tag_127\n    /* \"#utility.yul\":6995:7000   */\n  dup2\n    /* \"#utility.yul\":6977:7001   */\n  tag_34\n  jump\t// in\ntag_127:\n    /* \"#utility.yul\":6972:6975   */\n  dup3\n    /* \"#utility.yul\":6965:7002   */\n  mstore\n    /* \"#utility.yul\":6890:7008   */\n  pop\n  pop\n  jump\t// out\n    /* \"#utility.yul\":7014:7236   */\ntag_21:\n    /* \"#utility.yul\":7107:7111   */\n  0x00\n    /* \"#utility.yul\":7145:7147   */\n  0x20\n    /* \"#utility.yul\":7134:7143   */\n  dup3\n    /* \"#utility.yul\":7130:7148   */\n  add\n    /* \"#utility.yul\":7122:7148   */\n  swap1\n  pop\n    /* \"#utility.yul\":7158:7229   */\n  tag_129\n    /* \"#utility.yul\":7226:7227   */\n  0x00\n    /* \"#utility.yul\":7215:7224   */\n  dup4\n    /* \"#utility.yul\":7211:7228   */\n  add\n    /* \"#utility.yul\":7202:7208   */\n  dup5\n    /* \"#utility.yul\":7158:7229   */\n  tag_50\n  jump\t// in\ntag_129:\n    /* \"#utility.yul\":7014:7236   */\n  swap3\n  swap2\n  pop\n  pop\n  jump\t// out\n    /* \"contracts/FixedStaking.sol\":122:1363  contract FixedStaking is ERC20 {... */\ntag_11:\n  dataSize(sub_0)\n  dup1\n  dataOffset(sub_0)\n  0x00\n  codecopy\n  0x00\n  return\nstop\n\nsub_0: assembly {\n        /* \"contracts/FixedStaking.sol\":122:1363  contract FixedStaking is ERC20 {... */\n      mstore(0x40, 0x80)\n      callvalue\n      dup1\n      iszero\n      tag_1\n      jumpi\n      0x00\n      dup1\n      revert\n    tag_1:\n      pop\n      jumpi(tag_2, lt(calldatasize, 0x04))\n      shr(0xe0, calldataload(0x00))\n      dup1\n      0x4e71d92d\n      gt\n      tag_18\n      jumpi\n      dup1\n      0xa457c2d7\n      gt\n      tag_19\n      jumpi\n      dup1\n      0xa457c2d7\n      eq\n      tag_14\n      jumpi\n      dup1\n      0xa694fc3a\n      eq\n      tag_15\n      jumpi\n      dup1\n      0xa9059cbb\n      eq\n      tag_16\n      jumpi\n      dup1\n      0xdd62ed3e\n      eq\n      tag_17\n      jumpi\n      jump(tag_2)\n    tag_19:\n      dup1\n      0x4e71d92d\n      eq\n      tag_10\n      jumpi\n      dup1\n      0x70a08231\n      eq\n      tag_11\n      jumpi\n      dup1\n      0x95d89b41\n      eq\n      tag_12\n      jumpi\n      dup1\n      0x98807d84\n      eq\n      tag_13\n      jumpi\n      jump(tag_2)\n    tag_18:\n      dup1\n      0x23b872dd\n      gt\n      tag_20\n      jumpi\n      dup1\n      0x23b872dd\n      eq\n      tag_6\n      jumpi\n      dup1\n      0x2e17de78\n      eq\n      tag_7\n      jumpi\n      dup1\n      0x313ce567\n      eq\n      tag_8\n      jumpi\n      dup1\n      0x39509351\n      eq\n      tag_9\n      jumpi\n      jump(tag_2)\n    tag_20:\n      dup1\n      0x06fdde03\n      eq\n      tag_3\n      jumpi\n      dup1\n      0x095ea7b3\n      eq\n      tag_4\n      jumpi\n      dup1\n      0x18160ddd\n      eq\n      tag_5\n      jumpi\n    tag_2:\n      0x00\n      dup1\n      revert\n        /* \"@openzeppelin/contracts@4.9.3/token/ERC20/ERC20.sol\":2158:2256  function name() public view virtual override returns (string memory) {... */\n    tag_3:\n      tag_21\n      tag_22\n      jump\t// in\n    tag_21:\n      mload(0x40)\n      tag_23\n      swap2\n      swap1\n      tag_24\n      jump\t// in\n    tag_23:\n      mload(0x40)\n      dup1\n      swap2\n      sub\n      swap1\n      return\n        /* \"@openzeppelin/contracts@4.9.3/token/ERC20/ERC20.sol\":4444:4641  function approve(address spender, uint256 amount) public virtual override returns (bool) {... */\n    tag_4:\n      tag_25\n      0x04\n      dup1\n      calldatasize\n      sub\n      dup2\n      add\n      swap1\n      tag_26\n      swap2\n      swap1\n      tag_27\n      jump\t// in\n    tag_26:\n      tag_28\n      jump\t// in\n    tag_25:\n      mload(0x40)\n      tag_29\n      swap2\n      swap1\n      tag_30\n      jump\t// in\n    tag_29:\n      mload(0x40)\n      dup1\n      swap2\n      sub\n      swap1\n      return\n        /* \"@openzeppelin/contracts@4.9.3/token/ERC20/ERC20.sol\":3255:3361  function totalSupply() public view virtual override returns (uint256) {... */\n    tag_5:\n      tag_31\n      tag_32\n      jump\t// in\n    tag_31:\n      mload(0x40)\n      tag_33\n      swap2\n      swap1\n      tag_34\n      jump\t// in\n    tag_33:\n      mload(0x40)\n      dup1\n      swap2\n      sub\n      swap1\n      return\n        /* \"@openzeppelin/contracts@4.9.3/token/ERC20/ERC20.sol\":5203:5459  function transferFrom(address from, address to, uint256 amount) public virtual override returns (bool) {... */\n    tag_6:\n      tag_35\n      0x04\n      dup1\n      calldatasize\n      sub\n      dup2\n      add\n      swap1\n      tag_36\n      swap2\n      swap1\n      tag_37\n      jump\t// in\n    tag_36:\n      tag_38\n      jump\t// in\n    tag_35:\n      mload(0x40)\n      tag_39\n      swap2\n      swap1\n      tag_30\n      jump\t// in\n    tag_39:\n      mload(0x40)\n      dup1\n      swap2\n      sub\n      swap1\n      return\n        /* \"contracts/FixedStaking.sol\":755:1029  function unstake(uint256 amount) external {... */\n    tag_7:\n      tag_40\n      0x04\n      dup1\n      calldatasize\n      sub\n      dup2\n      add\n      swap1\n      tag_41\n      swap2\n      swap1\n      tag_42\n      jump\t// in\n    tag_41:\n      tag_43\n      jump\t// in\n    tag_40:\n      stop\n        /* \"@openzeppelin/contracts@4.9.3/token/ERC20/ERC20.sol\":3104:3195  function decimals() public view virtual override returns (uint8) {... */\n    tag_8:\n      tag_44\n      tag_45\n      jump\t// in\n    tag_44:\n      mload(0x40)\n      tag_46\n      swap2\n      swap1\n      tag_47\n      jump\t// in\n    tag_46:\n      mload(0x40)\n      dup1\n      swap2\n      sub\n      swap1\n      return\n        /* \"@openzeppelin/contracts@4.9.3/token/ERC20/ERC20.sol\":5854:6088  function increaseAllowance(address spender, uint256 addedValue) public virtual returns (bool) {... */\n    tag_9:\n      tag_48\n      0x04\n      dup1\n      calldatasize\n      sub\n      dup2\n      add\n      swap1\n      tag_49\n      swap2\n      swap1\n      tag_27\n      jump\t// in\n    tag_49:\n      tag_50\n      jump\t// in\n    tag_48:\n      mload(0x40)\n      tag_51\n      swap2\n      swap1\n      tag_30\n      jump\t// in\n    tag_51:\n      mload(0x40)\n      dup1\n      swap2\n      sub\n      swap1\n      return\n        /* \"contracts/FixedStaking.sol\":1035:1361  function claim() public {... */\n    tag_10:\n      tag_52\n      tag_53\n      jump\t// in\n    tag_52:\n      stop\n        /* \"@openzeppelin/contracts@4.9.3/token/ERC20/ERC20.sol\":3419:3544  function balanceOf(address account) public view virtual override returns (uint256) {... */\n    tag_11:\n      tag_54\n      0x04\n      dup1\n      calldatasize\n      sub\n      dup2\n      add\n      swap1\n      tag_55\n      swap2\n      swap1\n      tag_56\n      jump\t// in\n    tag_55:\n      tag_57\n      jump\t// in\n    tag_54:\n      mload(0x40)\n      tag_58\n      swap2\n      swap1\n      tag_34\n      jump\t// in\n    tag_58:\n      mload(0x40)\n      dup1\n      swap2\n      sub\n      swap1\n      return\n        /* \"@openzeppelin/contracts@4.9.3/token/ERC20/ERC20.sol\":2369:2471  function symbol() public view virtual override returns (string memory) {... */\n    tag_12:\n      tag_59\n      tag_60\n      jump\t// in\n    tag_59:\n      mload(0x40)\n      tag_61\n      swap2\n      swap1\n      tag_24\n      jump\t// in\n    tag_61:\n      mload(0x40)\n      dup1\n      swap2\n      sub\n      swap1\n      return\n        /* \"contracts/FixedStaking.sol\":160:201  mapping(address => uint256) public staked */\n    tag_13:\n      tag_62\n      0x04\n      dup1\n      calldatasize\n      sub\n      dup2\n      add\n      swap1\n      tag_63\n      swap2\n      swap1\n      tag_56\n      jump\t// in\n    tag_63:\n      tag_64\n      jump\t// in\n    tag_62:\n      mload(0x40)\n      tag_65\n      swap2\n      swap1\n      tag_34\n      jump\t// in\n    tag_65:\n      mload(0x40)\n      dup1\n      swap2\n      sub\n      swap1\n      return\n        /* \"@openzeppelin/contracts@4.9.3/token/ERC20/ERC20.sol\":6575:7002  function decreaseAllowance(address spender, uint256 subtractedValue) public virtual returns (bool) {... */\n    tag_14:\n      tag_66\n      0x04\n      dup1\n      calldatasize\n      sub\n      dup2\n      add\n      swap1\n      tag_67\n      swap2\n      swap1\n      tag_27\n      jump\t// in\n    tag_67:\n      tag_68\n      jump\t// in\n    tag_66:\n      mload(0x40)\n      tag_69\n      swap2\n      swap1\n      tag_30\n      jump\t// in\n    tag_69:\n      mload(0x40)\n      dup1\n      swap2\n      sub\n      swap1\n      return\n        /* \"contracts/FixedStaking.sol\":367:749  function stake(uint256 amount) external  {... */\n    tag_15:\n      tag_70\n      0x04\n      dup1\n      calldatasize\n      sub\n      dup2\n      add\n      swap1\n      tag_71\n      swap2\n      swap1\n      tag_42\n      jump\t// in\n    tag_71:\n      tag_72\n      jump\t// in\n    tag_70:\n      stop\n        /* \"@openzeppelin/contracts@4.9.3/token/ERC20/ERC20.sol\":3740:3929  function transfer(address to, uint256 amount) public virtual override returns (bool) {... */\n    tag_16:\n      tag_73\n      0x04\n      dup1\n      calldatasize\n      sub\n      dup2\n      add\n      swap1\n      tag_74\n      swap2\n      swap1\n      tag_27\n      jump\t// in\n    tag_74:\n      tag_75\n      jump\t// in\n    tag_73:\n      mload(0x40)\n      tag_76\n      swap2\n      swap1\n      tag_30\n      jump\t// in\n    tag_76:\n      mload(0x40)\n      dup1\n      swap2\n      sub\n      swap1\n      return\n        /* \"@openzeppelin/contracts@4.9.3/token/ERC20/ERC20.sol\":3987:4136  function allowance(address owner, address spender) public view virtual override returns (uint256) {... */\n    tag_17:\n      tag_77\n      0x04\n      dup1\n      calldatasize\n      sub\n      dup2\n      add\n      swap1\n      tag_78\n      swap2\n      swap1\n      tag_79\n      jump\t// in\n    tag_78:\n      tag_80\n      jump\t// in\n    tag_77:\n      mload(0x40)\n      tag_81\n      swap2\n      swap1\n      tag_34\n      jump\t// in\n    tag_81:\n      mload(0x40)\n      dup1\n      swap2\n      sub\n      swap1\n      return\n        /* \"@openzeppelin/contracts@4.9.3/token/ERC20/ERC20.sol\":2158:2256  function name() public view virtual override returns (string memory) {... */\n    tag_22:\n        /* \"@openzeppelin/contracts@4.9.3/token/ERC20/ERC20.sol\":2212:2225  string memory */\n      0x60\n        /* \"@openzeppelin/contracts@4.9.3/token/ERC20/ERC20.sol\":2244:2249  _name */\n      0x03\n        /* \"@openzeppelin/contracts@4.9.3/token/ERC20/ERC20.sol\":2237:2249  return _name */\n      dup1\n      sload\n      tag_83\n      swap1\n      tag_84\n      jump\t// in\n    tag_83:\n      dup1\n      0x1f\n      add\n      0x20\n      dup1\n      swap2\n      div\n      mul\n      0x20\n      add\n      mload(0x40)\n      swap1\n      dup2\n      add\n      0x40\n      mstore\n      dup1\n      swap3\n      swap2\n      swap1\n      dup2\n      dup2\n      mstore\n      0x20\n      add\n      dup3\n      dup1\n      sload\n      tag_85\n      swap1\n      tag_84\n      jump\t// in\n    tag_85:\n      dup1\n      iszero\n      tag_86\n      jumpi\n      dup1\n      0x1f\n      lt\n      tag_87\n      jumpi\n      0x0100\n      dup1\n      dup4\n      sload\n      div\n      mul\n      dup4\n      mstore\n      swap2\n      0x20\n      add\n      swap2\n      jump(tag_86)\n    tag_87:\n      dup3\n      add\n      swap2\n      swap1\n      0x00\n      mstore\n      keccak256(0x00, 0x20)\n      swap1\n    tag_88:\n      dup2\n      sload\n      dup2\n      mstore\n      swap1\n      0x01\n      add\n      swap1\n      0x20\n      add\n      dup1\n      dup4\n      gt\n      tag_88\n      jumpi\n      dup3\n      swap1\n      sub\n      0x1f\n      and\n      dup3\n      add\n      swap2\n    tag_86:\n      pop\n      pop\n      pop\n      pop\n      pop\n      swap1\n      pop\n        /* \"@openzeppelin/contracts@4.9.3/token/ERC20/ERC20.sol\":2158:2256  function name() public view virtual override returns (string memory) {... */\n      swap1\n      jump\t// out\n        /* \"@openzeppelin/contracts@4.9.3/token/ERC20/ERC20.sol\":4444:4641  function approve(address spender, uint256 amount) public virtual override returns (bool) {... */\n    tag_28:\n        /* \"@openzeppelin/contracts@4.9.3/token/ERC20/ERC20.sol\":4527:4531  bool */\n      0x00\n        /* \"@openzeppelin/contracts@4.9.3/token/ERC20/ERC20.sol\":4543:4556  address owner */\n      dup1\n        /* \"@openzeppelin/contracts@4.9.3/token/ERC20/ERC20.sol\":4559:4571  _msgSender() */\n      tag_90\n        /* \"@openzeppelin/contracts@4.9.3/token/ERC20/ERC20.sol\":4559:4569  _msgSender */\n      tag_91\n        /* \"@openzeppelin/contracts@4.9.3/token/ERC20/ERC20.sol\":4559:4571  _msgSender() */\n      jump\t// in\n    tag_90:\n        /* \"@openzeppelin/contracts@4.9.3/token/ERC20/ERC20.sol\":4543:4571  address owner = _msgSender() */\n      swap1\n      pop\n        /* \"@openzeppelin/contracts@4.9.3/token/ERC20/ERC20.sol\":4581:4613  _approve(owner, spender, amount) */\n      tag_92\n        /* \"@openzeppelin/contracts@4.9.3/token/ERC20/ERC20.sol\":4590:4595  owner */\n      dup2\n        /* \"@openzeppelin/contracts@4.9.3/token/ERC20/ERC20.sol\":4597:4604  spender */\n      dup6\n        /* \"@openzeppelin/contracts@4.9.3/token/ERC20/ERC20.sol\":4606:4612  amount */\n      dup6\n        /* \"@openzeppelin/contracts@4.9.3/token/ERC20/ERC20.sol\":4581:4589  _approve */\n      tag_93\n        /* \"@openzeppelin/contracts@4.9.3/token/ERC20/ERC20.sol\":4581:4613  _approve(owner, spender, amount) */\n      jump\t// in\n    tag_92:\n        /* \"@openzeppelin/contracts@4.9.3/token/ERC20/ERC20.sol\":4630:4634  true */\n      0x01\n        /* \"@openzeppelin/contracts@4.9.3/token/ERC20/ERC20.sol\":4623:4634  return true */\n      swap2\n      pop\n      pop\n        /* \"@openzeppelin/contracts@4.9.3/token/ERC20/ERC20.sol\":4444:4641  function approve(address spender, uint256 amount) public virtual override returns (bool) {... */\n      swap3\n      swap2\n      pop\n      pop\n      jump\t// out\n        /* \"@openzeppelin/contracts@4.9.3/token/ERC20/ERC20.sol\":3255:3361  function totalSupply() public view virtual override returns (uint256) {... */\n    tag_32:\n        /* \"@openzeppelin/contracts@4.9.3/token/ERC20/ERC20.sol\":3316:3323  uint256 */\n      0x00\n        /* \"@openzeppelin/contracts@4.9.3/token/ERC20/ERC20.sol\":3342:3354  _totalSupply */\n      sload(0x02)\n        /* \"@openzeppelin/contracts@4.9.3/token/ERC20/ERC20.sol\":3335:3354  return _totalSupply */\n      swap1\n      pop\n        /* \"@openzeppelin/contracts@4.9.3/token/ERC20/ERC20.sol\":3255:3361  function totalSupply() public view virtual override returns (uint256) {... */\n      swap1\n      jump\t// out\n        /* \"@openzeppelin/contracts@4.9.3/token/ERC20/ERC20.sol\":5203:5459  function transferFrom(address from, address to, uint256 amount) public virtual override returns (bool) {... */\n    tag_38:\n        /* \"@openzeppelin/contracts@4.9.3/token/ERC20/ERC20.sol\":5300:5304  bool */\n      0x00\n        /* \"@openzeppelin/contracts@4.9.3/token/ERC20/ERC20.sol\":5316:5331  address spender */\n      dup1\n        /* \"@openzeppelin/contracts@4.9.3/token/ERC20/ERC20.sol\":5334:5346  _msgSender() */\n      tag_96\n        /* \"@openzeppelin/contracts@4.9.3/token/ERC20/ERC20.sol\":5334:5344  _msgSender */\n      tag_91\n        /* \"@openzeppelin/contracts@4.9.3/token/ERC20/ERC20.sol\":5334:5346  _msgSender() */\n      jump\t// in\n    tag_96:\n        /* \"@openzeppelin/contracts@4.9.3/token/ERC20/ERC20.sol\":5316:5346  address spender = _msgSender() */\n      swap1\n      pop\n        /* \"@openzeppelin/contracts@4.9.3/token/ERC20/ERC20.sol\":5356:5394  _spendAllowance(from, spender, amount) */\n      tag_97\n        /* \"@openzeppelin/contracts@4.9.3/token/ERC20/ERC20.sol\":5372:5376  from */\n      dup6\n        /* \"@openzeppelin/contracts@4.9.3/token/ERC20/ERC20.sol\":5378:5385  spender */\n      dup3\n        /* \"@openzeppelin/contracts@4.9.3/token/ERC20/ERC20.sol\":5387:5393  amount */\n      dup6\n        /* \"@openzeppelin/contracts@4.9.3/token/ERC20/ERC20.sol\":5356:5371  _spendAllowance */\n      tag_98\n        /* \"@openzeppelin/contracts@4.9.3/token/ERC20/ERC20.sol\":5356:5394  _spendAllowance(from, spender, amount) */\n      jump\t// in\n    tag_97:\n        /* \"@openzeppelin/contracts@4.9.3/token/ERC20/ERC20.sol\":5404:5431  _transfer(from, to, amount) */\n      tag_99\n        /* \"@openzeppelin/contracts@4.9.3/token/ERC20/ERC20.sol\":5414:5418  from */\n      dup6\n        /* \"@openzeppelin/contracts@4.9.3/token/ERC20/ERC20.sol\":5420:5422  to */\n      dup6\n        /* \"@openzeppelin/contracts@4.9.3/token/ERC20/ERC20.sol\":5424:5430  amount */\n      dup6\n        /* \"@openzeppelin/contracts@4.9.3/token/ERC20/ERC20.sol\":5404:5413  _transfer */\n      tag_100\n        /* \"@openzeppelin/contracts@4.9.3/token/ERC20/ERC20.sol\":5404:5431  _transfer(from, to, amount) */\n      jump\t// in\n    tag_99:\n        /* \"@openzeppelin/contracts@4.9.3/token/ERC20/ERC20.sol\":5448:5452  true */\n      0x01\n        /* \"@openzeppelin/contracts@4.9.3/token/ERC20/ERC20.sol\":5441:5452  return true */\n      swap2\n      pop\n      pop\n        /* \"@openzeppelin/contracts@4.9.3/token/ERC20/ERC20.sol\":5203:5459  function transferFrom(address from, address to, uint256 amount) public virtual override returns (bool) {... */\n      swap4\n      swap3\n      pop\n      pop\n      pop\n      jump\t// out\n        /* \"contracts/FixedStaking.sol\":755:1029  function unstake(uint256 amount) external {... */\n    tag_43:\n        /* \"contracts/FixedStaking.sol\":824:825  0 */\n      0x00\n        /* \"contracts/FixedStaking.sol\":815:821  amount */\n      dup2\n        /* \"contracts/FixedStaking.sol\":815:825  amount > 0 */\n      gt\n        /* \"contracts/FixedStaking.sol\":807:844  require(amount > 0, \"amount is <= 0\") */\n      tag_102\n      jumpi\n      mload(0x40)\n      0x08c379a000000000000000000000000000000000000000000000000000000000\n      dup2\n      mstore\n      0x04\n      add\n      tag_103\n      swap1\n      tag_104\n      jump\t// in\n    tag_103:\n      mload(0x40)\n      dup1\n      swap2\n      sub\n      swap1\n      revert\n    tag_102:\n        /* \"contracts/FixedStaking.sol\":884:890  amount */\n      dup1\n        /* \"contracts/FixedStaking.sol\":862:868  staked */\n      0x05\n        /* \"contracts/FixedStaking.sol\":862:880  staked[msg.sender] */\n      0x00\n        /* \"contracts/FixedStaking.sol\":869:879  msg.sender */\n      caller\n        /* \"contracts/FixedStaking.sol\":862:880  staked[msg.sender] */\n      0xffffffffffffffffffffffffffffffffffffffff\n      and\n      0xffffffffffffffffffffffffffffffffffffffff\n      and\n      dup2\n      mstore\n      0x20\n      add\n      swap1\n      dup2\n      mstore\n      0x20\n      add\n      0x00\n      keccak256\n      sload\n        /* \"contracts/FixedStaking.sol\":862:890  staked[msg.sender] >= amount */\n      lt\n      iszero\n        /* \"contracts/FixedStaking.sol\":854:913  require(staked[msg.sender] >= amount, \"amount is > staked\") */\n      tag_105\n      jumpi\n      mload(0x40)\n      0x08c379a000000000000000000000000000000000000000000000000000000000\n      dup2\n      mstore\n      0x04\n      add\n      tag_106\n      swap1\n      tag_107\n      jump\t// in\n    tag_106:\n      mload(0x40)\n      dup1\n      swap2\n      sub\n      swap1\n      revert\n    tag_105:\n        /* \"contracts/FixedStaking.sol\":923:930  claim() */\n      tag_108\n        /* \"contracts/FixedStaking.sol\":923:928  claim */\n      tag_53\n        /* \"contracts/FixedStaking.sol\":923:930  claim() */\n      jump\t// in\n    tag_108:\n        /* \"contracts/FixedStaking.sol\":962:968  amount */\n      dup1\n        /* \"contracts/FixedStaking.sol\":940:946  staked */\n      0x05\n        /* \"contracts/FixedStaking.sol\":940:958  staked[msg.sender] */\n      0x00\n        /* \"contracts/FixedStaking.sol\":947:957  msg.sender */\n      caller\n        /* \"contracts/FixedStaking.sol\":940:958  staked[msg.sender] */\n      0xffffffffffffffffffffffffffffffffffffffff\n      and\n      0xffffffffffffffffffffffffffffffffffffffff\n      and\n      dup2\n      mstore\n      0x20\n      add\n      swap1\n      dup2\n      mstore\n      0x20\n      add\n      0x00\n      keccak256\n      0x00\n        /* \"contracts/FixedStaking.sol\":940:968  staked[msg.sender] -= amount */\n      dup3\n      dup3\n      sload\n      tag_109\n      swap2\n      swap1\n      tag_110\n      jump\t// in\n    tag_109:\n      swap3\n      pop\n      pop\n      dup2\n      swap1\n      sstore\n      pop\n        /* \"contracts/FixedStaking.sol\":978:1022  _transfer(address(this), msg.sender, amount) */\n      tag_111\n        /* \"contracts/FixedStaking.sol\":996:1000  this */\n      address\n        /* \"contracts/FixedStaking.sol\":1003:1013  msg.sender */\n      caller\n        /* \"contracts/FixedStaking.sol\":1015:1021  amount */\n      dup4\n        /* \"contracts/FixedStaking.sol\":978:987  _transfer */\n      tag_100\n        /* \"contracts/FixedStaking.sol\":978:1022  _transfer(address(this), msg.sender, amount) */\n      jump\t// in\n    tag_111:\n        /* \"contracts/FixedStaking.sol\":755:1029  function unstake(uint256 amount) external {... */\n      pop\n      jump\t// out\n        /* \"@openzeppelin/contracts@4.9.3/token/ERC20/ERC20.sol\":3104:3195  function decimals() public view virtual override returns (uint8) {... */\n    tag_45:\n        /* \"@openzeppelin/contracts@4.9.3/token/ERC20/ERC20.sol\":3162:3167  uint8 */\n      0x00\n        /* \"@openzeppelin/contracts@4.9.3/token/ERC20/ERC20.sol\":3186:3188  18 */\n      0x12\n        /* \"@openzeppelin/contracts@4.9.3/token/ERC20/ERC20.sol\":3179:3188  return 18 */\n      swap1\n      pop\n        /* \"@openzeppelin/contracts@4.9.3/token/ERC20/ERC20.sol\":3104:3195  function decimals() public view virtual override returns (uint8) {... */\n      swap1\n      jump\t// out\n        /* \"@openzeppelin/contracts@4.9.3/token/ERC20/ERC20.sol\":5854:6088  function increaseAllowance(address spender, uint256 addedValue) public virtual returns (bool) {... */\n    tag_50:\n        /* \"@openzeppelin/contracts@4.9.3/token/ERC20/ERC20.sol\":5942:5946  bool */\n      0x00\n        /* \"@openzeppelin/contracts@4.9.3/token/ERC20/ERC20.sol\":5958:5971  address owner */\n      dup1\n        /* \"@openzeppelin/contracts@4.9.3/token/ERC20/ERC20.sol\":5974:5986  _msgSender() */\n      tag_114\n        /* \"@openzeppelin/contracts@4.9.3/token/ERC20/ERC20.sol\":5974:5984  _msgSender */\n      tag_91\n        /* \"@openzeppelin/contracts@4.9.3/token/ERC20/ERC20.sol\":5974:5986  _msgSender() */\n      jump\t// in\n    tag_114:\n        /* \"@openzeppelin/contracts@4.9.3/token/ERC20/ERC20.sol\":5958:5986  address owner = _msgSender() */\n      swap1\n      pop\n        /* \"@openzeppelin/contracts@4.9.3/token/ERC20/ERC20.sol\":5996:6060  _approve(owner, spender, allowance(owner, spender) + addedValue) */\n      tag_115\n        /* \"@openzeppelin/contracts@4.9.3/token/ERC20/ERC20.sol\":6005:6010  owner */\n      dup2\n        /* \"@openzeppelin/contracts@4.9.3/token/ERC20/ERC20.sol\":6012:6019  spender */\n      dup6\n        /* \"@openzeppelin/contracts@4.9.3/token/ERC20/ERC20.sol\":6049:6059  addedValue */\n      dup6\n        /* \"@openzeppelin/contracts@4.9.3/token/ERC20/ERC20.sol\":6021:6046  allowance(owner, spender) */\n      tag_116\n        /* \"@openzeppelin/contracts@4.9.3/token/ERC20/ERC20.sol\":6031:6036  owner */\n      dup6\n        /* \"@openzeppelin/contracts@4.9.3/token/ERC20/ERC20.sol\":6038:6045  spender */\n      dup10\n        /* \"@openzeppelin/contracts@4.9.3/token/ERC20/ERC20.sol\":6021:6030  allowance */\n      tag_80\n        /* \"@openzeppelin/contracts@4.9.3/token/ERC20/ERC20.sol\":6021:6046  allowance(owner, spender) */\n      jump\t// in\n    tag_116:\n        /* \"@openzeppelin/contracts@4.9.3/token/ERC20/ERC20.sol\":6021:6059  allowance(owner, spender) + addedValue */\n      tag_117\n      swap2\n      swap1\n      tag_118\n      jump\t// in\n    tag_117:\n        /* \"@openzeppelin/contracts@4.9.3/token/ERC20/ERC20.sol\":5996:6004  _approve */\n      tag_93\n        /* \"@openzeppelin/contracts@4.9.3/token/ERC20/ERC20.sol\":5996:6060  _approve(owner, spender, allowance(owner, spender) + addedValue) */\n      jump\t// in\n    tag_115:\n        /* \"@openzeppelin/contracts@4.9.3/token/ERC20/ERC20.sol\":6077:6081  true */\n      0x01\n        /* \"@openzeppelin/contracts@4.9.3/token/ERC20/ERC20.sol\":6070:6081  return true */\n      swap2\n      pop\n      pop\n        /* \"@openzeppelin/contracts@4.9.3/token/ERC20/ERC20.sol\":5854:6088  function increaseAllowance(address spender, uint256 addedValue) public virtual returns (bool) {... */\n      swap3\n      swap2\n      pop\n      pop\n      jump\t// out\n        /* \"contracts/FixedStaking.sol\":1035:1361  function claim() public {... */\n    tag_53:\n        /* \"contracts/FixedStaking.sol\":1098:1099  0 */\n      0x00\n        /* \"contracts/FixedStaking.sol\":1077:1083  staked */\n      0x05\n        /* \"contracts/FixedStaking.sol\":1077:1095  staked[msg.sender] */\n      0x00\n        /* \"contracts/FixedStaking.sol\":1084:1094  msg.sender */\n      caller\n        /* \"contracts/FixedStaking.sol\":1077:1095  staked[msg.sender] */\n      0xffffffffffffffffffffffffffffffffffffffff\n      and\n      0xffffffffffffffffffffffffffffffffffffffff\n      and\n      dup2\n      mstore\n      0x20\n      add\n      swap1\n      dup2\n      mstore\n      0x20\n      add\n      0x00\n      keccak256\n      sload\n        /* \"contracts/FixedStaking.sol\":1077:1099  staked[msg.sender] > 0 */\n      gt\n        /* \"contracts/FixedStaking.sol\":1069:1118  require(staked[msg.sender] > 0, \"staked is <= 0\") */\n      tag_120\n      jumpi\n      mload(0x40)\n      0x08c379a000000000000000000000000000000000000000000000000000000000\n      dup2\n      mstore\n      0x04\n      add\n      tag_121\n      swap1\n      tag_122\n      jump\t// in\n    tag_121:\n      mload(0x40)\n      dup1\n      swap2\n      sub\n      swap1\n      revert\n    tag_120:\n        /* \"contracts/FixedStaking.sol\":1128:1149  uint256 secondsStaked */\n      0x00\n        /* \"contracts/FixedStaking.sol\":1170:1182  stakedFromTS */\n      0x06\n        /* \"contracts/FixedStaking.sol\":1170:1194  stakedFromTS[msg.sender] */\n      0x00\n        /* \"contracts/FixedStaking.sol\":1183:1193  msg.sender */\n      caller\n        /* \"contracts/FixedStaking.sol\":1170:1194  stakedFromTS[msg.sender] */\n      0xffffffffffffffffffffffffffffffffffffffff\n      and\n      0xffffffffffffffffffffffffffffffffffffffff\n      and\n      dup2\n      mstore\n      0x20\n      add\n      swap1\n      dup2\n      mstore\n      0x20\n      add\n      0x00\n      keccak256\n      sload\n        /* \"contracts/FixedStaking.sol\":1152:1167  block.timestamp */\n      timestamp\n        /* \"contracts/FixedStaking.sol\":1152:1194  block.timestamp - stakedFromTS[msg.sender] */\n      tag_123\n      swap2\n      swap1\n      tag_110\n      jump\t// in\n    tag_123:\n        /* \"contracts/FixedStaking.sol\":1128:1194  uint256 secondsStaked = block.timestamp - stakedFromTS[msg.sender] */\n      swap1\n      pop\n        /* \"contracts/FixedStaking.sol\":1204:1219  uint256 rewards */\n      0x00\n        /* \"contracts/FixedStaking.sol\":1259:1266  3.154e7 */\n      0x01e14320\n        /* \"contracts/FixedStaking.sol\":1243:1256  secondsStaked */\n      dup3\n        /* \"contracts/FixedStaking.sol\":1222:1228  staked */\n      0x05\n        /* \"contracts/FixedStaking.sol\":1222:1240  staked[msg.sender] */\n      0x00\n        /* \"contracts/FixedStaking.sol\":1229:1239  msg.sender */\n      caller\n        /* \"contracts/FixedStaking.sol\":1222:1240  staked[msg.sender] */\n      0xffffffffffffffffffffffffffffffffffffffff\n      and\n      0xffffffffffffffffffffffffffffffffffffffff\n      and\n      dup2\n      mstore\n      0x20\n      add\n      swap1\n      dup2\n      mstore\n      0x20\n      add\n      0x00\n      keccak256\n      sload\n        /* \"contracts/FixedStaking.sol\":1222:1256  staked[msg.sender] * secondsStaked */\n      tag_124\n      swap2\n      swap1\n      tag_125\n      jump\t// in\n    tag_124:\n        /* \"contracts/FixedStaking.sol\":1222:1266  staked[msg.sender] * secondsStaked / 3.154e7 */\n      tag_126\n      swap2\n      swap1\n      tag_127\n      jump\t// in\n    tag_126:\n        /* \"contracts/FixedStaking.sol\":1204:1266  uint256 rewards = staked[msg.sender] * secondsStaked / 3.154e7 */\n      swap1\n      pop\n        /* \"contracts/FixedStaking.sol\":1276:1302  _mint(msg.sender, rewards) */\n      tag_128\n        /* \"contracts/FixedStaking.sol\":1282:1292  msg.sender */\n      caller\n        /* \"contracts/FixedStaking.sol\":1294:1301  rewards */\n      dup3\n        /* \"contracts/FixedStaking.sol\":1276:1281  _mint */\n      tag_129\n        /* \"contracts/FixedStaking.sol\":1276:1302  _mint(msg.sender, rewards) */\n      jump\t// in\n    tag_128:\n        /* \"contracts/FixedStaking.sol\":1339:1354  block.timestamp */\n      timestamp\n        /* \"contracts/FixedStaking.sol\":1312:1324  stakedFromTS */\n      0x06\n        /* \"contracts/FixedStaking.sol\":1312:1336  stakedFromTS[msg.sender] */\n      0x00\n        /* \"contracts/FixedStaking.sol\":1325:1335  msg.sender */\n      caller\n        /* \"contracts/FixedStaking.sol\":1312:1336  stakedFromTS[msg.sender] */\n      0xffffffffffffffffffffffffffffffffffffffff\n      and\n      0xffffffffffffffffffffffffffffffffffffffff\n      and\n      dup2\n      mstore\n      0x20\n      add\n      swap1\n      dup2\n      mstore\n      0x20\n      add\n      0x00\n      keccak256\n        /* \"contracts/FixedStaking.sol\":1312:1354  stakedFromTS[msg.sender] = block.timestamp */\n      dup2\n      swap1\n      sstore\n      pop\n        /* \"contracts/FixedStaking.sol\":1059:1361  {... */\n      pop\n      pop\n        /* \"contracts/FixedStaking.sol\":1035:1361  function claim() public {... */\n      jump\t// out\n        /* \"@openzeppelin/contracts@4.9.3/token/ERC20/ERC20.sol\":3419:3544  function balanceOf(address account) public view virtual override returns (uint256) {... */\n    tag_57:\n        /* \"@openzeppelin/contracts@4.9.3/token/ERC20/ERC20.sol\":3493:3500  uint256 */\n      0x00\n        /* \"@openzeppelin/contracts@4.9.3/token/ERC20/ERC20.sol\":3519:3528  _balances */\n      dup1\n        /* \"@openzeppelin/contracts@4.9.3/token/ERC20/ERC20.sol\":3519:3537  _balances[account] */\n      0x00\n        /* \"@openzeppelin/contracts@4.9.3/token/ERC20/ERC20.sol\":3529:3536  account */\n      dup4\n        /* \"@openzeppelin/contracts@4.9.3/token/ERC20/ERC20.sol\":3519:3537  _balances[account] */\n      0xffffffffffffffffffffffffffffffffffffffff\n      and\n      0xffffffffffffffffffffffffffffffffffffffff\n      and\n      dup2\n      mstore\n      0x20\n      add\n      swap1\n      dup2\n      mstore\n      0x20\n      add\n      0x00\n      keccak256\n      sload\n        /* \"@openzeppelin/contracts@4.9.3/token/ERC20/ERC20.sol\":3512:3537  return _balances[account] */\n      swap1\n      pop\n        /* \"@openzeppelin/contracts@4.9.3/token/ERC20/ERC20.sol\":3419:3544  function balanceOf(address account) public view virtual override returns (uint256) {... */\n      swap2\n      swap1\n      pop\n      jump\t// out\n        /* \"@openzeppelin/contracts@4.9.3/token/ERC20/ERC20.sol\":2369:2471  function symbol() public view virtual override returns (string memory) {... */\n    tag_60:\n        /* \"@openzeppelin/contracts@4.9.3/token/ERC20/ERC20.sol\":2425:2438  string memory */\n      0x60\n        /* \"@openzeppelin/contracts@4.9.3/token/ERC20/ERC20.sol\":2457:2464  _symbol */\n      0x04\n        /* \"@openzeppelin/contracts@4.9.3/token/ERC20/ERC20.sol\":2450:2464  return _symbol */\n      dup1\n      sload\n      tag_132\n      swap1\n      tag_84\n      jump\t// in\n    tag_132:\n      dup1\n      0x1f\n      add\n      0x20\n      dup1\n      swap2\n      div\n      mul\n      0x20\n      add\n      mload(0x40)\n      swap1\n      dup2\n      add\n      0x40\n      mstore\n      dup1\n      swap3\n      swap2\n      swap1\n      dup2\n      dup2\n      mstore\n      0x20\n      add\n      dup3\n      dup1\n      sload\n      tag_133\n      swap1\n      tag_84\n      jump\t// in\n    tag_133:\n      dup1\n      iszero\n      tag_134\n      jumpi\n      dup1\n      0x1f\n      lt\n      tag_135\n      jumpi\n      0x0100\n      dup1\n      dup4\n      sload\n      div\n      mul\n      dup4\n      mstore\n      swap2\n      0x20\n      add\n      swap2\n      jump(tag_134)\n    tag_135:\n      dup3\n      add\n      swap2\n      swap1\n      0x00\n      mstore\n      keccak256(0x00, 0x20)\n      swap1\n    tag_136:\n      dup2\n      sload\n      dup2\n      mstore\n      swap1\n      0x01\n      add\n      swap1\n      0x20\n      add\n      dup1\n      dup4\n      gt\n      tag_136\n      jumpi\n      dup3\n      swap1\n      sub\n      0x1f\n      and\n      dup3\n      add\n      swap2\n    tag_134:\n      pop\n      pop\n      pop\n      pop\n      pop\n      swap1\n      pop\n        /* \"@openzeppelin/contracts@4.9.3/token/ERC20/ERC20.sol\":2369:2471  function symbol() public view virtual override returns (string memory) {... */\n      swap1\n      jump\t// out\n        /* \"contracts/FixedStaking.sol\":160:201  mapping(address => uint256) public staked */\n    tag_64:\n      mstore(0x20, 0x05)\n      dup1\n      0x00\n      mstore\n      keccak256(0x00, 0x40)\n      0x00\n      swap2\n      pop\n      swap1\n      pop\n      sload\n      dup2\n      jump\t// out\n        /* \"@openzeppelin/contracts@4.9.3/token/ERC20/ERC20.sol\":6575:7002  function decreaseAllowance(address spender, uint256 subtractedValue) public virtual returns (bool) {... */\n    tag_68:\n        /* \"@openzeppelin/contracts@4.9.3/token/ERC20/ERC20.sol\":6668:6672  bool */\n      0x00\n        /* \"@openzeppelin/contracts@4.9.3/token/ERC20/ERC20.sol\":6684:6697  address owner */\n      dup1\n        /* \"@openzeppelin/contracts@4.9.3/token/ERC20/ERC20.sol\":6700:6712  _msgSender() */\n      tag_138\n        /* \"@openzeppelin/contracts@4.9.3/token/ERC20/ERC20.sol\":6700:6710  _msgSender */\n      tag_91\n        /* \"@openzeppelin/contracts@4.9.3/token/ERC20/ERC20.sol\":6700:6712  _msgSender() */\n      jump\t// in\n    tag_138:\n        /* \"@openzeppelin/contracts@4.9.3/token/ERC20/ERC20.sol\":6684:6712  address owner = _msgSender() */\n      swap1\n      pop\n        /* \"@openzeppelin/contracts@4.9.3/token/ERC20/ERC20.sol\":6722:6746  uint256 currentAllowance */\n      0x00\n        /* \"@openzeppelin/contracts@4.9.3/token/ERC20/ERC20.sol\":6749:6774  allowance(owner, spender) */\n      tag_139\n        /* \"@openzeppelin/contracts@4.9.3/token/ERC20/ERC20.sol\":6759:6764  owner */\n      dup3\n        /* \"@openzeppelin/contracts@4.9.3/token/ERC20/ERC20.sol\":6766:6773  spender */\n      dup7\n        /* \"@openzeppelin/contracts@4.9.3/token/ERC20/ERC20.sol\":6749:6758  allowance */\n      tag_80\n        /* \"@openzeppelin/contracts@4.9.3/token/ERC20/ERC20.sol\":6749:6774  allowance(owner, spender) */\n      jump\t// in\n    tag_139:\n        /* \"@openzeppelin/contracts@4.9.3/token/ERC20/ERC20.sol\":6722:6774  uint256 currentAllowance = allowance(owner, spender) */\n      swap1\n      pop\n        /* \"@openzeppelin/contracts@4.9.3/token/ERC20/ERC20.sol\":6812:6827  subtractedValue */\n      dup4\n        /* \"@openzeppelin/contracts@4.9.3/token/ERC20/ERC20.sol\":6792:6808  currentAllowance */\n      dup2\n        /* \"@openzeppelin/contracts@4.9.3/token/ERC20/ERC20.sol\":6792:6827  currentAllowance >= subtractedValue */\n      lt\n      iszero\n        /* \"@openzeppelin/contracts@4.9.3/token/ERC20/ERC20.sol\":6784:6869  require(currentAllowance >= subtractedValue, \"ERC20: decreased allowance below zero\") */\n      tag_140\n      jumpi\n      mload(0x40)\n      0x08c379a000000000000000000000000000000000000000000000000000000000\n      dup2\n      mstore\n      0x04\n      add\n      tag_141\n      swap1\n      tag_142\n      jump\t// in\n    tag_141:\n      mload(0x40)\n      dup1\n      swap2\n      sub\n      swap1\n      revert\n    tag_140:\n        /* \"@openzeppelin/contracts@4.9.3/token/ERC20/ERC20.sol\":6903:6963  _approve(owner, spender, currentAllowance - subtractedValue) */\n      tag_143\n        /* \"@openzeppelin/contracts@4.9.3/token/ERC20/ERC20.sol\":6912:6917  owner */\n      dup3\n        /* \"@openzeppelin/contracts@4.9.3/token/ERC20/ERC20.sol\":6919:6926  spender */\n      dup7\n        /* \"@openzeppelin/contracts@4.9.3/token/ERC20/ERC20.sol\":6947:6962  subtractedValue */\n      dup7\n        /* \"@openzeppelin/contracts@4.9.3/token/ERC20/ERC20.sol\":6928:6944  currentAllowance */\n      dup5\n        /* \"@openzeppelin/contracts@4.9.3/token/ERC20/ERC20.sol\":6928:6962  currentAllowance - subtractedValue */\n      sub\n        /* \"@openzeppelin/contracts@4.9.3/token/ERC20/ERC20.sol\":6903:6911  _approve */\n      tag_93\n        /* \"@openzeppelin/contracts@4.9.3/token/ERC20/ERC20.sol\":6903:6963  _approve(owner, spender, currentAllowance - subtractedValue) */\n      jump\t// in\n    tag_143:\n        /* \"@openzeppelin/contracts@4.9.3/token/ERC20/ERC20.sol\":6991:6995  true */\n      0x01\n        /* \"@openzeppelin/contracts@4.9.3/token/ERC20/ERC20.sol\":6984:6995  return true */\n      swap3\n      pop\n      pop\n      pop\n        /* \"@openzeppelin/contracts@4.9.3/token/ERC20/ERC20.sol\":6575:7002  function decreaseAllowance(address spender, uint256 subtractedValue) public virtual returns (bool) {... */\n      swap3\n      swap2\n      pop\n      pop\n      jump\t// out\n        /* \"contracts/FixedStaking.sol\":367:749  function stake(uint256 amount) external  {... */\n    tag_72:\n        /* \"contracts/FixedStaking.sol\":435:436  0 */\n      0x00\n        /* \"contracts/FixedStaking.sol\":426:432  amount */\n      dup2\n        /* \"contracts/FixedStaking.sol\":426:436  amount > 0 */\n      gt\n        /* \"contracts/FixedStaking.sol\":418:455  require(amount > 0, \"amount is <= 0\") */\n      tag_145\n      jumpi\n      mload(0x40)\n      0x08c379a000000000000000000000000000000000000000000000000000000000\n      dup2\n      mstore\n      0x04\n      add\n      tag_146\n      swap1\n      tag_104\n      jump\t// in\n    tag_146:\n      mload(0x40)\n      dup1\n      swap2\n      sub\n      swap1\n      revert\n    tag_145:\n        /* \"contracts/FixedStaking.sol\":498:504  amount */\n      dup1\n        /* \"contracts/FixedStaking.sol\":473:494  balanceOf(msg.sender) */\n      tag_147\n        /* \"contracts/FixedStaking.sol\":483:493  msg.sender */\n      caller\n        /* \"contracts/FixedStaking.sol\":473:482  balanceOf */\n      tag_57\n        /* \"contracts/FixedStaking.sol\":473:494  balanceOf(msg.sender) */\n      jump\t// in\n    tag_147:\n        /* \"contracts/FixedStaking.sol\":473:504  balanceOf(msg.sender) >= amount */\n      lt\n      iszero\n        /* \"contracts/FixedStaking.sol\":465:529  require(balanceOf(msg.sender) >= amount, \"balance is <= amount\") */\n      tag_148\n      jumpi\n      mload(0x40)\n      0x08c379a000000000000000000000000000000000000000000000000000000000\n      dup2\n      mstore\n      0x04\n      add\n      tag_149\n      swap1\n      tag_150\n      jump\t// in\n    tag_149:\n      mload(0x40)\n      dup1\n      swap2\n      sub\n      swap1\n      revert\n    tag_148:\n        /* \"contracts/FixedStaking.sol\":539:583  _transfer(msg.sender, address(this), amount) */\n      tag_151\n        /* \"contracts/FixedStaking.sol\":549:559  msg.sender */\n      caller\n        /* \"contracts/FixedStaking.sol\":569:573  this */\n      address\n        /* \"contracts/FixedStaking.sol\":576:582  amount */\n      dup4\n        /* \"contracts/FixedStaking.sol\":539:548  _transfer */\n      tag_100\n        /* \"contracts/FixedStaking.sol\":539:583  _transfer(msg.sender, address(this), amount) */\n      jump\t// in\n    tag_151:\n        /* \"contracts/FixedStaking.sol\":618:619  0 */\n      0x00\n        /* \"contracts/FixedStaking.sol\":597:603  staked */\n      0x05\n        /* \"contracts/FixedStaking.sol\":597:615  staked[msg.sender] */\n      0x00\n        /* \"contracts/FixedStaking.sol\":604:614  msg.sender */\n      caller\n        /* \"contracts/FixedStaking.sol\":597:615  staked[msg.sender] */\n      0xffffffffffffffffffffffffffffffffffffffff\n      and\n      0xffffffffffffffffffffffffffffffffffffffff\n      and\n      dup2\n      mstore\n      0x20\n      add\n      swap1\n      dup2\n      mstore\n      0x20\n      add\n      0x00\n      keccak256\n      sload\n        /* \"contracts/FixedStaking.sol\":597:619  staked[msg.sender] > 0 */\n      gt\n        /* \"contracts/FixedStaking.sol\":593:653  if (staked[msg.sender] > 0) {... */\n      iszero\n      tag_152\n      jumpi\n        /* \"contracts/FixedStaking.sol\":635:642  claim() */\n      tag_153\n        /* \"contracts/FixedStaking.sol\":635:640  claim */\n      tag_53\n        /* \"contracts/FixedStaking.sol\":635:642  claim() */\n      jump\t// in\n    tag_153:\n        /* \"contracts/FixedStaking.sol\":593:653  if (staked[msg.sender] > 0) {... */\n    tag_152:\n        /* \"contracts/FixedStaking.sol\":689:704  block.timestamp */\n      timestamp\n        /* \"contracts/FixedStaking.sol\":662:674  stakedFromTS */\n      0x06\n        /* \"contracts/FixedStaking.sol\":662:686  stakedFromTS[msg.sender] */\n      0x00\n        /* \"contracts/FixedStaking.sol\":675:685  msg.sender */\n      caller\n        /* \"contracts/FixedStaking.sol\":662:686  stakedFromTS[msg.sender] */\n      0xffffffffffffffffffffffffffffffffffffffff\n      and\n      0xffffffffffffffffffffffffffffffffffffffff\n      and\n      dup2\n      mstore\n      0x20\n      add\n      swap1\n      dup2\n      mstore\n      0x20\n      add\n      0x00\n      keccak256\n        /* \"contracts/FixedStaking.sol\":662:704  stakedFromTS[msg.sender] = block.timestamp */\n      dup2\n      swap1\n      sstore\n      pop\n        /* \"contracts/FixedStaking.sol\":736:742  amount */\n      dup1\n        /* \"contracts/FixedStaking.sol\":714:720  staked */\n      0x05\n        /* \"contracts/FixedStaking.sol\":714:732  staked[msg.sender] */\n      0x00\n        /* \"contracts/FixedStaking.sol\":721:731  msg.sender */\n      caller\n        /* \"contracts/FixedStaking.sol\":714:732  staked[msg.sender] */\n      0xffffffffffffffffffffffffffffffffffffffff\n      and\n      0xffffffffffffffffffffffffffffffffffffffff\n      and\n      dup2\n      mstore\n      0x20\n      add\n      swap1\n      dup2\n      mstore\n      0x20\n      add\n      0x00\n      keccak256\n      0x00\n        /* \"contracts/FixedStaking.sol\":714:742  staked[msg.sender] += amount */\n      dup3\n      dup3\n      sload\n      tag_154\n      swap2\n      swap1\n      tag_118\n      jump\t// in\n    tag_154:\n      swap3\n      pop\n      pop\n      dup2\n      swap1\n      sstore\n      pop\n        /* \"contracts/FixedStaking.sol\":367:749  function stake(uint256 amount) external  {... */\n      pop\n      jump\t// out\n        /* \"@openzeppelin/contracts@4.9.3/token/ERC20/ERC20.sol\":3740:3929  function transfer(address to, uint256 amount) public virtual override returns (bool) {... */\n    tag_75:\n        /* \"@openzeppelin/contracts@4.9.3/token/ERC20/ERC20.sol\":3819:3823  bool */\n      0x00\n        /* \"@openzeppelin/contracts@4.9.3/token/ERC20/ERC20.sol\":3835:3848  address owner */\n      dup1\n        /* \"@openzeppelin/contracts@4.9.3/token/ERC20/ERC20.sol\":3851:3863  _msgSender() */\n      tag_156\n        /* \"@openzeppelin/contracts@4.9.3/token/ERC20/ERC20.sol\":3851:3861  _msgSender */\n      tag_91\n        /* \"@openzeppelin/contracts@4.9.3/token/ERC20/ERC20.sol\":3851:3863  _msgSender() */\n      jump\t// in\n    tag_156:\n        /* \"@openzeppelin/contracts@4.9.3/token/ERC20/ERC20.sol\":3835:3863  address owner = _msgSender() */\n      swap1\n      pop\n        /* \"@openzeppelin/contracts@4.9.3/token/ERC20/ERC20.sol\":3873:3901  _transfer(owner, to, amount) */\n      tag_157\n        /* \"@openzeppelin/contracts@4.9.3/token/ERC20/ERC20.sol\":3883:3888  owner */\n      dup2\n        /* \"@openzeppelin/contracts@4.9.3/token/ERC20/ERC20.sol\":3890:3892  to */\n      dup6\n        /* \"@openzeppelin/contracts@4.9.3/token/ERC20/ERC20.sol\":3894:3900  amount */\n      dup6\n        /* \"@openzeppelin/contracts@4.9.3/token/ERC20/ERC20.sol\":3873:3882  _transfer */\n      tag_100\n        /* \"@openzeppelin/contracts@4.9.3/token/ERC20/ERC20.sol\":3873:3901  _transfer(owner, to, amount) */\n      jump\t// in\n    tag_157:\n        /* \"@openzeppelin/contracts@4.9.3/token/ERC20/ERC20.sol\":3918:3922  true */\n      0x01\n        /* \"@openzeppelin/contracts@4.9.3/token/ERC20/ERC20.sol\":3911:3922  return true */\n      swap2\n      pop\n      pop\n        /* \"@openzeppelin/contracts@4.9.3/token/ERC20/ERC20.sol\":3740:3929  function transfer(address to, uint256 amount) public virtual override returns (bool) {... */\n      swap3\n      swap2\n      pop\n      pop\n      jump\t// out\n        /* \"@openzeppelin/contracts@4.9.3/token/ERC20/ERC20.sol\":3987:4136  function allowance(address owner, address spender) public view virtual override returns (uint256) {... */\n    tag_80:\n        /* \"@openzeppelin/contracts@4.9.3/token/ERC20/ERC20.sol\":4076:4083  uint256 */\n      0x00\n        /* \"@openzeppelin/contracts@4.9.3/token/ERC20/ERC20.sol\":4102:4113  _allowances */\n      0x01\n        /* \"@openzeppelin/contracts@4.9.3/token/ERC20/ERC20.sol\":4102:4120  _allowances[owner] */\n      0x00\n        /* \"@openzeppelin/contracts@4.9.3/token/ERC20/ERC20.sol\":4114:4119  owner */\n      dup5\n        /* \"@openzeppelin/contracts@4.9.3/token/ERC20/ERC20.sol\":4102:4120  _allowances[owner] */\n      0xffffffffffffffffffffffffffffffffffffffff\n      and\n      0xffffffffffffffffffffffffffffffffffffffff\n      and\n      dup2\n      mstore\n      0x20\n      add\n      swap1\n      dup2\n      mstore\n      0x20\n      add\n      0x00\n      keccak256\n        /* \"@openzeppelin/contracts@4.9.3/token/ERC20/ERC20.sol\":4102:4129  _allowances[owner][spender] */\n      0x00\n        /* \"@openzeppelin/contracts@4.9.3/token/ERC20/ERC20.sol\":4121:4128  spender */\n      dup4\n        /* \"@openzeppelin/contracts@4.9.3/token/ERC20/ERC20.sol\":4102:4129  _allowances[owner][spender] */\n      0xffffffffffffffffffffffffffffffffffffffff\n      and\n      0xffffffffffffffffffffffffffffffffffffffff\n      and\n      dup2\n      mstore\n      0x20\n      add\n      swap1\n      dup2\n      mstore\n      0x20\n      add\n      0x00\n      keccak256\n      sload\n        /* \"@openzeppelin/contracts@4.9.3/token/ERC20/ERC20.sol\":4095:4129  return _allowances[owner][spender] */\n      swap1\n      pop\n        /* \"@openzeppelin/contracts@4.9.3/token/ERC20/ERC20.sol\":3987:4136  function allowance(address owner, address spender) public view virtual override returns (uint256) {... */\n      swap3\n      swap2\n      pop\n      pop\n      jump\t// out\n        /* \"@openzeppelin/contracts@4.9.3/utils/Context.sol\":640:736  function _msgSender() internal view virtual returns (address) {... */\n    tag_91:\n        /* \"@openzeppelin/contracts@4.9.3/utils/Context.sol\":693:700  address */\n      0x00\n        /* \"@openzeppelin/contracts@4.9.3/utils/Context.sol\":719:729  msg.sender */\n      caller\n        /* \"@openzeppelin/contracts@4.9.3/utils/Context.sol\":712:729  return msg.sender */\n      swap1\n      pop\n        /* \"@openzeppelin/contracts@4.9.3/utils/Context.sol\":640:736  function _msgSender() internal view virtual returns (address) {... */\n      swap1\n      jump\t// out\n        /* \"@openzeppelin/contracts@4.9.3/token/ERC20/ERC20.sol\":10457:10797  function _approve(address owner, address spender, uint256 amount) internal virtual {... */\n    tag_93:\n        /* \"@openzeppelin/contracts@4.9.3/token/ERC20/ERC20.sol\":10575:10576  0 */\n      0x00\n        /* \"@openzeppelin/contracts@4.9.3/token/ERC20/ERC20.sol\":10558:10577  owner != address(0) */\n      0xffffffffffffffffffffffffffffffffffffffff\n      and\n        /* \"@openzeppelin/contracts@4.9.3/token/ERC20/ERC20.sol\":10558:10563  owner */\n      dup4\n        /* \"@openzeppelin/contracts@4.9.3/token/ERC20/ERC20.sol\":10558:10577  owner != address(0) */\n      0xffffffffffffffffffffffffffffffffffffffff\n      and\n      sub\n        /* \"@openzeppelin/contracts@4.9.3/token/ERC20/ERC20.sol\":10550:10618  require(owner != address(0), \"ERC20: approve from the zero address\") */\n      tag_161\n      jumpi\n      mload(0x40)\n      0x08c379a000000000000000000000000000000000000000000000000000000000\n      dup2\n      mstore\n      0x04\n      add\n      tag_162\n      swap1\n      tag_163\n      jump\t// in\n    tag_162:\n      mload(0x40)\n      dup1\n      swap2\n      sub\n      swap1\n      revert\n    tag_161:\n        /* \"@openzeppelin/contracts@4.9.3/token/ERC20/ERC20.sol\":10655:10656  0 */\n      0x00\n        /* \"@openzeppelin/contracts@4.9.3/token/ERC20/ERC20.sol\":10636:10657  spender != address(0) */\n      0xffffffffffffffffffffffffffffffffffffffff\n      and\n        /* \"@openzeppelin/contracts@4.9.3/token/ERC20/ERC20.sol\":10636:10643  spender */\n      dup3\n        /* \"@openzeppelin/contracts@4.9.3/token/ERC20/ERC20.sol\":10636:10657  spender != address(0) */\n      0xffffffffffffffffffffffffffffffffffffffff\n      and\n      sub\n        /* \"@openzeppelin/contracts@4.9.3/token/ERC20/ERC20.sol\":10628:10696  require(spender != address(0), \"ERC20: approve to the zero address\") */\n      tag_164\n      jumpi\n      mload(0x40)\n      0x08c379a000000000000000000000000000000000000000000000000000000000\n      dup2\n      mstore\n      0x04\n      add\n      tag_165\n      swap1\n      tag_166\n      jump\t// in\n    tag_165:\n      mload(0x40)\n      dup1\n      swap2\n      sub\n      swap1\n      revert\n    tag_164:\n        /* \"@openzeppelin/contracts@4.9.3/token/ERC20/ERC20.sol\":10737:10743  amount */\n      dup1\n        /* \"@openzeppelin/contracts@4.9.3/token/ERC20/ERC20.sol\":10707:10718  _allowances */\n      0x01\n        /* \"@openzeppelin/contracts@4.9.3/token/ERC20/ERC20.sol\":10707:10725  _allowances[owner] */\n      0x00\n        /* \"@openzeppelin/contracts@4.9.3/token/ERC20/ERC20.sol\":10719:10724  owner */\n      dup6\n        /* \"@openzeppelin/contracts@4.9.3/token/ERC20/ERC20.sol\":10707:10725  _allowances[owner] */\n      0xffffffffffffffffffffffffffffffffffffffff\n      and\n      0xffffffffffffffffffffffffffffffffffffffff\n      and\n      dup2\n      mstore\n      0x20\n      add\n      swap1\n      dup2\n      mstore\n      0x20\n      add\n      0x00\n      keccak256\n        /* \"@openzeppelin/contracts@4.9.3/token/ERC20/ERC20.sol\":10707:10734  _allowances[owner][spender] */\n      0x00\n        /* \"@openzeppelin/contracts@4.9.3/token/ERC20/ERC20.sol\":10726:10733  spender */\n      dup5\n        /* \"@openzeppelin/contracts@4.9.3/token/ERC20/ERC20.sol\":10707:10734  _allowances[owner][spender] */\n      0xffffffffffffffffffffffffffffffffffffffff\n      and\n      0xffffffffffffffffffffffffffffffffffffffff\n      and\n      dup2\n      mstore\n      0x20\n      add\n      swap1\n      dup2\n      mstore\n      0x20\n      add\n      0x00\n      keccak256\n        /* \"@openzeppelin/contracts@4.9.3/token/ERC20/ERC20.sol\":10707:10743  _allowances[owner][spender] = amount */\n      dup2\n      swap1\n      sstore\n      pop\n        /* \"@openzeppelin/contracts@4.9.3/token/ERC20/ERC20.sol\":10774:10781  spender */\n      dup2\n        /* \"@openzeppelin/contracts@4.9.3/token/ERC20/ERC20.sol\":10758:10790  Approval(owner, spender, amount) */\n      0xffffffffffffffffffffffffffffffffffffffff\n      and\n        /* \"@openzeppelin/contracts@4.9.3/token/ERC20/ERC20.sol\":10767:10772  owner */\n      dup4\n        /* \"@openzeppelin/contracts@4.9.3/token/ERC20/ERC20.sol\":10758:10790  Approval(owner, spender, amount) */\n      0xffffffffffffffffffffffffffffffffffffffff\n      and\n      0x8c5be1e5ebec7d5bd14f71427d1e84f3dd0314c0f7b2291e5b200ac8c7c3b925\n        /* \"@openzeppelin/contracts@4.9.3/token/ERC20/ERC20.sol\":10783:10789  amount */\n      dup4\n        /* \"@openzeppelin/contracts@4.9.3/token/ERC20/ERC20.sol\":10758:10790  Approval(owner, spender, amount) */\n      mload(0x40)\n      tag_167\n      swap2\n      swap1\n      tag_34\n      jump\t// in\n    tag_167:\n      mload(0x40)\n      dup1\n      swap2\n      sub\n      swap1\n      log3\n        /* \"@openzeppelin/contracts@4.9.3/token/ERC20/ERC20.sol\":10457:10797  function _approve(address owner, address spender, uint256 amount) internal virtual {... */\n      pop\n      pop\n      pop\n      jump\t// out\n        /* \"@openzeppelin/contracts@4.9.3/token/ERC20/ERC20.sol\":11078:11489  function _spendAllowance(address owner, address spender, uint256 amount) internal virtual {... */\n    tag_98:\n        /* \"@openzeppelin/contracts@4.9.3/token/ERC20/ERC20.sol\":11178:11202  uint256 currentAllowance */\n      0x00\n        /* \"@openzeppelin/contracts@4.9.3/token/ERC20/ERC20.sol\":11205:11230  allowance(owner, spender) */\n      tag_169\n        /* \"@openzeppelin/contracts@4.9.3/token/ERC20/ERC20.sol\":11215:11220  owner */\n      dup5\n        /* \"@openzeppelin/contracts@4.9.3/token/ERC20/ERC20.sol\":11222:11229  spender */\n      dup5\n        /* \"@openzeppelin/contracts@4.9.3/token/ERC20/ERC20.sol\":11205:11214  allowance */\n      tag_80\n        /* \"@openzeppelin/contracts@4.9.3/token/ERC20/ERC20.sol\":11205:11230  allowance(owner, spender) */\n      jump\t// in\n    tag_169:\n        /* \"@openzeppelin/contracts@4.9.3/token/ERC20/ERC20.sol\":11178:11230  uint256 currentAllowance = allowance(owner, spender) */\n      swap1\n      pop\n        /* \"@openzeppelin/contracts@4.9.3/token/ERC20/ERC20.sol\":11264:11281  type(uint256).max */\n      0xffffffffffffffffffffffffffffffffffffffffffffffffffffffffffffffff\n        /* \"@openzeppelin/contracts@4.9.3/token/ERC20/ERC20.sol\":11244:11260  currentAllowance */\n      dup2\n        /* \"@openzeppelin/contracts@4.9.3/token/ERC20/ERC20.sol\":11244:11281  currentAllowance != type(uint256).max */\n      eq\n        /* \"@openzeppelin/contracts@4.9.3/token/ERC20/ERC20.sol\":11240:11483  if (currentAllowance != type(uint256).max) {... */\n      tag_170\n      jumpi\n        /* \"@openzeppelin/contracts@4.9.3/token/ERC20/ERC20.sol\":11325:11331  amount */\n      dup2\n        /* \"@openzeppelin/contracts@4.9.3/token/ERC20/ERC20.sol\":11305:11321  currentAllowance */\n      dup2\n        /* \"@openzeppelin/contracts@4.9.3/token/ERC20/ERC20.sol\":11305:11331  currentAllowance >= amount */\n      lt\n      iszero\n        /* \"@openzeppelin/contracts@4.9.3/token/ERC20/ERC20.sol\":11297:11365  require(currentAllowance >= amount, \"ERC20: insufficient allowance\") */\n      tag_171\n      jumpi\n      mload(0x40)\n      0x08c379a000000000000000000000000000000000000000000000000000000000\n      dup2\n      mstore\n      0x04\n      add\n      tag_172\n      swap1\n      tag_173\n      jump\t// in\n    tag_172:\n      mload(0x40)\n      dup1\n      swap2\n      sub\n      swap1\n      revert\n    tag_171:\n        /* \"@openzeppelin/contracts@4.9.3/token/ERC20/ERC20.sol\":11407:11458  _approve(owner, spender, currentAllowance - amount) */\n      tag_174\n        /* \"@openzeppelin/contracts@4.9.3/token/ERC20/ERC20.sol\":11416:11421  owner */\n      dup5\n        /* \"@openzeppelin/contracts@4.9.3/token/ERC20/ERC20.sol\":11423:11430  spender */\n      dup5\n        /* \"@openzeppelin/contracts@4.9.3/token/ERC20/ERC20.sol\":11451:11457  amount */\n      dup5\n        /* \"@openzeppelin/contracts@4.9.3/token/ERC20/ERC20.sol\":11432:11448  currentAllowance */\n      dup5\n        /* \"@openzeppelin/contracts@4.9.3/token/ERC20/ERC20.sol\":11432:11457  currentAllowance - amount */\n      sub\n        /* \"@openzeppelin/contracts@4.9.3/token/ERC20/ERC20.sol\":11407:11415  _approve */\n      tag_93\n        /* \"@openzeppelin/contracts@4.9.3/token/ERC20/ERC20.sol\":11407:11458  _approve(owner, spender, currentAllowance - amount) */\n      jump\t// in\n    tag_174:\n        /* \"@openzeppelin/contracts@4.9.3/token/ERC20/ERC20.sol\":11240:11483  if (currentAllowance != type(uint256).max) {... */\n    tag_170:\n        /* \"@openzeppelin/contracts@4.9.3/token/ERC20/ERC20.sol\":11168:11489  {... */\n      pop\n        /* \"@openzeppelin/contracts@4.9.3/token/ERC20/ERC20.sol\":11078:11489  function _spendAllowance(address owner, address spender, uint256 amount) internal virtual {... */\n      pop\n      pop\n      pop\n      jump\t// out\n        /* \"@openzeppelin/contracts@4.9.3/token/ERC20/ERC20.sol\":7456:8244  function _transfer(address from, address to, uint256 amount) internal virtual {... */\n    tag_100:\n        /* \"@openzeppelin/contracts@4.9.3/token/ERC20/ERC20.sol\":7568:7569  0 */\n      0x00\n        /* \"@openzeppelin/contracts@4.9.3/token/ERC20/ERC20.sol\":7552:7570  from != address(0) */\n      0xffffffffffffffffffffffffffffffffffffffff\n      and\n        /* \"@openzeppelin/contracts@4.9.3/token/ERC20/ERC20.sol\":7552:7556  from */\n      dup4\n        /* \"@openzeppelin/contracts@4.9.3/token/ERC20/ERC20.sol\":7552:7570  from != address(0) */\n      0xffffffffffffffffffffffffffffffffffffffff\n      and\n      sub\n        /* \"@openzeppelin/contracts@4.9.3/token/ERC20/ERC20.sol\":7544:7612  require(from != address(0), \"ERC20: transfer from the zero address\") */\n      tag_176\n      jumpi\n      mload(0x40)\n      0x08c379a000000000000000000000000000000000000000000000000000000000\n      dup2\n      mstore\n      0x04\n      add\n      tag_177\n      swap1\n      tag_178\n      jump\t// in\n    tag_177:\n      mload(0x40)\n      dup1\n      swap2\n      sub\n      swap1\n      revert\n    tag_176:\n        /* \"@openzeppelin/contracts@4.9.3/token/ERC20/ERC20.sol\":7644:7645  0 */\n      0x00\n        /* \"@openzeppelin/contracts@4.9.3/token/ERC20/ERC20.sol\":7630:7646  to != address(0) */\n      0xffffffffffffffffffffffffffffffffffffffff\n      and\n        /* \"@openzeppelin/contracts@4.9.3/token/ERC20/ERC20.sol\":7630:7632  to */\n      dup3\n        /* \"@openzeppelin/contracts@4.9.3/token/ERC20/ERC20.sol\":7630:7646  to != address(0) */\n      0xffffffffffffffffffffffffffffffffffffffff\n      and\n      sub\n        /* \"@openzeppelin/contracts@4.9.3/token/ERC20/ERC20.sol\":7622:7686  require(to != address(0), \"ERC20: transfer to the zero address\") */\n      tag_179\n      jumpi\n      mload(0x40)\n      0x08c379a000000000000000000000000000000000000000000000000000000000\n      dup2\n      mstore\n      0x04\n      add\n      tag_180\n      swap1\n      tag_181\n      jump\t// in\n    tag_180:\n      mload(0x40)\n      dup1\n      swap2\n      sub\n      swap1\n      revert\n    tag_179:\n        /* \"@openzeppelin/contracts@4.9.3/token/ERC20/ERC20.sol\":7697:7735  _beforeTokenTransfer(from, to, amount) */\n      tag_182\n        /* \"@openzeppelin/contracts@4.9.3/token/ERC20/ERC20.sol\":7718:7722  from */\n      dup4\n        /* \"@openzeppelin/contracts@4.9.3/token/ERC20/ERC20.sol\":7724:7726  to */\n      dup4\n        /* \"@openzeppelin/contracts@4.9.3/token/ERC20/ERC20.sol\":7728:7734  amount */\n      dup4\n        /* \"@openzeppelin/contracts@4.9.3/token/ERC20/ERC20.sol\":7697:7717  _beforeTokenTransfer */\n      tag_183\n        /* \"@openzeppelin/contracts@4.9.3/token/ERC20/ERC20.sol\":7697:7735  _beforeTokenTransfer(from, to, amount) */\n      jump\t// in\n    tag_182:\n        /* \"@openzeppelin/contracts@4.9.3/token/ERC20/ERC20.sol\":7746:7765  uint256 fromBalance */\n      0x00\n        /* \"@openzeppelin/contracts@4.9.3/token/ERC20/ERC20.sol\":7768:7777  _balances */\n      dup1\n        /* \"@openzeppelin/contracts@4.9.3/token/ERC20/ERC20.sol\":7768:7783  _balances[from] */\n      0x00\n        /* \"@openzeppelin/contracts@4.9.3/token/ERC20/ERC20.sol\":7778:7782  from */\n      dup6\n        /* \"@openzeppelin/contracts@4.9.3/token/ERC20/ERC20.sol\":7768:7783  _balances[from] */\n      0xffffffffffffffffffffffffffffffffffffffff\n      and\n      0xffffffffffffffffffffffffffffffffffffffff\n      and\n      dup2\n      mstore\n      0x20\n      add\n      swap1\n      dup2\n      mstore\n      0x20\n      add\n      0x00\n      keccak256\n      sload\n        /* \"@openzeppelin/contracts@4.9.3/token/ERC20/ERC20.sol\":7746:7783  uint256 fromBalance = _balances[from] */\n      swap1\n      pop\n        /* \"@openzeppelin/contracts@4.9.3/token/ERC20/ERC20.sol\":7816:7822  amount */\n      dup2\n        /* \"@openzeppelin/contracts@4.9.3/token/ERC20/ERC20.sol\":7801:7812  fromBalance */\n      dup2\n        /* \"@openzeppelin/contracts@4.9.3/token/ERC20/ERC20.sol\":7801:7822  fromBalance >= amount */\n      lt\n      iszero\n        /* \"@openzeppelin/contracts@4.9.3/token/ERC20/ERC20.sol\":7793:7865  require(fromBalance >= amount, \"ERC20: transfer amount exceeds balance\") */\n      tag_184\n      jumpi\n      mload(0x40)\n      0x08c379a000000000000000000000000000000000000000000000000000000000\n      dup2\n      mstore\n      0x04\n      add\n      tag_185\n      swap1\n      tag_186\n      jump\t// in\n    tag_185:\n      mload(0x40)\n      dup1\n      swap2\n      sub\n      swap1\n      revert\n    tag_184:\n        /* \"@openzeppelin/contracts@4.9.3/token/ERC20/ERC20.sol\":7931:7937  amount */\n      dup2\n        /* \"@openzeppelin/contracts@4.9.3/token/ERC20/ERC20.sol\":7917:7928  fromBalance */\n      dup2\n        /* \"@openzeppelin/contracts@4.9.3/token/ERC20/ERC20.sol\":7917:7937  fromBalance - amount */\n      sub\n        /* \"@openzeppelin/contracts@4.9.3/token/ERC20/ERC20.sol\":7899:7908  _balances */\n      0x00\n        /* \"@openzeppelin/contracts@4.9.3/token/ERC20/ERC20.sol\":7899:7914  _balances[from] */\n      dup1\n        /* \"@openzeppelin/contracts@4.9.3/token/ERC20/ERC20.sol\":7909:7913  from */\n      dup7\n        /* \"@openzeppelin/contracts@4.9.3/token/ERC20/ERC20.sol\":7899:7914  _balances[from] */\n      0xffffffffffffffffffffffffffffffffffffffff\n      and\n      0xffffffffffffffffffffffffffffffffffffffff\n      and\n      dup2\n      mstore\n      0x20\n      add\n      swap1\n      dup2\n      mstore\n      0x20\n      add\n      0x00\n      keccak256\n        /* \"@openzeppelin/contracts@4.9.3/token/ERC20/ERC20.sol\":7899:7937  _balances[from] = fromBalance - amount */\n      dup2\n      swap1\n      sstore\n      pop\n        /* \"@openzeppelin/contracts@4.9.3/token/ERC20/ERC20.sol\":8131:8137  amount */\n      dup2\n        /* \"@openzeppelin/contracts@4.9.3/token/ERC20/ERC20.sol\":8114:8123  _balances */\n      0x00\n        /* \"@openzeppelin/contracts@4.9.3/token/ERC20/ERC20.sol\":8114:8127  _balances[to] */\n      dup1\n        /* \"@openzeppelin/contracts@4.9.3/token/ERC20/ERC20.sol\":8124:8126  to */\n      dup6\n        /* \"@openzeppelin/contracts@4.9.3/token/ERC20/ERC20.sol\":8114:8127  _balances[to] */\n      0xffffffffffffffffffffffffffffffffffffffff\n      and\n      0xffffffffffffffffffffffffffffffffffffffff\n      and\n      dup2\n      mstore\n      0x20\n      add\n      swap1\n      dup2\n      mstore\n      0x20\n      add\n      0x00\n      keccak256\n      0x00\n        /* \"@openzeppelin/contracts@4.9.3/token/ERC20/ERC20.sol\":8114:8137  _balances[to] += amount */\n      dup3\n      dup3\n      sload\n      add\n      swap3\n      pop\n      pop\n      dup2\n      swap1\n      sstore\n      pop\n        /* \"@openzeppelin/contracts@4.9.3/token/ERC20/ERC20.sol\":8178:8180  to */\n      dup3\n        /* \"@openzeppelin/contracts@4.9.3/token/ERC20/ERC20.sol\":8163:8189  Transfer(from, to, amount) */\n      0xffffffffffffffffffffffffffffffffffffffff\n      and\n        /* \"@openzeppelin/contracts@4.9.3/token/ERC20/ERC20.sol\":8172:8176  from */\n      dup5\n        /* \"@openzeppelin/contracts@4.9.3/token/ERC20/ERC20.sol\":8163:8189  Transfer(from, to, amount) */\n      0xffffffffffffffffffffffffffffffffffffffff\n      and\n      0xddf252ad1be2c89b69c2b068fc378daa952ba7f163c4a11628f55a4df523b3ef\n        /* \"@openzeppelin/contracts@4.9.3/token/ERC20/ERC20.sol\":8182:8188  amount */\n      dup5\n        /* \"@openzeppelin/contracts@4.9.3/token/ERC20/ERC20.sol\":8163:8189  Transfer(from, to, amount) */\n      mload(0x40)\n      tag_187\n      swap2\n      swap1\n      tag_34\n      jump\t// in\n    tag_187:\n      mload(0x40)\n      dup1\n      swap2\n      sub\n      swap1\n      log3\n        /* \"@openzeppelin/contracts@4.9.3/token/ERC20/ERC20.sol\":8200:8237  _afterTokenTransfer(from, to, amount) */\n      tag_188\n        /* \"@openzeppelin/contracts@4.9.3/token/ERC20/ERC20.sol\":8220:8224  from */\n      dup5\n        /* \"@openzeppelin/contracts@4.9.3/token/ERC20/ERC20.sol\":8226:8228  to */\n      dup5\n        /* \"@openzeppelin/contracts@4.9.3/token/ERC20/ERC20.sol\":8230:8236  amount */\n      dup5\n        /* \"@openzeppelin/contracts@4.9.3/token/ERC20/ERC20.sol\":8200:8219  _afterTokenTransfer */\n      tag_189\n        /* \"@openzeppelin/contracts@4.9.3/token/ERC20/ERC20.sol\":8200:8237  _afterTokenTransfer(from, to, amount) */\n      jump\t// in\n    tag_188:\n        /* \"@openzeppelin/contracts@4.9.3/token/ERC20/ERC20.sol\":7534:8244  {... */\n      pop\n        /* \"@openzeppelin/contracts@4.9.3/token/ERC20/ERC20.sol\":7456:8244  function _transfer(address from, address to, uint256 amount) internal virtual {... */\n      pop\n      pop\n      pop\n      jump\t// out\n        /* \"@openzeppelin/contracts@4.9.3/token/ERC20/ERC20.sol\":8520:9055  function _mint(address account, uint256 amount) internal virtual {... */\n    tag_129:\n        /* \"@openzeppelin/contracts@4.9.3/token/ERC20/ERC20.sol\":8622:8623  0 */\n      0x00\n        /* \"@openzeppelin/contracts@4.9.3/token/ERC20/ERC20.sol\":8603:8624  account != address(0) */\n      0xffffffffffffffffffffffffffffffffffffffff\n      and\n        /* \"@openzeppelin/contracts@4.9.3/token/ERC20/ERC20.sol\":8603:8610  account */\n      dup3\n        /* \"@openzeppelin/contracts@4.9.3/token/ERC20/ERC20.sol\":8603:8624  account != address(0) */\n      0xffffffffffffffffffffffffffffffffffffffff\n      and\n      sub\n        /* \"@openzeppelin/contracts@4.9.3/token/ERC20/ERC20.sol\":8595:8660  require(account != address(0), \"ERC20: mint to the zero address\") */\n      tag_191\n      jumpi\n      mload(0x40)\n      0x08c379a000000000000000000000000000000000000000000000000000000000\n      dup2\n      mstore\n      0x04\n      add\n      tag_192\n      swap1\n      tag_193\n      jump\t// in\n    tag_192:\n      mload(0x40)\n      dup1\n      swap2\n      sub\n      swap1\n      revert\n    tag_191:\n        /* \"@openzeppelin/contracts@4.9.3/token/ERC20/ERC20.sol\":8671:8720  _beforeTokenTransfer(address(0), account, amount) */\n      tag_194\n        /* \"@openzeppelin/contracts@4.9.3/token/ERC20/ERC20.sol\":8700:8701  0 */\n      0x00\n        /* \"@openzeppelin/contracts@4.9.3/token/ERC20/ERC20.sol\":8704:8711  account */\n      dup4\n        /* \"@openzeppelin/contracts@4.9.3/token/ERC20/ERC20.sol\":8713:8719  amount */\n      dup4\n        /* \"@openzeppelin/contracts@4.9.3/token/ERC20/ERC20.sol\":8671:8691  _beforeTokenTransfer */\n      tag_183\n        /* \"@openzeppelin/contracts@4.9.3/token/ERC20/ERC20.sol\":8671:8720  _beforeTokenTransfer(address(0), account, amount) */\n      jump\t// in\n    tag_194:\n        /* \"@openzeppelin/contracts@4.9.3/token/ERC20/ERC20.sol\":8747:8753  amount */\n      dup1\n        /* \"@openzeppelin/contracts@4.9.3/token/ERC20/ERC20.sol\":8731:8743  _totalSupply */\n      0x02\n      0x00\n        /* \"@openzeppelin/contracts@4.9.3/token/ERC20/ERC20.sol\":8731:8753  _totalSupply += amount */\n      dup3\n      dup3\n      sload\n      tag_195\n      swap2\n      swap1\n      tag_118\n      jump\t// in\n    tag_195:\n      swap3\n      pop\n      pop\n      dup2\n      swap1\n      sstore\n      pop\n        /* \"@openzeppelin/contracts@4.9.3/token/ERC20/ERC20.sol\":8921:8927  amount */\n      dup1\n        /* \"@openzeppelin/contracts@4.9.3/token/ERC20/ERC20.sol\":8899:8908  _balances */\n      0x00\n        /* \"@openzeppelin/contracts@4.9.3/token/ERC20/ERC20.sol\":8899:8917  _balances[account] */\n      dup1\n        /* \"@openzeppelin/contracts@4.9.3/token/ERC20/ERC20.sol\":8909:8916  account */\n      dup5\n        /* \"@openzeppelin/contracts@4.9.3/token/ERC20/ERC20.sol\":8899:8917  _balances[account] */\n      0xffffffffffffffffffffffffffffffffffffffff\n      and\n      0xffffffffffffffffffffffffffffffffffffffff\n      and\n      dup2\n      mstore\n      0x20\n      add\n      swap1\n      dup2\n      mstore\n      0x20\n      add\n      0x00\n      keccak256\n      0x00\n        /* \"@openzeppelin/contracts@4.9.3/token/ERC20/ERC20.sol\":8899:8927  _balances[account] += amount */\n      dup3\n      dup3\n      sload\n      add\n      swap3\n      pop\n      pop\n      dup2\n      swap1\n      sstore\n      pop\n        /* \"@openzeppelin/contracts@4.9.3/token/ERC20/ERC20.sol\":8973:8980  account */\n      dup2\n        /* \"@openzeppelin/contracts@4.9.3/token/ERC20/ERC20.sol\":8952:8989  Transfer(address(0), account, amount) */\n      0xffffffffffffffffffffffffffffffffffffffff\n      and\n        /* \"@openzeppelin/contracts@4.9.3/token/ERC20/ERC20.sol\":8969:8970  0 */\n      0x00\n        /* \"@openzeppelin/contracts@4.9.3/token/ERC20/ERC20.sol\":8952:8989  Transfer(address(0), account, amount) */\n      0xffffffffffffffffffffffffffffffffffffffff\n      and\n      0xddf252ad1be2c89b69c2b068fc378daa952ba7f163c4a11628f55a4df523b3ef\n        /* \"@openzeppelin/contracts@4.9.3/token/ERC20/ERC20.sol\":8982:8988  amount */\n      dup4\n        /* \"@openzeppelin/contracts@4.9.3/token/ERC20/ERC20.sol\":8952:8989  Transfer(address(0), account, amount) */\n      mload(0x40)\n      tag_196\n      swap2\n      swap1\n      tag_34\n      jump\t// in\n    tag_196:\n      mload(0x40)\n      dup1\n      swap2\n      sub\n      swap1\n      log3\n        /* \"@openzeppelin/contracts@4.9.3/token/ERC20/ERC20.sol\":9000:9048  _afterTokenTransfer(address(0), account, amount) */\n      tag_197\n        /* \"@openzeppelin/contracts@4.9.3/token/ERC20/ERC20.sol\":9028:9029  0 */\n      0x00\n        /* \"@openzeppelin/contracts@4.9.3/token/ERC20/ERC20.sol\":9032:9039  account */\n      dup4\n        /* \"@openzeppelin/contracts@4.9.3/token/ERC20/ERC20.sol\":9041:9047  amount */\n      dup4\n        /* \"@openzeppelin/contracts@4.9.3/token/ERC20/ERC20.sol\":9000:9019  _afterTokenTransfer */\n      tag_189\n        /* \"@openzeppelin/contracts@4.9.3/token/ERC20/ERC20.sol\":9000:9048  _afterTokenTransfer(address(0), account, amount) */\n      jump\t// in\n    tag_197:\n        /* \"@openzeppelin/contracts@4.9.3/token/ERC20/ERC20.sol\":8520:9055  function _mint(address account, uint256 amount) internal virtual {... */\n      pop\n      pop\n      jump\t// out\n        /* \"@openzeppelin/contracts@4.9.3/token/ERC20/ERC20.sol\":12073:12164  function _beforeTokenTransfer(address from, address to, uint256 amount) internal virtual {} */\n    tag_183:\n      pop\n      pop\n      pop\n      jump\t// out\n        /* \"@openzeppelin/contracts@4.9.3/token/ERC20/ERC20.sol\":12752:12842  function _afterTokenTransfer(address from, address to, uint256 amount) internal virtual {} */\n    tag_189:\n      pop\n      pop\n      pop\n      jump\t// out\n        /* \"#utility.yul\":7:106   */\n    tag_200:\n        /* \"#utility.yul\":59:65   */\n      0x00\n        /* \"#utility.yul\":93:98   */\n      dup2\n        /* \"#utility.yul\":87:99   */\n      mload\n        /* \"#utility.yul\":77:99   */\n      swap1\n      pop\n        /* \"#utility.yul\":7:106   */\n      swap2\n      swap1\n      pop\n      jump\t// out\n        /* \"#utility.yul\":112:281   */\n    tag_201:\n        /* \"#utility.yul\":196:207   */\n      0x00\n        /* \"#utility.yul\":230:236   */\n      dup3\n        /* \"#utility.yul\":225:228   */\n      dup3\n        /* \"#utility.yul\":218:237   */\n      mstore\n        /* \"#utility.yul\":270:274   */\n      0x20\n        /* \"#utility.yul\":265:268   */\n      dup3\n        /* \"#utility.yul\":261:275   */\n      add\n        /* \"#utility.yul\":246:275   */\n      swap1\n      pop\n        /* \"#utility.yul\":112:281   */\n      swap3\n      swap2\n      pop\n      pop\n      jump\t// out\n        /* \"#utility.yul\":287:594   */\n    tag_202:\n        /* \"#utility.yul\":355:356   */\n      0x00\n        /* \"#utility.yul\":365:478   */\n    tag_251:\n        /* \"#utility.yul\":379:385   */\n      dup4\n        /* \"#utility.yul\":376:377   */\n      dup2\n        /* \"#utility.yul\":373:386   */\n      lt\n        /* \"#utility.yul\":365:478   */\n      iszero\n      tag_253\n      jumpi\n        /* \"#utility.yul\":464:465   */\n      dup1\n        /* \"#utility.yul\":459:462   */\n      dup3\n        /* \"#utility.yul\":455:466   */\n      add\n        /* \"#utility.yul\":449:467   */\n      mload\n        /* \"#utility.yul\":445:446   */\n      dup2\n        /* \"#utility.yul\":440:443   */\n      dup5\n        /* \"#utility.yul\":436:447   */\n      add\n        /* \"#utility.yul\":429:468   */\n      mstore\n        /* \"#utility.yul\":401:403   */\n      0x20\n        /* \"#utility.yul\":398:399   */\n      dup2\n        /* \"#utility.yul\":394:404   */\n      add\n        /* \"#utility.yul\":389:404   */\n      swap1\n      pop\n        /* \"#utility.yul\":365:478   */\n      jump(tag_251)\n    tag_253:\n        /* \"#utility.yul\":496:502   */\n      dup4\n        /* \"#utility.yul\":493:494   */\n      dup2\n        /* \"#utility.yul\":490:503   */\n      gt\n        /* \"#utility.yul\":487:588   */\n      iszero\n      tag_254\n      jumpi\n        /* \"#utility.yul\":576:577   */\n      0x00\n        /* \"#utility.yul\":567:573   */\n      dup5\n        /* \"#utility.yul\":562:565   */\n      dup5\n        /* \"#utility.yul\":558:574   */\n      add\n        /* \"#utility.yul\":551:578   */\n      mstore\n        /* \"#utility.yul\":487:588   */\n    tag_254:\n        /* \"#utility.yul\":336:594   */\n      pop\n        /* \"#utility.yul\":287:594   */\n      pop\n      pop\n      pop\n      jump\t// out\n        /* \"#utility.yul\":600:702   */\n    tag_203:\n        /* \"#utility.yul\":641:647   */\n      0x00\n        /* \"#utility.yul\":692:694   */\n      0x1f\n        /* \"#utility.yul\":688:695   */\n      not\n        /* \"#utility.yul\":683:685   */\n      0x1f\n        /* \"#utility.yul\":676:681   */\n      dup4\n        /* \"#utility.yul\":672:686   */\n      add\n        /* \"#utility.yul\":668:696   */\n      and\n        /* \"#utility.yul\":658:696   */\n      swap1\n      pop\n        /* \"#utility.yul\":600:702   */\n      swap2\n      swap1\n      pop\n      jump\t// out\n        /* \"#utility.yul\":708:1072   */\n    tag_204:\n        /* \"#utility.yul\":796:799   */\n      0x00\n        /* \"#utility.yul\":824:863   */\n      tag_257\n        /* \"#utility.yul\":857:862   */\n      dup3\n        /* \"#utility.yul\":824:863   */\n      tag_200\n      jump\t// in\n    tag_257:\n        /* \"#utility.yul\":879:950   */\n      tag_258\n        /* \"#utility.yul\":943:949   */\n      dup2\n        /* \"#utility.yul\":938:941   */\n      dup6\n        /* \"#utility.yul\":879:950   */\n      tag_201\n      jump\t// in\n    tag_258:\n        /* \"#utility.yul\":872:950   */\n      swap4\n      pop\n        /* \"#utility.yul\":959:1011   */\n      tag_259\n        /* \"#utility.yul\":1004:1010   */\n      dup2\n        /* \"#utility.yul\":999:1002   */\n      dup6\n        /* \"#utility.yul\":992:996   */\n      0x20\n        /* \"#utility.yul\":985:990   */\n      dup7\n        /* \"#utility.yul\":981:997   */\n      add\n        /* \"#utility.yul\":959:1011   */\n      tag_202\n      jump\t// in\n    tag_259:\n        /* \"#utility.yul\":1036:1065   */\n      tag_260\n        /* \"#utility.yul\":1058:1064   */\n      dup2\n        /* \"#utility.yul\":1036:1065   */\n      tag_203\n      jump\t// in\n    tag_260:\n        /* \"#utility.yul\":1031:1034   */\n      dup5\n        /* \"#utility.yul\":1027:1066   */\n      add\n        /* \"#utility.yul\":1020:1066   */\n      swap2\n      pop\n        /* \"#utility.yul\":800:1072   */\n      pop\n        /* \"#utility.yul\":708:1072   */\n      swap3\n      swap2\n      pop\n      pop\n      jump\t// out\n        /* \"#utility.yul\":1078:1391   */\n    tag_24:\n        /* \"#utility.yul\":1191:1195   */\n      0x00\n        /* \"#utility.yul\":1229:1231   */\n      0x20\n        /* \"#utility.yul\":1218:1227   */\n      dup3\n        /* \"#utility.yul\":1214:1232   */\n      add\n        /* \"#utility.yul\":1206:1232   */\n      swap1\n      pop\n        /* \"#utility.yul\":1278:1287   */\n      dup2\n        /* \"#utility.yul\":1272:1276   */\n      dup2\n        /* \"#utility.yul\":1268:1288   */\n      sub\n        /* \"#utility.yul\":1264:1265   */\n      0x00\n        /* \"#utility.yul\":1253:1262   */\n      dup4\n        /* \"#utility.yul\":1249:1266   */\n      add\n        /* \"#utility.yul\":1242:1289   */\n      mstore\n        /* \"#utility.yul\":1306:1384   */\n      tag_262\n        /* \"#utility.yul\":1379:1383   */\n      dup2\n        /* \"#utility.yul\":1370:1376   */\n      dup5\n        /* \"#utility.yul\":1306:1384   */\n      tag_204\n      jump\t// in\n    tag_262:\n        /* \"#utility.yul\":1298:1384   */\n      swap1\n      pop\n        /* \"#utility.yul\":1078:1391   */\n      swap3\n      swap2\n      pop\n      pop\n      jump\t// out\n        /* \"#utility.yul\":1478:1595   */\n    tag_206:\n        /* \"#utility.yul\":1587:1588   */\n      0x00\n        /* \"#utility.yul\":1584:1585   */\n      dup1\n        /* \"#utility.yul\":1577:1589   */\n      revert\n        /* \"#utility.yul\":1724:1850   */\n    tag_208:\n        /* \"#utility.yul\":1761:1768   */\n      0x00\n        /* \"#utility.yul\":1801:1843   */\n      0xffffffffffffffffffffffffffffffffffffffff\n        /* \"#utility.yul\":1794:1799   */\n      dup3\n        /* \"#utility.yul\":1790:1844   */\n      and\n        /* \"#utility.yul\":1779:1844   */\n      swap1\n      pop\n        /* \"#utility.yul\":1724:1850   */\n      swap2\n      swap1\n      pop\n      jump\t// out\n        /* \"#utility.yul\":1856:1952   */\n    tag_209:\n        /* \"#utility.yul\":1893:1900   */\n      0x00\n        /* \"#utility.yul\":1922:1946   */\n      tag_268\n        /* \"#utility.yul\":1940:1945   */\n      dup3\n        /* \"#utility.yul\":1922:1946   */\n      tag_208\n      jump\t// in\n    tag_268:\n        /* \"#utility.yul\":1911:1946   */\n      swap1\n      pop\n        /* \"#utility.yul\":1856:1952   */\n      swap2\n      swap1\n      pop\n      jump\t// out\n        /* \"#utility.yul\":1958:2080   */\n    tag_210:\n        /* \"#utility.yul\":2031:2055   */\n      tag_270\n        /* \"#utility.yul\":2049:2054   */\n      dup2\n        /* \"#utility.yul\":2031:2055   */\n      tag_209\n      jump\t// in\n    tag_270:\n        /* \"#utility.yul\":2024:2029   */\n      dup2\n        /* \"#utility.yul\":2021:2056   */\n      eq\n        /* \"#utility.yul\":2011:2074   */\n      tag_271\n      jumpi\n        /* \"#utility.yul\":2070:2071   */\n      0x00\n        /* \"#utility.yul\":2067:2068   */\n      dup1\n        /* \"#utility.yul\":2060:2072   */\n      revert\n        /* \"#utility.yul\":2011:2074   */\n    tag_271:\n        /* \"#utility.yul\":1958:2080   */\n      pop\n      jump\t// out\n        /* \"#utility.yul\":2086:2225   */\n    tag_211:\n        /* \"#utility.yul\":2132:2137   */\n      0x00\n        /* \"#utility.yul\":2170:2176   */\n      dup2\n        /* \"#utility.yul\":2157:2177   */\n      calldataload\n        /* \"#utility.yul\":2148:2177   */\n      swap1\n      pop\n        /* \"#utility.yul\":2186:2219   */\n      tag_273\n        /* \"#utility.yul\":2213:2218   */\n      dup2\n        /* \"#utility.yul\":2186:2219   */\n      tag_210\n      jump\t// in\n    tag_273:\n        /* \"#utility.yul\":2086:2225   */\n      swap3\n      swap2\n      pop\n      pop\n      jump\t// out\n        /* \"#utility.yul\":2231:2308   */\n    tag_212:\n        /* \"#utility.yul\":2268:2275   */\n      0x00\n        /* \"#utility.yul\":2297:2302   */\n      dup2\n        /* \"#utility.yul\":2286:2302   */\n      swap1\n      pop\n        /* \"#utility.yul\":2231:2308   */\n      swap2\n      swap1\n      pop\n      jump\t// out\n        /* \"#utility.yul\":2314:2436   */\n    tag_213:\n        /* \"#utility.yul\":2387:2411   */\n      tag_276\n        /* \"#utility.yul\":2405:2410   */\n      dup2\n        /* \"#utility.yul\":2387:2411   */\n      tag_212\n      jump\t// in\n    tag_276:\n        /* \"#utility.yul\":2380:2385   */\n      dup2\n        /* \"#utility.yul\":2377:2412   */\n      eq\n        /* \"#utility.yul\":2367:2430   */\n      tag_277\n      jumpi\n        /* \"#utility.yul\":2426:2427   */\n      0x00\n        /* \"#utility.yul\":2423:2424   */\n      dup1\n        /* \"#utility.yul\":2416:2428   */\n      revert\n        /* \"#utility.yul\":2367:2430   */\n    tag_277:\n        /* \"#utility.yul\":2314:2436   */\n      pop\n      jump\t// out\n        /* \"#utility.yul\":2442:2581   */\n    tag_214:\n        /* \"#utility.yul\":2488:2493   */\n      0x00\n        /* \"#utility.yul\":2526:2532   */\n      dup2\n        /* \"#utility.yul\":2513:2533   */\n      calldataload\n        /* \"#utility.yul\":2504:2533   */\n      swap1\n      pop\n        /* \"#utility.yul\":2542:2575   */\n      tag_279\n        /* \"#utility.yul\":2569:2574   */\n      dup2\n        /* \"#utility.yul\":2542:2575   */\n      tag_213\n      jump\t// in\n    tag_279:\n        /* \"#utility.yul\":2442:2581   */\n      swap3\n      swap2\n      pop\n      pop\n      jump\t// out\n        /* \"#utility.yul\":2587:3061   */\n    tag_27:\n        /* \"#utility.yul\":2655:2661   */\n      0x00\n        /* \"#utility.yul\":2663:2669   */\n      dup1\n        /* \"#utility.yul\":2712:2714   */\n      0x40\n        /* \"#utility.yul\":2700:2709   */\n      dup4\n        /* \"#utility.yul\":2691:2698   */\n      dup6\n        /* \"#utility.yul\":2687:2710   */\n      sub\n        /* \"#utility.yul\":2683:2715   */\n      slt\n        /* \"#utility.yul\":2680:2799   */\n      iszero\n      tag_281\n      jumpi\n        /* \"#utility.yul\":2718:2797   */\n      tag_282\n      tag_206\n      jump\t// in\n    tag_282:\n        /* \"#utility.yul\":2680:2799   */\n    tag_281:\n        /* \"#utility.yul\":2838:2839   */\n      0x00\n        /* \"#utility.yul\":2863:2916   */\n      tag_283\n        /* \"#utility.yul\":2908:2915   */\n      dup6\n        /* \"#utility.yul\":2899:2905   */\n      dup3\n        /* \"#utility.yul\":2888:2897   */\n      dup7\n        /* \"#utility.yul\":2884:2906   */\n      add\n        /* \"#utility.yul\":2863:2916   */\n      tag_211\n      jump\t// in\n    tag_283:\n        /* \"#utility.yul\":2853:2916   */\n      swap3\n      pop\n        /* \"#utility.yul\":2809:2926   */\n      pop\n        /* \"#utility.yul\":2965:2967   */\n      0x20\n        /* \"#utility.yul\":2991:3044   */\n      tag_284\n        /* \"#utility.yul\":3036:3043   */\n      dup6\n        /* \"#utility.yul\":3027:3033   */\n      dup3\n        /* \"#utility.yul\":3016:3025   */\n      dup7\n        /* \"#utility.yul\":3012:3034   */\n      add\n        /* \"#utility.yul\":2991:3044   */\n      tag_214\n      jump\t// in\n    tag_284:\n        /* \"#utility.yul\":2981:3044   */\n      swap2\n      pop\n        /* \"#utility.yul\":2936:3054   */\n      pop\n        /* \"#utility.yul\":2587:3061   */\n      swap3\n      pop\n      swap3\n      swap1\n      pop\n      jump\t// out\n        /* \"#utility.yul\":3067:3157   */\n    tag_215:\n        /* \"#utility.yul\":3101:3108   */\n      0x00\n        /* \"#utility.yul\":3144:3149   */\n      dup2\n        /* \"#utility.yul\":3137:3150   */\n      iszero\n        /* \"#utility.yul\":3130:3151   */\n      iszero\n        /* \"#utility.yul\":3119:3151   */\n      swap1\n      pop\n        /* \"#utility.yul\":3067:3157   */\n      swap2\n      swap1\n      pop\n      jump\t// out\n        /* \"#utility.yul\":3163:3272   */\n    tag_216:\n        /* \"#utility.yul\":3244:3265   */\n      tag_287\n        /* \"#utility.yul\":3259:3264   */\n      dup2\n        /* \"#utility.yul\":3244:3265   */\n      tag_215\n      jump\t// in\n    tag_287:\n        /* \"#utility.yul\":3239:3242   */\n      dup3\n        /* \"#utility.yul\":3232:3266   */\n      mstore\n        /* \"#utility.yul\":3163:3272   */\n      pop\n      pop\n      jump\t// out\n        /* \"#utility.yul\":3278:3488   */\n    tag_30:\n        /* \"#utility.yul\":3365:3369   */\n      0x00\n        /* \"#utility.yul\":3403:3405   */\n      0x20\n        /* \"#utility.yul\":3392:3401   */\n      dup3\n        /* \"#utility.yul\":3388:3406   */\n      add\n        /* \"#utility.yul\":3380:3406   */\n      swap1\n      pop\n        /* \"#utility.yul\":3416:3481   */\n      tag_289\n        /* \"#utility.yul\":3478:3479   */\n      0x00\n        /* \"#utility.yul\":3467:3476   */\n      dup4\n        /* \"#utility.yul\":3463:3480   */\n      add\n        /* \"#utility.yul\":3454:3460   */\n      dup5\n        /* \"#utility.yul\":3416:3481   */\n      tag_216\n      jump\t// in\n    tag_289:\n        /* \"#utility.yul\":3278:3488   */\n      swap3\n      swap2\n      pop\n      pop\n      jump\t// out\n        /* \"#utility.yul\":3494:3612   */\n    tag_217:\n        /* \"#utility.yul\":3581:3605   */\n      tag_291\n        /* \"#utility.yul\":3599:3604   */\n      dup2\n        /* \"#utility.yul\":3581:3605   */\n      tag_212\n      jump\t// in\n    tag_291:\n        /* \"#utility.yul\":3576:3579   */\n      dup3\n        /* \"#utility.yul\":3569:3606   */\n      mstore\n        /* \"#utility.yul\":3494:3612   */\n      pop\n      pop\n      jump\t// out\n        /* \"#utility.yul\":3618:3840   */\n    tag_34:\n        /* \"#utility.yul\":3711:3715   */\n      0x00\n        /* \"#utility.yul\":3749:3751   */\n      0x20\n        /* \"#utility.yul\":3738:3747   */\n      dup3\n        /* \"#utility.yul\":3734:3752   */\n      add\n        /* \"#utility.yul\":3726:3752   */\n      swap1\n      pop\n        /* \"#utility.yul\":3762:3833   */\n      tag_293\n        /* \"#utility.yul\":3830:3831   */\n      0x00\n        /* \"#utility.yul\":3819:3828   */\n      dup4\n        /* \"#utility.yul\":3815:3832   */\n      add\n        /* \"#utility.yul\":3806:3812   */\n      dup5\n        /* \"#utility.yul\":3762:3833   */\n      tag_217\n      jump\t// in\n    tag_293:\n        /* \"#utility.yul\":3618:3840   */\n      swap3\n      swap2\n      pop\n      pop\n      jump\t// out\n        /* \"#utility.yul\":3846:4465   */\n    tag_37:\n        /* \"#utility.yul\":3923:3929   */\n      0x00\n        /* \"#utility.yul\":3931:3937   */\n      dup1\n        /* \"#utility.yul\":3939:3945   */\n      0x00\n        /* \"#utility.yul\":3988:3990   */\n      0x60\n        /* \"#utility.yul\":3976:3985   */\n      dup5\n        /* \"#utility.yul\":3967:3974   */\n      dup7\n        /* \"#utility.yul\":3963:3986   */\n      sub\n        /* \"#utility.yul\":3959:3991   */\n      slt\n        /* \"#utility.yul\":3956:4075   */\n      iszero\n      tag_295\n      jumpi\n        /* \"#utility.yul\":3994:4073   */\n      tag_296\n      tag_206\n      jump\t// in\n    tag_296:\n        /* \"#utility.yul\":3956:4075   */\n    tag_295:\n        /* \"#utility.yul\":4114:4115   */\n      0x00\n        /* \"#utility.yul\":4139:4192   */\n      tag_297\n        /* \"#utility.yul\":4184:4191   */\n      dup7\n        /* \"#utility.yul\":4175:4181   */\n      dup3\n        /* \"#utility.yul\":4164:4173   */\n      dup8\n        /* \"#utility.yul\":4160:4182   */\n      add\n        /* \"#utility.yul\":4139:4192   */\n      tag_211\n      jump\t// in\n    tag_297:\n        /* \"#utility.yul\":4129:4192   */\n      swap4\n      pop\n        /* \"#utility.yul\":4085:4202   */\n      pop\n        /* \"#utility.yul\":4241:4243   */\n      0x20\n        /* \"#utility.yul\":4267:4320   */\n      tag_298\n        /* \"#utility.yul\":4312:4319   */\n      dup7\n        /* \"#utility.yul\":4303:4309   */\n      dup3\n        /* \"#utility.yul\":4292:4301   */\n      dup8\n        /* \"#utility.yul\":4288:4310   */\n      add\n        /* \"#utility.yul\":4267:4320   */\n      tag_211\n      jump\t// in\n    tag_298:\n        /* \"#utility.yul\":4257:4320   */\n      swap3\n      pop\n        /* \"#utility.yul\":4212:4330   */\n      pop\n        /* \"#utility.yul\":4369:4371   */\n      0x40\n        /* \"#utility.yul\":4395:4448   */\n      tag_299\n        /* \"#utility.yul\":4440:4447   */\n      dup7\n        /* \"#utility.yul\":4431:4437   */\n      dup3\n        /* \"#utility.yul\":4420:4429   */\n      dup8\n        /* \"#utility.yul\":4416:4438   */\n      add\n        /* \"#utility.yul\":4395:4448   */\n      tag_214\n      jump\t// in\n    tag_299:\n        /* \"#utility.yul\":4385:4448   */\n      swap2\n      pop\n        /* \"#utility.yul\":4340:4458   */\n      pop\n        /* \"#utility.yul\":3846:4465   */\n      swap3\n      pop\n      swap3\n      pop\n      swap3\n      jump\t// out\n        /* \"#utility.yul\":4471:4800   */\n    tag_42:\n        /* \"#utility.yul\":4530:4536   */\n      0x00\n        /* \"#utility.yul\":4579:4581   */\n      0x20\n        /* \"#utility.yul\":4567:4576   */\n      dup3\n        /* \"#utility.yul\":4558:4565   */\n      dup5\n        /* \"#utility.yul\":4554:4577   */\n      sub\n        /* \"#utility.yul\":4550:4582   */\n      slt\n        /* \"#utility.yul\":4547:4666   */\n      iszero\n      tag_301\n      jumpi\n        /* \"#utility.yul\":4585:4664   */\n      tag_302\n      tag_206\n      jump\t// in\n    tag_302:\n        /* \"#utility.yul\":4547:4666   */\n    tag_301:\n        /* \"#utility.yul\":4705:4706   */\n      0x00\n        /* \"#utility.yul\":4730:4783   */\n      tag_303\n        /* \"#utility.yul\":4775:4782   */\n      dup5\n        /* \"#utility.yul\":4766:4772   */\n      dup3\n        /* \"#utility.yul\":4755:4764   */\n      dup6\n        /* \"#utility.yul\":4751:4773   */\n      add\n        /* \"#utility.yul\":4730:4783   */\n      tag_214\n      jump\t// in\n    tag_303:\n        /* \"#utility.yul\":4720:4783   */\n      swap2\n      pop\n        /* \"#utility.yul\":4676:4793   */\n      pop\n        /* \"#utility.yul\":4471:4800   */\n      swap3\n      swap2\n      pop\n      pop\n      jump\t// out\n        /* \"#utility.yul\":4806:4892   */\n    tag_218:\n        /* \"#utility.yul\":4841:4848   */\n      0x00\n        /* \"#utility.yul\":4881:4885   */\n      0xff\n        /* \"#utility.yul\":4874:4879   */\n      dup3\n        /* \"#utility.yul\":4870:4886   */\n      and\n        /* \"#utility.yul\":4859:4886   */\n      swap1\n      pop\n        /* \"#utility.yul\":4806:4892   */\n      swap2\n      swap1\n      pop\n      jump\t// out\n        /* \"#utility.yul\":4898:5010   */\n    tag_219:\n        /* \"#utility.yul\":4981:5003   */\n      tag_306\n        /* \"#utility.yul\":4997:5002   */\n      dup2\n        /* \"#utility.yul\":4981:5003   */\n      tag_218\n      jump\t// in\n    tag_306:\n        /* \"#utility.yul\":4976:4979   */\n      dup3\n        /* \"#utility.yul\":4969:5004   */\n      mstore\n        /* \"#utility.yul\":4898:5010   */\n      pop\n      pop\n      jump\t// out\n        /* \"#utility.yul\":5016:5230   */\n    tag_47:\n        /* \"#utility.yul\":5105:5109   */\n      0x00\n        /* \"#utility.yul\":5143:5145   */\n      0x20\n        /* \"#utility.yul\":5132:5141   */\n      dup3\n        /* \"#utility.yul\":5128:5146   */\n      add\n        /* \"#utility.yul\":5120:5146   */\n      swap1\n      pop\n        /* \"#utility.yul\":5156:5223   */\n      tag_308\n        /* \"#utility.yul\":5220:5221   */\n      0x00\n        /* \"#utility.yul\":5209:5218   */\n      dup4\n        /* \"#utility.yul\":5205:5222   */\n      add\n        /* \"#utility.yul\":5196:5202   */\n      dup5\n        /* \"#utility.yul\":5156:5223   */\n      tag_219\n      jump\t// in\n    tag_308:\n        /* \"#utility.yul\":5016:5230   */\n      swap3\n      swap2\n      pop\n      pop\n      jump\t// out\n        /* \"#utility.yul\":5236:5565   */\n    tag_56:\n        /* \"#utility.yul\":5295:5301   */\n      0x00\n        /* \"#utility.yul\":5344:5346   */\n      0x20\n        /* \"#utility.yul\":5332:5341   */\n      dup3\n        /* \"#utility.yul\":5323:5330   */\n      dup5\n        /* \"#utility.yul\":5319:5342   */\n      sub\n        /* \"#utility.yul\":5315:5347   */\n      slt\n        /* \"#utility.yul\":5312:5431   */\n      iszero\n      tag_310\n      jumpi\n        /* \"#utility.yul\":5350:5429   */\n      tag_311\n      tag_206\n      jump\t// in\n    tag_311:\n        /* \"#utility.yul\":5312:5431   */\n    tag_310:\n        /* \"#utility.yul\":5470:5471   */\n      0x00\n        /* \"#utility.yul\":5495:5548   */\n      tag_312\n        /* \"#utility.yul\":5540:5547   */\n      dup5\n        /* \"#utility.yul\":5531:5537   */\n      dup3\n        /* \"#utility.yul\":5520:5529   */\n      dup6\n        /* \"#utility.yul\":5516:5538   */\n      add\n        /* \"#utility.yul\":5495:5548   */\n      tag_211\n      jump\t// in\n    tag_312:\n        /* \"#utility.yul\":5485:5548   */\n      swap2\n      pop\n        /* \"#utility.yul\":5441:5558   */\n      pop\n        /* \"#utility.yul\":5236:5565   */\n      swap3\n      swap2\n      pop\n      pop\n      jump\t// out\n        /* \"#utility.yul\":5571:6045   */\n    tag_79:\n        /* \"#utility.yul\":5639:5645   */\n      0x00\n        /* \"#utility.yul\":5647:5653   */\n      dup1\n        /* \"#utility.yul\":5696:5698   */\n      0x40\n        /* \"#utility.yul\":5684:5693   */\n      dup4\n        /* \"#utility.yul\":5675:5682   */\n      dup6\n        /* \"#utility.yul\":5671:5694   */\n      sub\n        /* \"#utility.yul\":5667:5699   */\n      slt\n        /* \"#utility.yul\":5664:5783   */\n      iszero\n      tag_314\n      jumpi\n        /* \"#utility.yul\":5702:5781   */\n      tag_315\n      tag_206\n      jump\t// in\n    tag_315:\n        /* \"#utility.yul\":5664:5783   */\n    tag_314:\n        /* \"#utility.yul\":5822:5823   */\n      0x00\n        /* \"#utility.yul\":5847:5900   */\n      tag_316\n        /* \"#utility.yul\":5892:5899   */\n      dup6\n        /* \"#utility.yul\":5883:5889   */\n      dup3\n        /* \"#utility.yul\":5872:5881   */\n      dup7\n        /* \"#utility.yul\":5868:5890   */\n      add\n        /* \"#utility.yul\":5847:5900   */\n      tag_211\n      jump\t// in\n    tag_316:\n        /* \"#utility.yul\":5837:5900   */\n      swap3\n      pop\n        /* \"#utility.yul\":5793:5910   */\n      pop\n        /* \"#utility.yul\":5949:5951   */\n      0x20\n        /* \"#utility.yul\":5975:6028   */\n      tag_317\n        /* \"#utility.yul\":6020:6027   */\n      dup6\n        /* \"#utility.yul\":6011:6017   */\n      dup3\n        /* \"#utility.yul\":6000:6009   */\n      dup7\n        /* \"#utility.yul\":5996:6018   */\n      add\n        /* \"#utility.yul\":5975:6028   */\n      tag_211\n      jump\t// in\n    tag_317:\n        /* \"#utility.yul\":5965:6028   */\n      swap2\n      pop\n        /* \"#utility.yul\":5920:6038   */\n      pop\n        /* \"#utility.yul\":5571:6045   */\n      swap3\n      pop\n      swap3\n      swap1\n      pop\n      jump\t// out\n        /* \"#utility.yul\":6051:6231   */\n    tag_220:\n        /* \"#utility.yul\":6099:6176   */\n      0x4e487b7100000000000000000000000000000000000000000000000000000000\n        /* \"#utility.yul\":6096:6097   */\n      0x00\n        /* \"#utility.yul\":6089:6177   */\n      mstore\n        /* \"#utility.yul\":6196:6200   */\n      0x22\n        /* \"#utility.yul\":6193:6194   */\n      0x04\n        /* \"#utility.yul\":6186:6201   */\n      mstore\n        /* \"#utility.yul\":6220:6224   */\n      0x24\n        /* \"#utility.yul\":6217:6218   */\n      0x00\n        /* \"#utility.yul\":6210:6225   */\n      revert\n        /* \"#utility.yul\":6237:6557   */\n    tag_84:\n        /* \"#utility.yul\":6281:6287   */\n      0x00\n        /* \"#utility.yul\":6318:6319   */\n      0x02\n        /* \"#utility.yul\":6312:6316   */\n      dup3\n        /* \"#utility.yul\":6308:6320   */\n      div\n        /* \"#utility.yul\":6298:6320   */\n      swap1\n      pop\n        /* \"#utility.yul\":6365:6366   */\n      0x01\n        /* \"#utility.yul\":6359:6363   */\n      dup3\n        /* \"#utility.yul\":6355:6367   */\n      and\n        /* \"#utility.yul\":6386:6404   */\n      dup1\n        /* \"#utility.yul\":6376:6457   */\n      tag_320\n      jumpi\n        /* \"#utility.yul\":6442:6446   */\n      0x7f\n        /* \"#utility.yul\":6434:6440   */\n      dup3\n        /* \"#utility.yul\":6430:6447   */\n      and\n        /* \"#utility.yul\":6420:6447   */\n      swap2\n      pop\n        /* \"#utility.yul\":6376:6457   */\n    tag_320:\n        /* \"#utility.yul\":6504:6506   */\n      0x20\n        /* \"#utility.yul\":6496:6502   */\n      dup3\n        /* \"#utility.yul\":6493:6507   */\n      lt\n        /* \"#utility.yul\":6473:6491   */\n      dup2\n        /* \"#utility.yul\":6470:6508   */\n      sub\n        /* \"#utility.yul\":6467:6551   */\n      tag_321\n      jumpi\n        /* \"#utility.yul\":6523:6541   */\n      tag_322\n      tag_220\n      jump\t// in\n    tag_322:\n        /* \"#utility.yul\":6467:6551   */\n    tag_321:\n        /* \"#utility.yul\":6288:6557   */\n      pop\n        /* \"#utility.yul\":6237:6557   */\n      swap2\n      swap1\n      pop\n      jump\t// out\n        /* \"#utility.yul\":6563:6727   */\n    tag_221:\n        /* \"#utility.yul\":6703:6719   */\n      0x616d6f756e74206973203c3d2030000000000000000000000000000000000000\n        /* \"#utility.yul\":6699:6700   */\n      0x00\n        /* \"#utility.yul\":6691:6697   */\n      dup3\n        /* \"#utility.yul\":6687:6701   */\n      add\n        /* \"#utility.yul\":6680:6720   */\n      mstore\n        /* \"#utility.yul\":6563:6727   */\n      pop\n      jump\t// out\n        /* \"#utility.yul\":6733:7099   */\n    tag_222:\n        /* \"#utility.yul\":6875:6878   */\n      0x00\n        /* \"#utility.yul\":6896:6963   */\n      tag_325\n        /* \"#utility.yul\":6960:6962   */\n      0x0e\n        /* \"#utility.yul\":6955:6958   */\n      dup4\n        /* \"#utility.yul\":6896:6963   */\n      tag_201\n      jump\t// in\n    tag_325:\n        /* \"#utility.yul\":6889:6963   */\n      swap2\n      pop\n        /* \"#utility.yul\":6972:7065   */\n      tag_326\n        /* \"#utility.yul\":7061:7064   */\n      dup3\n        /* \"#utility.yul\":6972:7065   */\n      tag_221\n      jump\t// in\n    tag_326:\n        /* \"#utility.yul\":7090:7092   */\n      0x20\n        /* \"#utility.yul\":7085:7088   */\n      dup3\n        /* \"#utility.yul\":7081:7093   */\n      add\n        /* \"#utility.yul\":7074:7093   */\n      swap1\n      pop\n        /* \"#utility.yul\":6733:7099   */\n      swap2\n      swap1\n      pop\n      jump\t// out\n        /* \"#utility.yul\":7105:7524   */\n    tag_104:\n        /* \"#utility.yul\":7271:7275   */\n      0x00\n        /* \"#utility.yul\":7309:7311   */\n      0x20\n        /* \"#utility.yul\":7298:7307   */\n      dup3\n        /* \"#utility.yul\":7294:7312   */\n      add\n        /* \"#utility.yul\":7286:7312   */\n      swap1\n      pop\n        /* \"#utility.yul\":7358:7367   */\n      dup2\n        /* \"#utility.yul\":7352:7356   */\n      dup2\n        /* \"#utility.yul\":7348:7368   */\n      sub\n        /* \"#utility.yul\":7344:7345   */\n      0x00\n        /* \"#utility.yul\":7333:7342   */\n      dup4\n        /* \"#utility.yul\":7329:7346   */\n      add\n        /* \"#utility.yul\":7322:7369   */\n      mstore\n        /* \"#utility.yul\":7386:7517   */\n      tag_328\n        /* \"#utility.yul\":7512:7516   */\n      dup2\n        /* \"#utility.yul\":7386:7517   */\n      tag_222\n      jump\t// in\n    tag_328:\n        /* \"#utility.yul\":7378:7517   */\n      swap1\n      pop\n        /* \"#utility.yul\":7105:7524   */\n      swap2\n      swap1\n      pop\n      jump\t// out\n        /* \"#utility.yul\":7530:7698   */\n    tag_223:\n        /* \"#utility.yul\":7670:7690   */\n      0x616d6f756e74206973203e207374616b65640000000000000000000000000000\n        /* \"#utility.yul\":7666:7667   */\n      0x00\n        /* \"#utility.yul\":7658:7664   */\n      dup3\n        /* \"#utility.yul\":7654:7668   */\n      add\n        /* \"#utility.yul\":7647:7691   */\n      mstore\n        /* \"#utility.yul\":7530:7698   */\n      pop\n      jump\t// out\n        /* \"#utility.yul\":7704:8070   */\n    tag_224:\n        /* \"#utility.yul\":7846:7849   */\n      0x00\n        /* \"#utility.yul\":7867:7934   */\n      tag_331\n        /* \"#utility.yul\":7931:7933   */\n      0x12\n        /* \"#utility.yul\":7926:7929   */\n      dup4\n        /* \"#utility.yul\":7867:7934   */\n      tag_201\n      jump\t// in\n    tag_331:\n        /* \"#utility.yul\":7860:7934   */\n      swap2\n      pop\n        /* \"#utility.yul\":7943:8036   */\n      tag_332\n        /* \"#utility.yul\":8032:8035   */\n      dup3\n        /* \"#utility.yul\":7943:8036   */\n      tag_223\n      jump\t// in\n    tag_332:\n        /* \"#utility.yul\":8061:8063   */\n      0x20\n        /* \"#utility.yul\":8056:8059   */\n      dup3\n        /* \"#utility.yul\":8052:8064   */\n      add\n        /* \"#utility.yul\":8045:8064   */\n      swap1\n      pop\n        /* \"#utility.yul\":7704:8070   */\n      swap2\n      swap1\n      pop\n      jump\t// out\n        /* \"#utility.yul\":8076:8495   */\n    tag_107:\n        /* \"#utility.yul\":8242:8246   */\n      0x00\n        /* \"#utility.yul\":8280:8282   */\n      0x20\n        /* \"#utility.yul\":8269:8278   */\n      dup3\n        /* \"#utility.yul\":8265:8283   */\n      add\n        /* \"#utility.yul\":8257:8283   */\n      swap1\n      pop\n        /* \"#utility.yul\":8329:8338   */\n      dup2\n        /* \"#utility.yul\":8323:8327   */\n      dup2\n        /* \"#utility.yul\":8319:8339   */\n      sub\n        /* \"#utility.yul\":8315:8316   */\n      0x00\n        /* \"#utility.yul\":8304:8313   */\n      dup4\n        /* \"#utility.yul\":8300:8317   */\n      add\n        /* \"#utility.yul\":8293:8340   */\n      mstore\n        /* \"#utility.yul\":8357:8488   */\n      tag_334\n        /* \"#utility.yul\":8483:8487   */\n      dup2\n        /* \"#utility.yul\":8357:8488   */\n      tag_224\n      jump\t// in\n    tag_334:\n        /* \"#utility.yul\":8349:8488   */\n      swap1\n      pop\n        /* \"#utility.yul\":8076:8495   */\n      swap2\n      swap1\n      pop\n      jump\t// out\n        /* \"#utility.yul\":8501:8681   */\n    tag_225:\n        /* \"#utility.yul\":8549:8626   */\n      0x4e487b7100000000000000000000000000000000000000000000000000000000\n        /* \"#utility.yul\":8546:8547   */\n      0x00\n        /* \"#utility.yul\":8539:8627   */\n      mstore\n        /* \"#utility.yul\":8646:8650   */\n      0x11\n        /* \"#utility.yul\":8643:8644   */\n      0x04\n        /* \"#utility.yul\":8636:8651   */\n      mstore\n        /* \"#utility.yul\":8670:8674   */\n      0x24\n        /* \"#utility.yul\":8667:8668   */\n      0x00\n        /* \"#utility.yul\":8660:8675   */\n      revert\n        /* \"#utility.yul\":8687:8878   */\n    tag_110:\n        /* \"#utility.yul\":8727:8731   */\n      0x00\n        /* \"#utility.yul\":8747:8767   */\n      tag_337\n        /* \"#utility.yul\":8765:8766   */\n      dup3\n        /* \"#utility.yul\":8747:8767   */\n      tag_212\n      jump\t// in\n    tag_337:\n        /* \"#utility.yul\":8742:8767   */\n      swap2\n      pop\n        /* \"#utility.yul\":8781:8801   */\n      tag_338\n        /* \"#utility.yul\":8799:8800   */\n      dup4\n        /* \"#utility.yul\":8781:8801   */\n      tag_212\n      jump\t// in\n    tag_338:\n        /* \"#utility.yul\":8776:8801   */\n      swap3\n      pop\n        /* \"#utility.yul\":8820:8821   */\n      dup3\n        /* \"#utility.yul\":8817:8818   */\n      dup3\n        /* \"#utility.yul\":8814:8822   */\n      lt\n        /* \"#utility.yul\":8811:8845   */\n      iszero\n      tag_339\n      jumpi\n        /* \"#utility.yul\":8825:8843   */\n      tag_340\n      tag_225\n      jump\t// in\n    tag_340:\n        /* \"#utility.yul\":8811:8845   */\n    tag_339:\n        /* \"#utility.yul\":8870:8871   */\n      dup3\n        /* \"#utility.yul\":8867:8868   */\n      dup3\n        /* \"#utility.yul\":8863:8872   */\n      sub\n        /* \"#utility.yul\":8855:8872   */\n      swap1\n      pop\n        /* \"#utility.yul\":8687:8878   */\n      swap3\n      swap2\n      pop\n      pop\n      jump\t// out\n        /* \"#utility.yul\":8884:9189   */\n    tag_118:\n        /* \"#utility.yul\":8924:8927   */\n      0x00\n        /* \"#utility.yul\":8943:8963   */\n      tag_342\n        /* \"#utility.yul\":8961:8962   */\n      dup3\n        /* \"#utility.yul\":8943:8963   */\n      tag_212\n      jump\t// in\n    tag_342:\n        /* \"#utility.yul\":8938:8963   */\n      swap2\n      pop\n        /* \"#utility.yul\":8977:8997   */\n      tag_343\n        /* \"#utility.yul\":8995:8996   */\n      dup4\n        /* \"#utility.yul\":8977:8997   */\n      tag_212\n      jump\t// in\n    tag_343:\n        /* \"#utility.yul\":8972:8997   */\n      swap3\n      pop\n        /* \"#utility.yul\":9131:9132   */\n      dup3\n        /* \"#utility.yul\":9063:9129   */\n      0xffffffffffffffffffffffffffffffffffffffffffffffffffffffffffffffff\n        /* \"#utility.yul\":9059:9133   */\n      sub\n        /* \"#utility.yul\":9056:9057   */\n      dup3\n        /* \"#utility.yul\":9053:9134   */\n      gt\n        /* \"#utility.yul\":9050:9157   */\n      iszero\n      tag_344\n      jumpi\n        /* \"#utility.yul\":9137:9155   */\n      tag_345\n      tag_225\n      jump\t// in\n    tag_345:\n        /* \"#utility.yul\":9050:9157   */\n    tag_344:\n        /* \"#utility.yul\":9181:9182   */\n      dup3\n        /* \"#utility.yul\":9178:9179   */\n      dup3\n        /* \"#utility.yul\":9174:9183   */\n      add\n        /* \"#utility.yul\":9167:9183   */\n      swap1\n      pop\n        /* \"#utility.yul\":8884:9189   */\n      swap3\n      swap2\n      pop\n      pop\n      jump\t// out\n        /* \"#utility.yul\":9195:9359   */\n    tag_226:\n        /* \"#utility.yul\":9335:9351   */\n      0x7374616b6564206973203c3d2030000000000000000000000000000000000000\n        /* \"#utility.yul\":9331:9332   */\n      0x00\n        /* \"#utility.yul\":9323:9329   */\n      dup3\n        /* \"#utility.yul\":9319:9333   */\n      add\n        /* \"#utility.yul\":9312:9352   */\n      mstore\n        /* \"#utility.yul\":9195:9359   */\n      pop\n      jump\t// out\n        /* \"#utility.yul\":9365:9731   */\n    tag_227:\n        /* \"#utility.yul\":9507:9510   */\n      0x00\n        /* \"#utility.yul\":9528:9595   */\n      tag_348\n        /* \"#utility.yul\":9592:9594   */\n      0x0e\n        /* \"#utility.yul\":9587:9590   */\n      dup4\n        /* \"#utility.yul\":9528:9595   */\n      tag_201\n      jump\t// in\n    tag_348:\n        /* \"#utility.yul\":9521:9595   */\n      swap2\n      pop\n        /* \"#utility.yul\":9604:9697   */\n      tag_349\n        /* \"#utility.yul\":9693:9696   */\n      dup3\n        /* \"#utility.yul\":9604:9697   */\n      tag_226\n      jump\t// in\n    tag_349:\n        /* \"#utility.yul\":9722:9724   */\n      0x20\n        /* \"#utility.yul\":9717:9720   */\n      dup3\n        /* \"#utility.yul\":9713:9725   */\n      add\n        /* \"#utility.yul\":9706:9725   */\n      swap1\n      pop\n        /* \"#utility.yul\":9365:9731   */\n      swap2\n      swap1\n      pop\n      jump\t// out\n        /* \"#utility.yul\":9737:10156   */\n    tag_122:\n        /* \"#utility.yul\":9903:9907   */\n      0x00\n        /* \"#utility.yul\":9941:9943   */\n      0x20\n        /* \"#utility.yul\":9930:9939   */\n      dup3\n        /* \"#utility.yul\":9926:9944   */\n      add\n        /* \"#utility.yul\":9918:9944   */\n      swap1\n      pop\n        /* \"#utility.yul\":9990:9999   */\n      dup2\n        /* \"#utility.yul\":9984:9988   */\n      dup2\n        /* \"#utility.yul\":9980:10000   */\n      sub\n        /* \"#utility.yul\":9976:9977   */\n      0x00\n        /* \"#utility.yul\":9965:9974   */\n      dup4\n        /* \"#utility.yul\":9961:9978   */\n      add\n        /* \"#utility.yul\":9954:10001   */\n      mstore\n        /* \"#utility.yul\":10018:10149   */\n      tag_351\n        /* \"#utility.yul\":10144:10148   */\n      dup2\n        /* \"#utility.yul\":10018:10149   */\n      tag_227\n      jump\t// in\n    tag_351:\n        /* \"#utility.yul\":10010:10149   */\n      swap1\n      pop\n        /* \"#utility.yul\":9737:10156   */\n      swap2\n      swap1\n      pop\n      jump\t// out\n        /* \"#utility.yul\":10162:10510   */\n    tag_125:\n        /* \"#utility.yul\":10202:10209   */\n      0x00\n        /* \"#utility.yul\":10225:10245   */\n      tag_353\n        /* \"#utility.yul\":10243:10244   */\n      dup3\n        /* \"#utility.yul\":10225:10245   */\n      tag_212\n      jump\t// in\n    tag_353:\n        /* \"#utility.yul\":10220:10245   */\n      swap2\n      pop\n        /* \"#utility.yul\":10259:10279   */\n      tag_354\n        /* \"#utility.yul\":10277:10278   */\n      dup4\n        /* \"#utility.yul\":10259:10279   */\n      tag_212\n      jump\t// in\n    tag_354:\n        /* \"#utility.yul\":10254:10279   */\n      swap3\n      pop\n        /* \"#utility.yul\":10447:10448   */\n      dup2\n        /* \"#utility.yul\":10379:10445   */\n      0xffffffffffffffffffffffffffffffffffffffffffffffffffffffffffffffff\n        /* \"#utility.yul\":10375:10449   */\n      div\n        /* \"#utility.yul\":10372:10373   */\n      dup4\n        /* \"#utility.yul\":10369:10450   */\n      gt\n        /* \"#utility.yul\":10364:10365   */\n      dup3\n        /* \"#utility.yul\":10357:10366   */\n      iszero\n        /* \"#utility.yul\":10350:10367   */\n      iszero\n        /* \"#utility.yul\":10346:10451   */\n      and\n        /* \"#utility.yul\":10343:10474   */\n      iszero\n      tag_355\n      jumpi\n        /* \"#utility.yul\":10454:10472   */\n      tag_356\n      tag_225\n      jump\t// in\n    tag_356:\n        /* \"#utility.yul\":10343:10474   */\n    tag_355:\n        /* \"#utility.yul\":10502:10503   */\n      dup3\n        /* \"#utility.yul\":10499:10500   */\n      dup3\n        /* \"#utility.yul\":10495:10504   */\n      mul\n        /* \"#utility.yul\":10484:10504   */\n      swap1\n      pop\n        /* \"#utility.yul\":10162:10510   */\n      swap3\n      swap2\n      pop\n      pop\n      jump\t// out\n        /* \"#utility.yul\":10516:10696   */\n    tag_228:\n        /* \"#utility.yul\":10564:10641   */\n      0x4e487b7100000000000000000000000000000000000000000000000000000000\n        /* \"#utility.yul\":10561:10562   */\n      0x00\n        /* \"#utility.yul\":10554:10642   */\n      mstore\n        /* \"#utility.yul\":10661:10665   */\n      0x12\n        /* \"#utility.yul\":10658:10659   */\n      0x04\n        /* \"#utility.yul\":10651:10666   */\n      mstore\n        /* \"#utility.yul\":10685:10689   */\n      0x24\n        /* \"#utility.yul\":10682:10683   */\n      0x00\n        /* \"#utility.yul\":10675:10690   */\n      revert\n        /* \"#utility.yul\":10702:10887   */\n    tag_127:\n        /* \"#utility.yul\":10742:10743   */\n      0x00\n        /* \"#utility.yul\":10759:10779   */\n      tag_359\n        /* \"#utility.yul\":10777:10778   */\n      dup3\n        /* \"#utility.yul\":10759:10779   */\n      tag_212\n      jump\t// in\n    tag_359:\n        /* \"#utility.yul\":10754:10779   */\n      swap2\n      pop\n        /* \"#utility.yul\":10793:10813   */\n      tag_360\n        /* \"#utility.yul\":10811:10812   */\n      dup4\n        /* \"#utility.yul\":10793:10813   */\n      tag_212\n      jump\t// in\n    tag_360:\n        /* \"#utility.yul\":10788:10813   */\n      swap3\n      pop\n        /* \"#utility.yul\":10832:10833   */\n      dup3\n        /* \"#utility.yul\":10822:10857   */\n      tag_361\n      jumpi\n        /* \"#utility.yul\":10837:10855   */\n      tag_362\n      tag_228\n      jump\t// in\n    tag_362:\n        /* \"#utility.yul\":10822:10857   */\n    tag_361:\n        /* \"#utility.yul\":10879:10880   */\n      dup3\n        /* \"#utility.yul\":10876:10877   */\n      dup3\n        /* \"#utility.yul\":10872:10881   */\n      div\n        /* \"#utility.yul\":10867:10881   */\n      swap1\n      pop\n        /* \"#utility.yul\":10702:10887   */\n      swap3\n      swap2\n      pop\n      pop\n      jump\t// out\n        /* \"#utility.yul\":10893:11117   */\n    tag_229:\n        /* \"#utility.yul\":11033:11067   */\n      0x45524332303a2064656372656173656420616c6c6f77616e63652062656c6f77\n        /* \"#utility.yul\":11029:11030   */\n      0x00\n        /* \"#utility.yul\":11021:11027   */\n      dup3\n        /* \"#utility.yul\":11017:11031   */\n      add\n        /* \"#utility.yul\":11010:11068   */\n      mstore\n        /* \"#utility.yul\":11102:11109   */\n      0x207a65726f000000000000000000000000000000000000000000000000000000\n        /* \"#utility.yul\":11097:11099   */\n      0x20\n        /* \"#utility.yul\":11089:11095   */\n      dup3\n        /* \"#utility.yul\":11085:11100   */\n      add\n        /* \"#utility.yul\":11078:11110   */\n      mstore\n        /* \"#utility.yul\":10893:11117   */\n      pop\n      jump\t// out\n        /* \"#utility.yul\":11123:11489   */\n    tag_230:\n        /* \"#utility.yul\":11265:11268   */\n      0x00\n        /* \"#utility.yul\":11286:11353   */\n      tag_365\n        /* \"#utility.yul\":11350:11352   */\n      0x25\n        /* \"#utility.yul\":11345:11348   */\n      dup4\n        /* \"#utility.yul\":11286:11353   */\n      tag_201\n      jump\t// in\n    tag_365:\n        /* \"#utility.yul\":11279:11353   */\n      swap2\n      pop\n        /* \"#utility.yul\":11362:11455   */\n      tag_366\n        /* \"#utility.yul\":11451:11454   */\n      dup3\n        /* \"#utility.yul\":11362:11455   */\n      tag_229\n      jump\t// in\n    tag_366:\n        /* \"#utility.yul\":11480:11482   */\n      0x40\n        /* \"#utility.yul\":11475:11478   */\n      dup3\n        /* \"#utility.yul\":11471:11483   */\n      add\n        /* \"#utility.yul\":11464:11483   */\n      swap1\n      pop\n        /* \"#utility.yul\":11123:11489   */\n      swap2\n      swap1\n      pop\n      jump\t// out\n        /* \"#utility.yul\":11495:11914   */\n    tag_142:\n        /* \"#utility.yul\":11661:11665   */\n      0x00\n        /* \"#utility.yul\":11699:11701   */\n      0x20\n        /* \"#utility.yul\":11688:11697   */\n      dup3\n        /* \"#utility.yul\":11684:11702   */\n      add\n        /* \"#utility.yul\":11676:11702   */\n      swap1\n      pop\n        /* \"#utility.yul\":11748:11757   */\n      dup2\n        /* \"#utility.yul\":11742:11746   */\n      dup2\n        /* \"#utility.yul\":11738:11758   */\n      sub\n        /* \"#utility.yul\":11734:11735   */\n      0x00\n        /* \"#utility.yul\":11723:11732   */\n      dup4\n        /* \"#utility.yul\":11719:11736   */\n      add\n        /* \"#utility.yul\":11712:11759   */\n      mstore\n        /* \"#utility.yul\":11776:11907   */\n      tag_368\n        /* \"#utility.yul\":11902:11906   */\n      dup2\n        /* \"#utility.yul\":11776:11907   */\n      tag_230\n      jump\t// in\n    tag_368:\n        /* \"#utility.yul\":11768:11907   */\n      swap1\n      pop\n        /* \"#utility.yul\":11495:11914   */\n      swap2\n      swap1\n      pop\n      jump\t// out\n        /* \"#utility.yul\":11920:12090   */\n    tag_231:\n        /* \"#utility.yul\":12060:12082   */\n      0x62616c616e6365206973203c3d20616d6f756e74000000000000000000000000\n        /* \"#utility.yul\":12056:12057   */\n      0x00\n        /* \"#utility.yul\":12048:12054   */\n      dup3\n        /* \"#utility.yul\":12044:12058   */\n      add\n        /* \"#utility.yul\":12037:12083   */\n      mstore\n        /* \"#utility.yul\":11920:12090   */\n      pop\n      jump\t// out\n        /* \"#utility.yul\":12096:12462   */\n    tag_232:\n        /* \"#utility.yul\":12238:12241   */\n      0x00\n        /* \"#utility.yul\":12259:12326   */\n      tag_371\n        /* \"#utility.yul\":12323:12325   */\n      0x14\n        /* \"#utility.yul\":12318:12321   */\n      dup4\n        /* \"#utility.yul\":12259:12326   */\n      tag_201\n      jump\t// in\n    tag_371:\n        /* \"#utility.yul\":12252:12326   */\n      swap2\n      pop\n        /* \"#utility.yul\":12335:12428   */\n      tag_372\n        /* \"#utility.yul\":12424:12427   */\n      dup3\n        /* \"#utility.yul\":12335:12428   */\n      tag_231\n      jump\t// in\n    tag_372:\n        /* \"#utility.yul\":12453:12455   */\n      0x20\n        /* \"#utility.yul\":12448:12451   */\n      dup3\n        /* \"#utility.yul\":12444:12456   */\n      add\n        /* \"#utility.yul\":12437:12456   */\n      swap1\n      pop\n        /* \"#utility.yul\":12096:12462   */\n      swap2\n      swap1\n      pop\n      jump\t// out\n        /* \"#utility.yul\":12468:12887   */\n    tag_150:\n        /* \"#utility.yul\":12634:12638   */\n      0x00\n        /* \"#utility.yul\":12672:12674   */\n      0x20\n        /* \"#utility.yul\":12661:12670   */\n      dup3\n        /* \"#utility.yul\":12657:12675   */\n      add\n        /* \"#utility.yul\":12649:12675   */\n      swap1\n      pop\n        /* \"#utility.yul\":12721:12730   */\n      dup2\n        /* \"#utility.yul\":12715:12719   */\n      dup2\n        /* \"#utility.yul\":12711:12731   */\n      sub\n        /* \"#utility.yul\":12707:12708   */\n      0x00\n        /* \"#utility.yul\":12696:12705   */\n      dup4\n        /* \"#utility.yul\":12692:12709   */\n      add\n        /* \"#utility.yul\":12685:12732   */\n      mstore\n        /* \"#utility.yul\":12749:12880   */\n      tag_374\n        /* \"#utility.yul\":12875:12879   */\n      dup2\n        /* \"#utility.yul\":12749:12880   */\n      tag_232\n      jump\t// in\n    tag_374:\n        /* \"#utility.yul\":12741:12880   */\n      swap1\n      pop\n        /* \"#utility.yul\":12468:12887   */\n      swap2\n      swap1\n      pop\n      jump\t// out\n        /* \"#utility.yul\":12893:13116   */\n    tag_233:\n        /* \"#utility.yul\":13033:13067   */\n      0x45524332303a20617070726f76652066726f6d20746865207a65726f20616464\n        /* \"#utility.yul\":13029:13030   */\n      0x00\n        /* \"#utility.yul\":13021:13027   */\n      dup3\n        /* \"#utility.yul\":13017:13031   */\n      add\n        /* \"#utility.yul\":13010:13068   */\n      mstore\n        /* \"#utility.yul\":13102:13108   */\n      0x7265737300000000000000000000000000000000000000000000000000000000\n        /* \"#utility.yul\":13097:13099   */\n      0x20\n        /* \"#utility.yul\":13089:13095   */\n      dup3\n        /* \"#utility.yul\":13085:13100   */\n      add\n        /* \"#utility.yul\":13078:13109   */\n      mstore\n        /* \"#utility.yul\":12893:13116   */\n      pop\n      jump\t// out\n        /* \"#utility.yul\":13122:13488   */\n    tag_234:\n        /* \"#utility.yul\":13264:13267   */\n      0x00\n        /* \"#utility.yul\":13285:13352   */\n      tag_377\n        /* \"#utility.yul\":13349:13351   */\n      0x24\n        /* \"#utility.yul\":13344:13347   */\n      dup4\n        /* \"#utility.yul\":13285:13352   */\n      tag_201\n      jump\t// in\n    tag_377:\n        /* \"#utility.yul\":13278:13352   */\n      swap2\n      pop\n        /* \"#utility.yul\":13361:13454   */\n      tag_378\n        /* \"#utility.yul\":13450:13453   */\n      dup3\n        /* \"#utility.yul\":13361:13454   */\n      tag_233\n      jump\t// in\n    tag_378:\n        /* \"#utility.yul\":13479:13481   */\n      0x40\n        /* \"#utility.yul\":13474:13477   */\n      dup3\n        /* \"#utility.yul\":13470:13482   */\n      add\n        /* \"#utility.yul\":13463:13482   */\n      swap1\n      pop\n        /* \"#utility.yul\":13122:13488   */\n      swap2\n      swap1\n      pop\n      jump\t// out\n        /* \"#utility.yul\":13494:13913   */\n    tag_163:\n        /* \"#utility.yul\":13660:13664   */\n      0x00\n        /* \"#utility.yul\":13698:13700   */\n      0x20\n        /* \"#utility.yul\":13687:13696   */\n      dup3\n        /* \"#utility.yul\":13683:13701   */\n      add\n        /* \"#utility.yul\":13675:13701   */\n      swap1\n      pop\n        /* \"#utility.yul\":13747:13756   */\n      dup2\n        /* \"#utility.yul\":13741:13745   */\n      dup2\n        /* \"#utility.yul\":13737:13757   */\n      sub\n        /* \"#utility.yul\":13733:13734   */\n      0x00\n        /* \"#utility.yul\":13722:13731   */\n      dup4\n        /* \"#utility.yul\":13718:13735   */\n      add\n        /* \"#utility.yul\":13711:13758   */\n      mstore\n        /* \"#utility.yul\":13775:13906   */\n      tag_380\n        /* \"#utility.yul\":13901:13905   */\n      dup2\n        /* \"#utility.yul\":13775:13906   */\n      tag_234\n      jump\t// in\n    tag_380:\n        /* \"#utility.yul\":13767:13906   */\n      swap1\n      pop\n        /* \"#utility.yul\":13494:13913   */\n      swap2\n      swap1\n      pop\n      jump\t// out\n        /* \"#utility.yul\":13919:14140   */\n    tag_235:\n        /* \"#utility.yul\":14059:14093   */\n      0x45524332303a20617070726f766520746f20746865207a65726f206164647265\n        /* \"#utility.yul\":14055:14056   */\n      0x00\n        /* \"#utility.yul\":14047:14053   */\n      dup3\n        /* \"#utility.yul\":14043:14057   */\n      add\n        /* \"#utility.yul\":14036:14094   */\n      mstore\n        /* \"#utility.yul\":14128:14132   */\n      0x7373000000000000000000000000000000000000000000000000000000000000\n        /* \"#utility.yul\":14123:14125   */\n      0x20\n        /* \"#utility.yul\":14115:14121   */\n      dup3\n        /* \"#utility.yul\":14111:14126   */\n      add\n        /* \"#utility.yul\":14104:14133   */\n      mstore\n        /* \"#utility.yul\":13919:14140   */\n      pop\n      jump\t// out\n        /* \"#utility.yul\":14146:14512   */\n    tag_236:\n        /* \"#utility.yul\":14288:14291   */\n      0x00\n        /* \"#utility.yul\":14309:14376   */\n      tag_383\n        /* \"#utility.yul\":14373:14375   */\n      0x22\n        /* \"#utility.yul\":14368:14371   */\n      dup4\n        /* \"#utility.yul\":14309:14376   */\n      tag_201\n      jump\t// in\n    tag_383:\n        /* \"#utility.yul\":14302:14376   */\n      swap2\n      pop\n        /* \"#utility.yul\":14385:14478   */\n      tag_384\n        /* \"#utility.yul\":14474:14477   */\n      dup3\n        /* \"#utility.yul\":14385:14478   */\n      tag_235\n      jump\t// in\n    tag_384:\n        /* \"#utility.yul\":14503:14505   */\n      0x40\n        /* \"#utility.yul\":14498:14501   */\n      dup3\n        /* \"#utility.yul\":14494:14506   */\n      add\n        /* \"#utility.yul\":14487:14506   */\n      swap1\n      pop\n        /* \"#utility.yul\":14146:14512   */\n      swap2\n      swap1\n      pop\n      jump\t// out\n        /* \"#utility.yul\":14518:14937   */\n    tag_166:\n        /* \"#utility.yul\":14684:14688   */\n      0x00\n        /* \"#utility.yul\":14722:14724   */\n      0x20\n        /* \"#utility.yul\":14711:14720   */\n      dup3\n        /* \"#utility.yul\":14707:14725   */\n      add\n        /* \"#utility.yul\":14699:14725   */\n      swap1\n      pop\n        /* \"#utility.yul\":14771:14780   */\n      dup2\n        /* \"#utility.yul\":14765:14769   */\n      dup2\n        /* \"#utility.yul\":14761:14781   */\n      sub\n        /* \"#utility.yul\":14757:14758   */\n      0x00\n        /* \"#utility.yul\":14746:14755   */\n      dup4\n        /* \"#utility.yul\":14742:14759   */\n      add\n        /* \"#utility.yul\":14735:14782   */\n      mstore\n        /* \"#utility.yul\":14799:14930   */\n      tag_386\n        /* \"#utility.yul\":14925:14929   */\n      dup2\n        /* \"#utility.yul\":14799:14930   */\n      tag_236\n      jump\t// in\n    tag_386:\n        /* \"#utility.yul\":14791:14930   */\n      swap1\n      pop\n        /* \"#utility.yul\":14518:14937   */\n      swap2\n      swap1\n      pop\n      jump\t// out\n        /* \"#utility.yul\":14943:15122   */\n    tag_237:\n        /* \"#utility.yul\":15083:15114   */\n      0x45524332303a20696e73756666696369656e7420616c6c6f77616e6365000000\n        /* \"#utility.yul\":15079:15080   */\n      0x00\n        /* \"#utility.yul\":15071:15077   */\n      dup3\n        /* \"#utility.yul\":15067:15081   */\n      add\n        /* \"#utility.yul\":15060:15115   */\n      mstore\n        /* \"#utility.yul\":14943:15122   */\n      pop\n      jump\t// out\n        /* \"#utility.yul\":15128:15494   */\n    tag_238:\n        /* \"#utility.yul\":15270:15273   */\n      0x00\n        /* \"#utility.yul\":15291:15358   */\n      tag_389\n        /* \"#utility.yul\":15355:15357   */\n      0x1d\n        /* \"#utility.yul\":15350:15353   */\n      dup4\n        /* \"#utility.yul\":15291:15358   */\n      tag_201\n      jump\t// in\n    tag_389:\n        /* \"#utility.yul\":15284:15358   */\n      swap2\n      pop\n        /* \"#utility.yul\":15367:15460   */\n      tag_390\n        /* \"#utility.yul\":15456:15459   */\n      dup3\n        /* \"#utility.yul\":15367:15460   */\n      tag_237\n      jump\t// in\n    tag_390:\n        /* \"#utility.yul\":15485:15487   */\n      0x20\n        /* \"#utility.yul\":15480:15483   */\n      dup3\n        /* \"#utility.yul\":15476:15488   */\n      add\n        /* \"#utility.yul\":15469:15488   */\n      swap1\n      pop\n        /* \"#utility.yul\":15128:15494   */\n      swap2\n      swap1\n      pop\n      jump\t// out\n        /* \"#utility.yul\":15500:15919   */\n    tag_173:\n        /* \"#utility.yul\":15666:15670   */\n      0x00\n        /* \"#utility.yul\":15704:15706   */\n      0x20\n        /* \"#utility.yul\":15693:15702   */\n      dup3\n        /* \"#utility.yul\":15689:15707   */\n      add\n        /* \"#utility.yul\":15681:15707   */\n      swap1\n      pop\n        /* \"#utility.yul\":15753:15762   */\n      dup2\n        /* \"#utility.yul\":15747:15751   */\n      dup2\n        /* \"#utility.yul\":15743:15763   */\n      sub\n        /* \"#utility.yul\":15739:15740   */\n      0x00\n        /* \"#utility.yul\":15728:15737   */\n      dup4\n        /* \"#utility.yul\":15724:15741   */\n      add\n        /* \"#utility.yul\":15717:15764   */\n      mstore\n        /* \"#utility.yul\":15781:15912   */\n      tag_392\n        /* \"#utility.yul\":15907:15911   */\n      dup2\n        /* \"#utility.yul\":15781:15912   */\n      tag_238\n      jump\t// in\n    tag_392:\n        /* \"#utility.yul\":15773:15912   */\n      swap1\n      pop\n        /* \"#utility.yul\":15500:15919   */\n      swap2\n      swap1\n      pop\n      jump\t// out\n        /* \"#utility.yul\":15925:16149   */\n    tag_239:\n        /* \"#utility.yul\":16065:16099   */\n      0x45524332303a207472616e736665722066726f6d20746865207a65726f206164\n        /* \"#utility.yul\":16061:16062   */\n      0x00\n        /* \"#utility.yul\":16053:16059   */\n      dup3\n        /* \"#utility.yul\":16049:16063   */\n      add\n        /* \"#utility.yul\":16042:16100   */\n      mstore\n        /* \"#utility.yul\":16134:16141   */\n      0x6472657373000000000000000000000000000000000000000000000000000000\n        /* \"#utility.yul\":16129:16131   */\n      0x20\n        /* \"#utility.yul\":16121:16127   */\n      dup3\n        /* \"#utility.yul\":16117:16132   */\n      add\n        /* \"#utility.yul\":16110:16142   */\n      mstore\n        /* \"#utility.yul\":15925:16149   */\n      pop\n      jump\t// out\n        /* \"#utility.yul\":16155:16521   */\n    tag_240:\n        /* \"#utility.yul\":16297:16300   */\n      0x00\n        /* \"#utility.yul\":16318:16385   */\n      tag_395\n        /* \"#utility.yul\":16382:16384   */\n      0x25\n        /* \"#utility.yul\":16377:16380   */\n      dup4\n        /* \"#utility.yul\":16318:16385   */\n      tag_201\n      jump\t// in\n    tag_395:\n        /* \"#utility.yul\":16311:16385   */\n      swap2\n      pop\n        /* \"#utility.yul\":16394:16487   */\n      tag_396\n        /* \"#utility.yul\":16483:16486   */\n      dup3\n        /* \"#utility.yul\":16394:16487   */\n      tag_239\n      jump\t// in\n    tag_396:\n        /* \"#utility.yul\":16512:16514   */\n      0x40\n        /* \"#utility.yul\":16507:16510   */\n      dup3\n        /* \"#utility.yul\":16503:16515   */\n      add\n        /* \"#utility.yul\":16496:16515   */\n      swap1\n      pop\n        /* \"#utility.yul\":16155:16521   */\n      swap2\n      swap1\n      pop\n      jump\t// out\n        /* \"#utility.yul\":16527:16946   */\n    tag_178:\n        /* \"#utility.yul\":16693:16697   */\n      0x00\n        /* \"#utility.yul\":16731:16733   */\n      0x20\n        /* \"#utility.yul\":16720:16729   */\n      dup3\n        /* \"#utility.yul\":16716:16734   */\n      add\n        /* \"#utility.yul\":16708:16734   */\n      swap1\n      pop\n        /* \"#utility.yul\":16780:16789   */\n      dup2\n        /* \"#utility.yul\":16774:16778   */\n      dup2\n        /* \"#utility.yul\":16770:16790   */\n      sub\n        /* \"#utility.yul\":16766:16767   */\n      0x00\n        /* \"#utility.yul\":16755:16764   */\n      dup4\n        /* \"#utility.yul\":16751:16768   */\n      add\n        /* \"#utility.yul\":16744:16791   */\n      mstore\n        /* \"#utility.yul\":16808:16939   */\n      tag_398\n        /* \"#utility.yul\":16934:16938   */\n      dup2\n        /* \"#utility.yul\":16808:16939   */\n      tag_240\n      jump\t// in\n    tag_398:\n        /* \"#utility.yul\":16800:16939   */\n      swap1\n      pop\n        /* \"#utility.yul\":16527:16946   */\n      swap2\n      swap1\n      pop\n      jump\t// out\n        /* \"#utility.yul\":16952:17174   */\n    tag_241:\n        /* \"#utility.yul\":17092:17126   */\n      0x45524332303a207472616e7366657220746f20746865207a65726f2061646472\n        /* \"#utility.yul\":17088:17089   */\n      0x00\n        /* \"#utility.yul\":17080:17086   */\n      dup3\n        /* \"#utility.yul\":17076:17090   */\n      add\n        /* \"#utility.yul\":17069:17127   */\n      mstore\n        /* \"#utility.yul\":17161:17166   */\n      0x6573730000000000000000000000000000000000000000000000000000000000\n        /* \"#utility.yul\":17156:17158   */\n      0x20\n        /* \"#utility.yul\":17148:17154   */\n      dup3\n        /* \"#utility.yul\":17144:17159   */\n      add\n        /* \"#utility.yul\":17137:17167   */\n      mstore\n        /* \"#utility.yul\":16952:17174   */\n      pop\n      jump\t// out\n        /* \"#utility.yul\":17180:17546   */\n    tag_242:\n        /* \"#utility.yul\":17322:17325   */\n      0x00\n        /* \"#utility.yul\":17343:17410   */\n      tag_401\n        /* \"#utility.yul\":17407:17409   */\n      0x23\n        /* \"#utility.yul\":17402:17405   */\n      dup4\n        /* \"#utility.yul\":17343:17410   */\n      tag_201\n      jump\t// in\n    tag_401:\n        /* \"#utility.yul\":17336:17410   */\n      swap2\n      pop\n        /* \"#utility.yul\":17419:17512   */\n      tag_402\n        /* \"#utility.yul\":17508:17511   */\n      dup3\n        /* \"#utility.yul\":17419:17512   */\n      tag_241\n      jump\t// in\n    tag_402:\n        /* \"#utility.yul\":17537:17539   */\n      0x40\n        /* \"#utility.yul\":17532:17535   */\n      dup3\n        /* \"#utility.yul\":17528:17540   */\n      add\n        /* \"#utility.yul\":17521:17540   */\n      swap1\n      pop\n        /* \"#utility.yul\":17180:17546   */\n      swap2\n      swap1\n      pop\n      jump\t// out\n        /* \"#utility.yul\":17552:17971   */\n    tag_181:\n        /* \"#utility.yul\":17718:17722   */\n      0x00\n        /* \"#utility.yul\":17756:17758   */\n      0x20\n        /* \"#utility.yul\":17745:17754   */\n      dup3\n        /* \"#utility.yul\":17741:17759   */\n      add\n        /* \"#utility.yul\":17733:17759   */\n      swap1\n      pop\n        /* \"#utility.yul\":17805:17814   */\n      dup2\n        /* \"#utility.yul\":17799:17803   */\n      dup2\n        /* \"#utility.yul\":17795:17815   */\n      sub\n        /* \"#utility.yul\":17791:17792   */\n      0x00\n        /* \"#utility.yul\":17780:17789   */\n      dup4\n        /* \"#utility.yul\":17776:17793   */\n      add\n        /* \"#utility.yul\":17769:17816   */\n      mstore\n        /* \"#utility.yul\":17833:17964   */\n      tag_404\n        /* \"#utility.yul\":17959:17963   */\n      dup2\n        /* \"#utility.yul\":17833:17964   */\n      tag_242\n      jump\t// in\n    tag_404:\n        /* \"#utility.yul\":17825:17964   */\n      swap1\n      pop\n        /* \"#utility.yul\":17552:17971   */\n      swap2\n      swap1\n      pop\n      jump\t// out\n        /* \"#utility.yul\":17977:18202   */\n    tag_243:\n        /* \"#utility.yul\":18117:18151   */\n      0x45524332303a207472616e7366657220616d6f756e7420657863656564732062\n        /* \"#utility.yul\":18113:18114   */\n      0x00\n        /* \"#utility.yul\":18105:18111   */\n      dup3\n        /* \"#utility.yul\":18101:18115   */\n      add\n        /* \"#utility.yul\":18094:18152   */\n      mstore\n        /* \"#utility.yul\":18186:18194   */\n      0x616c616e63650000000000000000000000000000000000000000000000000000\n        /* \"#utility.yul\":18181:18183   */\n      0x20\n        /* \"#utility.yul\":18173:18179   */\n      dup3\n        /* \"#utility.yul\":18169:18184   */\n      add\n        /* \"#utility.yul\":18162:18195   */\n      mstore\n        /* \"#utility.yul\":17977:18202   */\n      pop\n      jump\t// out\n        /* \"#utility.yul\":18208:18574   */\n    tag_244:\n        /* \"#utility.yul\":18350:18353   */\n      0x00\n        /* \"#utility.yul\":18371:18438   */\n      tag_407\n        /* \"#utility.yul\":18435:18437   */\n      0x26\n        /* \"#utility.yul\":18430:18433   */\n      dup4\n        /* \"#utility.yul\":18371:18438   */\n      tag_201\n      jump\t// in\n    tag_407:\n        /* \"#utility.yul\":18364:18438   */\n      swap2\n      pop\n        /* \"#utility.yul\":18447:18540   */\n      tag_408\n        /* \"#utility.yul\":18536:18539   */\n      dup3\n        /* \"#utility.yul\":18447:18540   */\n      tag_243\n      jump\t// in\n    tag_408:\n        /* \"#utility.yul\":18565:18567   */\n      0x40\n        /* \"#utility.yul\":18560:18563   */\n      dup3\n        /* \"#utility.yul\":18556:18568   */\n      add\n        /* \"#utility.yul\":18549:18568   */\n      swap1\n      pop\n        /* \"#utility.yul\":18208:18574   */\n      swap2\n      swap1\n      pop\n      jump\t// out\n        /* \"#utility.yul\":18580:18999   */\n    tag_186:\n        /* \"#utility.yul\":18746:18750   */\n      0x00\n        /* \"#utility.yul\":18784:18786   */\n      0x20\n        /* \"#utility.yul\":18773:18782   */\n      dup3\n        /* \"#utility.yul\":18769:18787   */\n      add\n        /* \"#utility.yul\":18761:18787   */\n      swap1\n      pop\n        /* \"#utility.yul\":18833:18842   */\n      dup2\n        /* \"#utility.yul\":18827:18831   */\n      dup2\n        /* \"#utility.yul\":18823:18843   */\n      sub\n        /* \"#utility.yul\":18819:18820   */\n      0x00\n        /* \"#utility.yul\":18808:18817   */\n      dup4\n        /* \"#utility.yul\":18804:18821   */\n      add\n        /* \"#utility.yul\":18797:18844   */\n      mstore\n        /* \"#utility.yul\":18861:18992   */\n      tag_410\n        /* \"#utility.yul\":18987:18991   */\n      dup2\n        /* \"#utility.yul\":18861:18992   */\n      tag_244\n      jump\t// in\n    tag_410:\n        /* \"#utility.yul\":18853:18992   */\n      swap1\n      pop\n        /* \"#utility.yul\":18580:18999   */\n      swap2\n      swap1\n      pop\n      jump\t// out\n        /* \"#utility.yul\":19005:19186   */\n    tag_245:\n        /* \"#utility.yul\":19145:19178   */\n      0x45524332303a206d696e7420746f20746865207a65726f206164647265737300\n        /* \"#utility.yul\":19141:19142   */\n      0x00\n        /* \"#utility.yul\":19133:19139   */\n      dup3\n        /* \"#utility.yul\":19129:19143   */\n      add\n        /* \"#utility.yul\":19122:19179   */\n      mstore\n        /* \"#utility.yul\":19005:19186   */\n      pop\n      jump\t// out\n        /* \"#utility.yul\":19192:19558   */\n    tag_246:\n        /* \"#utility.yul\":19334:19337   */\n      0x00\n        /* \"#utility.yul\":19355:19422   */\n      tag_413\n        /* \"#utility.yul\":19419:19421   */\n      0x1f\n        /* \"#utility.yul\":19414:19417   */\n      dup4\n        /* \"#utility.yul\":19355:19422   */\n      tag_201\n      jump\t// in\n    tag_413:\n        /* \"#utility.yul\":19348:19422   */\n      swap2\n      pop\n        /* \"#utility.yul\":19431:19524   */\n      tag_414\n        /* \"#utility.yul\":19520:19523   */\n      dup3\n        /* \"#utility.yul\":19431:19524   */\n      tag_245\n      jump\t// in\n    tag_414:\n        /* \"#utility.yul\":19549:19551   */\n      0x20\n        /* \"#utility.yul\":19544:19547   */\n      dup3\n        /* \"#utility.yul\":19540:19552   */\n      add\n        /* \"#utility.yul\":19533:19552   */\n      swap1\n      pop\n        /* \"#utility.yul\":19192:19558   */\n      swap2\n      swap1\n      pop\n      jump\t// out\n        /* \"#utility.yul\":19564:19983   */\n    tag_193:\n        /* \"#utility.yul\":19730:19734   */\n      0x00\n        /* \"#utility.yul\":19768:19770   */\n      0x20\n        /* \"#utility.yul\":19757:19766   */\n      dup3\n        /* \"#utility.yul\":19753:19771   */\n      add\n        /* \"#utility.yul\":19745:19771   */\n      swap1\n      pop\n        /* \"#utility.yul\":19817:19826   */\n      dup2\n        /* \"#utility.yul\":19811:19815   */\n      dup2\n        /* \"#utility.yul\":19807:19827   */\n      sub\n        /* \"#utility.yul\":19803:19804   */\n      0x00\n        /* \"#utility.yul\":19792:19801   */\n      dup4\n        /* \"#utility.yul\":19788:19805   */\n      add\n        /* \"#utility.yul\":19781:19828   */\n      mstore\n        /* \"#utility.yul\":19845:19976   */\n      tag_416\n        /* \"#utility.yul\":19971:19975   */\n      dup2\n        /* \"#utility.yul\":19845:19976   */\n      tag_246\n      jump\t// in\n    tag_416:\n        /* \"#utility.yul\":19837:19976   */\n      swap1\n      pop\n        /* \"#utility.yul\":19564:19983   */\n      swap2\n      swap1\n      pop\n      jump\t// out\n\n    auxdata: 0xa2646970667358221220abf4b210a9c4f59dd22f75b89b9c9139e2442e927e37d115f6984f0dcd2f350564736f6c634300080f0033\n}\n",
				"bytecode": {
					"linkReferences": {},
					"object": "60806040523480156200001157600080fd5b506040518060400160405280600d81526020017f4669786564205374616b696e67000000000000000000000000000000000000008152506040518060400160405280600381526020017f464958000000000000000000000000000000000000000000000000000000000081525081600390816200008f9190620004b5565b508060049081620000a19190620004b5565b505050620000be33670de0b6b3a7640000620000c460201b60201c565b620006d9565b600073ffffffffffffffffffffffffffffffffffffffff168273ffffffffffffffffffffffffffffffffffffffff160362000136576040517f08c379a00000000000000000000000000000000000000000000000000000000081526004016200012d90620005fd565b60405180910390fd5b6200014a600083836200023160201b60201c565b80600260008282546200015e91906200064e565b92505081905550806000808473ffffffffffffffffffffffffffffffffffffffff1673ffffffffffffffffffffffffffffffffffffffff168152602001908152602001600020600082825401925050819055508173ffffffffffffffffffffffffffffffffffffffff16600073ffffffffffffffffffffffffffffffffffffffff167fddf252ad1be2c89b69c2b068fc378daa952ba7f163c4a11628f55a4df523b3ef83604051620002119190620006bc565b60405180910390a36200022d600083836200023660201b60201c565b5050565b505050565b505050565b600081519050919050565b7f4e487b7100000000000000000000000000000000000000000000000000000000600052604160045260246000fd5b7f4e487b7100000000000000000000000000000000000000000000000000000000600052602260045260246000fd5b60006002820490506001821680620002bd57607f821691505b602082108103620002d357620002d262000275565b5b50919050565b60008190508160005260206000209050919050565b60006020601f8301049050919050565b600082821b905092915050565b6000600883026200033d7fffffffffffffffffffffffffffffffffffffffffffffffffffffffffffffffff82620002fe565b620003498683620002fe565b95508019841693508086168417925050509392505050565b6000819050919050565b6000819050919050565b600062000396620003906200038a8462000361565b6200036b565b62000361565b9050919050565b6000819050919050565b620003b28362000375565b620003ca620003c1826200039d565b8484546200030b565b825550505050565b600090565b620003e1620003d2565b620003ee818484620003a7565b505050565b5b8181101562000416576200040a600082620003d7565b600181019050620003f4565b5050565b601f82111562000465576200042f81620002d9565b6200043a84620002ee565b810160208510156200044a578190505b620004626200045985620002ee565b830182620003f3565b50505b505050565b600082821c905092915050565b60006200048a600019846008026200046a565b1980831691505092915050565b6000620004a5838362000477565b9150826002028217905092915050565b620004c0826200023b565b67ffffffffffffffff811115620004dc57620004db62000246565b5b620004e88254620002a4565b620004f58282856200041a565b600060209050601f8311600181146200052d576000841562000518578287015190505b62000524858262000497565b86555062000594565b601f1984166200053d86620002d9565b60005b82811015620005675784890151825560018201915060208501945060208101905062000540565b8683101562000587578489015162000583601f89168262000477565b8355505b6001600288020188555050505b505050505050565b600082825260208201905092915050565b7f45524332303a206d696e7420746f20746865207a65726f206164647265737300600082015250565b6000620005e5601f836200059c565b9150620005f282620005ad565b602082019050919050565b600060208201905081810360008301526200061881620005d6565b9050919050565b7f4e487b7100000000000000000000000000000000000000000000000000000000600052601160045260246000fd5b60006200065b8262000361565b9150620006688362000361565b9250827fffffffffffffffffffffffffffffffffffffffffffffffffffffffffffffffff03821115620006a0576200069f6200061f565b5b828201905092915050565b620006b68162000361565b82525050565b6000602082019050620006d36000830184620006ab565b92915050565b611bf680620006e96000396000f3fe608060405234801561001057600080fd5b50600436106100f55760003560e01c80634e71d92d11610097578063a457c2d711610066578063a457c2d714610288578063a694fc3a146102b8578063a9059cbb146102d4578063dd62ed3e14610304576100f5565b80634e71d92d1461020057806370a082311461020a57806395d89b411461023a57806398807d8414610258576100f5565b806323b872dd116100d357806323b872dd146101665780632e17de7814610196578063313ce567146101b257806339509351146101d0576100f5565b806306fdde03146100fa578063095ea7b31461011857806318160ddd14610148575b600080fd5b610102610334565b60405161010f919061117a565b60405180910390f35b610132600480360381019061012d9190611235565b6103c6565b60405161013f9190611290565b60405180910390f35b6101506103e9565b60405161015d91906112ba565b60405180910390f35b610180600480360381019061017b91906112d5565b6103f3565b60405161018d9190611290565b60405180910390f35b6101b060048036038101906101ab9190611328565b610422565b005b6101ba610553565b6040516101c79190611371565b60405180910390f35b6101ea60048036038101906101e59190611235565b61055c565b6040516101f79190611290565b60405180910390f35b610208610593565b005b610224600480360381019061021f919061138c565b610714565b60405161023191906112ba565b60405180910390f35b61024261075c565b60405161024f919061117a565b60405180910390f35b610272600480360381019061026d919061138c565b6107ee565b60405161027f91906112ba565b60405180910390f35b6102a2600480360381019061029d9190611235565b610806565b6040516102af9190611290565b60405180910390f35b6102d260048036038101906102cd9190611328565b61087d565b005b6102ee60048036038101906102e99190611235565b610a04565b6040516102fb9190611290565b60405180910390f35b61031e600480360381019061031991906113b9565b610a27565b60405161032b91906112ba565b60405180910390f35b60606003805461034390611428565b80601f016020809104026020016040519081016040528092919081815260200182805461036f90611428565b80156103bc5780601f10610391576101008083540402835291602001916103bc565b820191906000526020600020905b81548152906001019060200180831161039f57829003601f168201915b5050505050905090565b6000806103d1610aae565b90506103de818585610ab6565b600191505092915050565b6000600254905090565b6000806103fe610aae565b905061040b858285610c7f565b610416858585610d0b565b60019150509392505050565b60008111610465576040517f08c379a000000000000000000000000000000000000000000000000000000000815260040161045c906114a5565b60405180910390fd5b80600560003373ffffffffffffffffffffffffffffffffffffffff1673ffffffffffffffffffffffffffffffffffffffff1681526020019081526020016000205410156104e7576040517f08c379a00000000000000000000000000000000000000000000000000000000081526004016104de90611511565b60405180910390fd5b6104ef610593565b80600560003373ffffffffffffffffffffffffffffffffffffffff1673ffffffffffffffffffffffffffffffffffffffff168152602001908152602001600020600082825461053e9190611560565b92505081905550610550303383610d0b565b50565b60006012905090565b600080610567610aae565b90506105888185856105798589610a27565b6105839190611594565b610ab6565b600191505092915050565b6000600560003373ffffffffffffffffffffffffffffffffffffffff1673ffffffffffffffffffffffffffffffffffffffff1681526020019081526020016000205411610615576040517f08c379a000000000000000000000000000000000000000000000000000000000815260040161060c90611636565b60405180910390fd5b6000600660003373ffffffffffffffffffffffffffffffffffffffff1673ffffffffffffffffffffffffffffffffffffffff16815260200190815260200160002054426106629190611560565b905060006301e1432082600560003373ffffffffffffffffffffffffffffffffffffffff1673ffffffffffffffffffffffffffffffffffffffff168152602001908152602001600020546106b69190611656565b6106c091906116df565b90506106cc3382610f81565b42600660003373ffffffffffffffffffffffffffffffffffffffff1673ffffffffffffffffffffffffffffffffffffffff168152602001908152602001600020819055505050565b60008060008373ffffffffffffffffffffffffffffffffffffffff1673ffffffffffffffffffffffffffffffffffffffff168152602001908152602001600020549050919050565b60606004805461076b90611428565b80601f016020809104026020016040519081016040528092919081815260200182805461079790611428565b80156107e45780601f106107b9576101008083540402835291602001916107e4565b820191906000526020600020905b8154815290600101906020018083116107c757829003601f168201915b5050505050905090565b60056020528060005260406000206000915090505481565b600080610811610aae565b9050600061081f8286610a27565b905083811015610864576040517f08c379a000000000000000000000000000000000000000000000000000000000815260040161085b90611782565b60405180910390fd5b6108718286868403610ab6565b60019250505092915050565b600081116108c0576040517f08c379a00000000000000000000000000000000000000000000000000000000081526004016108b7906114a5565b60405180910390fd5b806108ca33610714565b101561090b576040517f08c379a0000000000000000000000000000000000000000000000000000000008152600401610902906117ee565b60405180910390fd5b610916333083610d0b565b6000600560003373ffffffffffffffffffffffffffffffffffffffff1673ffffffffffffffffffffffffffffffffffffffff16815260200190815260200160002054111561096757610966610593565b5b42600660003373ffffffffffffffffffffffffffffffffffffffff1673ffffffffffffffffffffffffffffffffffffffff1681526020019081526020016000208190555080600560003373ffffffffffffffffffffffffffffffffffffffff1673ffffffffffffffffffffffffffffffffffffffff16815260200190815260200160002060008282546109fa9190611594565b9250508190555050565b600080610a0f610aae565b9050610a1c818585610d0b565b600191505092915050565b6000600160008473ffffffffffffffffffffffffffffffffffffffff1673ffffffffffffffffffffffffffffffffffffffff16815260200190815260200160002060008373ffffffffffffffffffffffffffffffffffffffff1673ffffffffffffffffffffffffffffffffffffffff16815260200190815260200160002054905092915050565b600033905090565b600073ffffffffffffffffffffffffffffffffffffffff168373ffffffffffffffffffffffffffffffffffffffff1603610b25576040517f08c379a0000000000000000000000000000000000000000000000000000000008152600401610b1c90611880565b60405180910390fd5b600073ffffffffffffffffffffffffffffffffffffffff168273ffffffffffffffffffffffffffffffffffffffff1603610b94576040517f08c379a0000000000000000000000000000000000000000000000000000000008152600401610b8b90611912565b60405180910390fd5b80600160008573ffffffffffffffffffffffffffffffffffffffff1673ffffffffffffffffffffffffffffffffffffffff16815260200190815260200160002060008473ffffffffffffffffffffffffffffffffffffffff1673ffffffffffffffffffffffffffffffffffffffff168152602001908152602001600020819055508173ffffffffffffffffffffffffffffffffffffffff168373ffffffffffffffffffffffffffffffffffffffff167f8c5be1e5ebec7d5bd14f71427d1e84f3dd0314c0f7b2291e5b200ac8c7c3b92583604051610c7291906112ba565b60405180910390a3505050565b6000610c8b8484610a27565b90507fffffffffffffffffffffffffffffffffffffffffffffffffffffffffffffffff8114610d055781811015610cf7576040517f08c379a0000000000000000000000000000000000000000000000000000000008152600401610cee9061197e565b60405180910390fd5b610d048484848403610ab6565b5b50505050565b600073ffffffffffffffffffffffffffffffffffffffff168373ffffffffffffffffffffffffffffffffffffffff1603610d7a576040517f08c379a0000000000000000000000000000000000000000000000000000000008152600401610d7190611a10565b60405180910390fd5b600073ffffffffffffffffffffffffffffffffffffffff168273ffffffffffffffffffffffffffffffffffffffff1603610de9576040517f08c379a0000000000000000000000000000000000000000000000000000000008152600401610de090611aa2565b60405180910390fd5b610df48383836110d7565b60008060008573ffffffffffffffffffffffffffffffffffffffff1673ffffffffffffffffffffffffffffffffffffffff16815260200190815260200160002054905081811015610e7a576040517f08c379a0000000000000000000000000000000000000000000000000000000008152600401610e7190611b34565b60405180910390fd5b8181036000808673ffffffffffffffffffffffffffffffffffffffff1673ffffffffffffffffffffffffffffffffffffffff16815260200190815260200160002081905550816000808573ffffffffffffffffffffffffffffffffffffffff1673ffffffffffffffffffffffffffffffffffffffff168152602001908152602001600020600082825401925050819055508273ffffffffffffffffffffffffffffffffffffffff168473ffffffffffffffffffffffffffffffffffffffff167fddf252ad1be2c89b69c2b068fc378daa952ba7f163c4a11628f55a4df523b3ef84604051610f6891906112ba565b60405180910390a3610f7b8484846110dc565b50505050565b600073ffffffffffffffffffffffffffffffffffffffff168273ffffffffffffffffffffffffffffffffffffffff1603610ff0576040517f08c379a0000000000000000000000000000000000000000000000000000000008152600401610fe790611ba0565b60405180910390fd5b610ffc600083836110d7565b806002600082825461100e9190611594565b92505081905550806000808473ffffffffffffffffffffffffffffffffffffffff1673ffffffffffffffffffffffffffffffffffffffff168152602001908152602001600020600082825401925050819055508173ffffffffffffffffffffffffffffffffffffffff16600073ffffffffffffffffffffffffffffffffffffffff167fddf252ad1be2c89b69c2b068fc378daa952ba7f163c4a11628f55a4df523b3ef836040516110bf91906112ba565b60405180910390a36110d3600083836110dc565b5050565b505050565b505050565b600081519050919050565b600082825260208201905092915050565b60005b8381101561111b578082015181840152602081019050611100565b8381111561112a576000848401525b50505050565b6000601f19601f8301169050919050565b600061114c826110e1565b61115681856110ec565b93506111668185602086016110fd565b61116f81611130565b840191505092915050565b600060208201905081810360008301526111948184611141565b905092915050565b600080fd5b600073ffffffffffffffffffffffffffffffffffffffff82169050919050565b60006111cc826111a1565b9050919050565b6111dc816111c1565b81146111e757600080fd5b50565b6000813590506111f9816111d3565b92915050565b6000819050919050565b611212816111ff565b811461121d57600080fd5b50565b60008135905061122f81611209565b92915050565b6000806040838503121561124c5761124b61119c565b5b600061125a858286016111ea565b925050602061126b85828601611220565b9150509250929050565b60008115159050919050565b61128a81611275565b82525050565b60006020820190506112a56000830184611281565b92915050565b6112b4816111ff565b82525050565b60006020820190506112cf60008301846112ab565b92915050565b6000806000606084860312156112ee576112ed61119c565b5b60006112fc868287016111ea565b935050602061130d868287016111ea565b925050604061131e86828701611220565b9150509250925092565b60006020828403121561133e5761133d61119c565b5b600061134c84828501611220565b91505092915050565b600060ff82169050919050565b61136b81611355565b82525050565b60006020820190506113866000830184611362565b92915050565b6000602082840312156113a2576113a161119c565b5b60006113b0848285016111ea565b91505092915050565b600080604083850312156113d0576113cf61119c565b5b60006113de858286016111ea565b92505060206113ef858286016111ea565b9150509250929050565b7f4e487b7100000000000000000000000000000000000000000000000000000000600052602260045260246000fd5b6000600282049050600182168061144057607f821691505b602082108103611453576114526113f9565b5b50919050565b7f616d6f756e74206973203c3d2030000000000000000000000000000000000000600082015250565b600061148f600e836110ec565b915061149a82611459565b602082019050919050565b600060208201905081810360008301526114be81611482565b9050919050565b7f616d6f756e74206973203e207374616b65640000000000000000000000000000600082015250565b60006114fb6012836110ec565b9150611506826114c5565b602082019050919050565b6000602082019050818103600083015261152a816114ee565b9050919050565b7f4e487b7100000000000000000000000000000000000000000000000000000000600052601160045260246000fd5b600061156b826111ff565b9150611576836111ff565b92508282101561158957611588611531565b5b828203905092915050565b600061159f826111ff565b91506115aa836111ff565b9250827fffffffffffffffffffffffffffffffffffffffffffffffffffffffffffffffff038211156115df576115de611531565b5b828201905092915050565b7f7374616b6564206973203c3d2030000000000000000000000000000000000000600082015250565b6000611620600e836110ec565b915061162b826115ea565b602082019050919050565b6000602082019050818103600083015261164f81611613565b9050919050565b6000611661826111ff565b915061166c836111ff565b9250817fffffffffffffffffffffffffffffffffffffffffffffffffffffffffffffffff04831182151516156116a5576116a4611531565b5b828202905092915050565b7f4e487b7100000000000000000000000000000000000000000000000000000000600052601260045260246000fd5b60006116ea826111ff565b91506116f5836111ff565b925082611705576117046116b0565b5b828204905092915050565b7f45524332303a2064656372656173656420616c6c6f77616e63652062656c6f7760008201527f207a65726f000000000000000000000000000000000000000000000000000000602082015250565b600061176c6025836110ec565b915061177782611710565b604082019050919050565b6000602082019050818103600083015261179b8161175f565b9050919050565b7f62616c616e6365206973203c3d20616d6f756e74000000000000000000000000600082015250565b60006117d86014836110ec565b91506117e3826117a2565b602082019050919050565b60006020820190508181036000830152611807816117cb565b9050919050565b7f45524332303a20617070726f76652066726f6d20746865207a65726f2061646460008201527f7265737300000000000000000000000000000000000000000000000000000000602082015250565b600061186a6024836110ec565b91506118758261180e565b604082019050919050565b600060208201905081810360008301526118998161185d565b9050919050565b7f45524332303a20617070726f766520746f20746865207a65726f20616464726560008201527f7373000000000000000000000000000000000000000000000000000000000000602082015250565b60006118fc6022836110ec565b9150611907826118a0565b604082019050919050565b6000602082019050818103600083015261192b816118ef565b9050919050565b7f45524332303a20696e73756666696369656e7420616c6c6f77616e6365000000600082015250565b6000611968601d836110ec565b915061197382611932565b602082019050919050565b600060208201905081810360008301526119978161195b565b9050919050565b7f45524332303a207472616e736665722066726f6d20746865207a65726f20616460008201527f6472657373000000000000000000000000000000000000000000000000000000602082015250565b60006119fa6025836110ec565b9150611a058261199e565b604082019050919050565b60006020820190508181036000830152611a29816119ed565b9050919050565b7f45524332303a207472616e7366657220746f20746865207a65726f206164647260008201527f6573730000000000000000000000000000000000000000000000000000000000602082015250565b6000611a8c6023836110ec565b9150611a9782611a30565b604082019050919050565b60006020820190508181036000830152611abb81611a7f565b9050919050565b7f45524332303a207472616e7366657220616d6f756e742065786365656473206260008201527f616c616e63650000000000000000000000000000000000000000000000000000602082015250565b6000611b1e6026836110ec565b9150611b2982611ac2565b604082019050919050565b60006020820190508181036000830152611b4d81611b11565b9050919050565b7f45524332303a206d696e7420746f20746865207a65726f206164647265737300600082015250565b6000611b8a601f836110ec565b9150611b9582611b54565b602082019050919050565b60006020820190508181036000830152611bb981611b7d565b905091905056fea2646970667358221220abf4b210a9c4f59dd22f75b89b9c9139e2442e927e37d115f6984f0dcd2f350564736f6c634300080f0033",
					"opcodes": "PUSH1 0x80 PUSH1 0x40 MSTORE CALLVALUE DUP1 ISZERO PUSH3 0x11 JUMPI PUSH1 0x0 DUP1 REVERT JUMPDEST POP PUSH1 0x40 MLOAD DUP1 PUSH1 0x40 ADD PUSH1 0x40 MSTORE DUP1 PUSH1 0xD DUP2 MSTORE PUSH1 0x20 ADD PUSH32 0x4669786564205374616B696E6700000000000000000000000000000000000000 DUP2 MSTORE POP PUSH1 0x40 MLOAD DUP1 PUSH1 0x40 ADD PUSH1 0x40 MSTORE DUP1 PUSH1 0x3 DUP2 MSTORE PUSH1 0x20 ADD PUSH32 0x4649580000000000000000000000000000000000000000000000000000000000 DUP2 MSTORE POP DUP2 PUSH1 0x3 SWAP1 DUP2 PUSH3 0x8F SWAP2 SWAP1 PUSH3 0x4B5 JUMP JUMPDEST POP DUP1 PUSH1 0x4 SWAP1 DUP2 PUSH3 0xA1 SWAP2 SWAP1 PUSH3 0x4B5 JUMP JUMPDEST POP POP POP PUSH3 0xBE CALLER PUSH8 0xDE0B6B3A7640000 PUSH3 0xC4 PUSH1 0x20 SHL PUSH1 0x20 SHR JUMP JUMPDEST PUSH3 0x6D9 JUMP JUMPDEST PUSH1 0x0 PUSH20 0xFFFFFFFFFFFFFFFFFFFFFFFFFFFFFFFFFFFFFFFF AND DUP3 PUSH20 0xFFFFFFFFFFFFFFFFFFFFFFFFFFFFFFFFFFFFFFFF AND SUB PUSH3 0x136 JUMPI PUSH1 0x40 MLOAD PUSH32 0x8C379A000000000000000000000000000000000000000000000000000000000 DUP2 MSTORE PUSH1 0x4 ADD PUSH3 0x12D SWAP1 PUSH3 0x5FD JUMP JUMPDEST PUSH1 0x40 MLOAD DUP1 SWAP2 SUB SWAP1 REVERT JUMPDEST PUSH3 0x14A PUSH1 0x0 DUP4 DUP4 PUSH3 0x231 PUSH1 0x20 SHL PUSH1 0x20 SHR JUMP JUMPDEST DUP1 PUSH1 0x2 PUSH1 0x0 DUP3 DUP3 SLOAD PUSH3 0x15E SWAP2 SWAP1 PUSH3 0x64E JUMP JUMPDEST SWAP3 POP POP DUP2 SWAP1 SSTORE POP DUP1 PUSH1 0x0 DUP1 DUP5 PUSH20 0xFFFFFFFFFFFFFFFFFFFFFFFFFFFFFFFFFFFFFFFF AND PUSH20 0xFFFFFFFFFFFFFFFFFFFFFFFFFFFFFFFFFFFFFFFF AND DUP2 MSTORE PUSH1 0x20 ADD SWAP1 DUP2 MSTORE PUSH1 0x20 ADD PUSH1 0x0 KECCAK256 PUSH1 0x0 DUP3 DUP3 SLOAD ADD SWAP3 POP POP DUP2 SWAP1 SSTORE POP DUP2 PUSH20 0xFFFFFFFFFFFFFFFFFFFFFFFFFFFFFFFFFFFFFFFF AND PUSH1 0x0 PUSH20 0xFFFFFFFFFFFFFFFFFFFFFFFFFFFFFFFFFFFFFFFF AND PUSH32 0xDDF252AD1BE2C89B69C2B068FC378DAA952BA7F163C4A11628F55A4DF523B3EF DUP4 PUSH1 0x40 MLOAD PUSH3 0x211 SWAP2 SWAP1 PUSH3 0x6BC JUMP JUMPDEST PUSH1 0x40 MLOAD DUP1 SWAP2 SUB SWAP1 LOG3 PUSH3 0x22D PUSH1 0x0 DUP4 DUP4 PUSH3 0x236 PUSH1 0x20 SHL PUSH1 0x20 SHR JUMP JUMPDEST POP POP JUMP JUMPDEST POP POP POP JUMP JUMPDEST POP POP POP JUMP JUMPDEST PUSH1 0x0 DUP2 MLOAD SWAP1 POP SWAP2 SWAP1 POP JUMP JUMPDEST PUSH32 0x4E487B7100000000000000000000000000000000000000000000000000000000 PUSH1 0x0 MSTORE PUSH1 0x41 PUSH1 0x4 MSTORE PUSH1 0x24 PUSH1 0x0 REVERT JUMPDEST PUSH32 0x4E487B7100000000000000000000000000000000000000000000000000000000 PUSH1 0x0 MSTORE PUSH1 0x22 PUSH1 0x4 MSTORE PUSH1 0x24 PUSH1 0x0 REVERT JUMPDEST PUSH1 0x0 PUSH1 0x2 DUP3 DIV SWAP1 POP PUSH1 0x1 DUP3 AND DUP1 PUSH3 0x2BD JUMPI PUSH1 0x7F DUP3 AND SWAP2 POP JUMPDEST PUSH1 0x20 DUP3 LT DUP2 SUB PUSH3 0x2D3 JUMPI PUSH3 0x2D2 PUSH3 0x275 JUMP JUMPDEST JUMPDEST POP SWAP2 SWAP1 POP JUMP JUMPDEST PUSH1 0x0 DUP2 SWAP1 POP DUP2 PUSH1 0x0 MSTORE PUSH1 0x20 PUSH1 0x0 KECCAK256 SWAP1 POP SWAP2 SWAP1 POP JUMP JUMPDEST PUSH1 0x0 PUSH1 0x20 PUSH1 0x1F DUP4 ADD DIV SWAP1 POP SWAP2 SWAP1 POP JUMP JUMPDEST PUSH1 0x0 DUP3 DUP3 SHL SWAP1 POP SWAP3 SWAP2 POP POP JUMP JUMPDEST PUSH1 0x0 PUSH1 0x8 DUP4 MUL PUSH3 0x33D PUSH32 0xFFFFFFFFFFFFFFFFFFFFFFFFFFFFFFFFFFFFFFFFFFFFFFFFFFFFFFFFFFFFFFFF DUP3 PUSH3 0x2FE JUMP JUMPDEST PUSH3 0x349 DUP7 DUP4 PUSH3 0x2FE JUMP JUMPDEST SWAP6 POP DUP1 NOT DUP5 AND SWAP4 POP DUP1 DUP7 AND DUP5 OR SWAP3 POP POP POP SWAP4 SWAP3 POP POP POP JUMP JUMPDEST PUSH1 0x0 DUP2 SWAP1 POP SWAP2 SWAP1 POP JUMP JUMPDEST PUSH1 0x0 DUP2 SWAP1 POP SWAP2 SWAP1 POP JUMP JUMPDEST PUSH1 0x0 PUSH3 0x396 PUSH3 0x390 PUSH3 0x38A DUP5 PUSH3 0x361 JUMP JUMPDEST PUSH3 0x36B JUMP JUMPDEST PUSH3 0x361 JUMP JUMPDEST SWAP1 POP SWAP2 SWAP1 POP JUMP JUMPDEST PUSH1 0x0 DUP2 SWAP1 POP SWAP2 SWAP1 POP JUMP JUMPDEST PUSH3 0x3B2 DUP4 PUSH3 0x375 JUMP JUMPDEST PUSH3 0x3CA PUSH3 0x3C1 DUP3 PUSH3 0x39D JUMP JUMPDEST DUP5 DUP5 SLOAD PUSH3 0x30B JUMP JUMPDEST DUP3 SSTORE POP POP POP POP JUMP JUMPDEST PUSH1 0x0 SWAP1 JUMP JUMPDEST PUSH3 0x3E1 PUSH3 0x3D2 JUMP JUMPDEST PUSH3 0x3EE DUP2 DUP5 DUP5 PUSH3 0x3A7 JUMP JUMPDEST POP POP POP JUMP JUMPDEST JUMPDEST DUP2 DUP2 LT ISZERO PUSH3 0x416 JUMPI PUSH3 0x40A PUSH1 0x0 DUP3 PUSH3 0x3D7 JUMP JUMPDEST PUSH1 0x1 DUP2 ADD SWAP1 POP PUSH3 0x3F4 JUMP JUMPDEST POP POP JUMP JUMPDEST PUSH1 0x1F DUP3 GT ISZERO PUSH3 0x465 JUMPI PUSH3 0x42F DUP2 PUSH3 0x2D9 JUMP JUMPDEST PUSH3 0x43A DUP5 PUSH3 0x2EE JUMP JUMPDEST DUP2 ADD PUSH1 0x20 DUP6 LT ISZERO PUSH3 0x44A JUMPI DUP2 SWAP1 POP JUMPDEST PUSH3 0x462 PUSH3 0x459 DUP6 PUSH3 0x2EE JUMP JUMPDEST DUP4 ADD DUP3 PUSH3 0x3F3 JUMP JUMPDEST POP POP JUMPDEST POP POP POP JUMP JUMPDEST PUSH1 0x0 DUP3 DUP3 SHR SWAP1 POP SWAP3 SWAP2 POP POP JUMP JUMPDEST PUSH1 0x0 PUSH3 0x48A PUSH1 0x0 NOT DUP5 PUSH1 0x8 MUL PUSH3 0x46A JUMP JUMPDEST NOT DUP1 DUP4 AND SWAP2 POP POP SWAP3 SWAP2 POP POP JUMP JUMPDEST PUSH1 0x0 PUSH3 0x4A5 DUP4 DUP4 PUSH3 0x477 JUMP JUMPDEST SWAP2 POP DUP3 PUSH1 0x2 MUL DUP3 OR SWAP1 POP SWAP3 SWAP2 POP POP JUMP JUMPDEST PUSH3 0x4C0 DUP3 PUSH3 0x23B JUMP JUMPDEST PUSH8 0xFFFFFFFFFFFFFFFF DUP2 GT ISZERO PUSH3 0x4DC JUMPI PUSH3 0x4DB PUSH3 0x246 JUMP JUMPDEST JUMPDEST PUSH3 0x4E8 DUP3 SLOAD PUSH3 0x2A4 JUMP JUMPDEST PUSH3 0x4F5 DUP3 DUP3 DUP6 PUSH3 0x41A JUMP JUMPDEST PUSH1 0x0 PUSH1 0x20 SWAP1 POP PUSH1 0x1F DUP4 GT PUSH1 0x1 DUP2 EQ PUSH3 0x52D JUMPI PUSH1 0x0 DUP5 ISZERO PUSH3 0x518 JUMPI DUP3 DUP8 ADD MLOAD SWAP1 POP JUMPDEST PUSH3 0x524 DUP6 DUP3 PUSH3 0x497 JUMP JUMPDEST DUP7 SSTORE POP PUSH3 0x594 JUMP JUMPDEST PUSH1 0x1F NOT DUP5 AND PUSH3 0x53D DUP7 PUSH3 0x2D9 JUMP JUMPDEST PUSH1 0x0 JUMPDEST DUP3 DUP2 LT ISZERO PUSH3 0x567 JUMPI DUP5 DUP10 ADD MLOAD DUP3 SSTORE PUSH1 0x1 DUP3 ADD SWAP2 POP PUSH1 0x20 DUP6 ADD SWAP5 POP PUSH1 0x20 DUP2 ADD SWAP1 POP PUSH3 0x540 JUMP JUMPDEST DUP7 DUP4 LT ISZERO PUSH3 0x587 JUMPI DUP5 DUP10 ADD MLOAD PUSH3 0x583 PUSH1 0x1F DUP10 AND DUP3 PUSH3 0x477 JUMP JUMPDEST DUP4 SSTORE POP JUMPDEST PUSH1 0x1 PUSH1 0x2 DUP9 MUL ADD DUP9 SSTORE POP POP POP JUMPDEST POP POP POP POP POP POP JUMP JUMPDEST PUSH1 0x0 DUP3 DUP3 MSTORE PUSH1 0x20 DUP3 ADD SWAP1 POP SWAP3 SWAP2 POP POP JUMP JUMPDEST PUSH32 0x45524332303A206D696E7420746F20746865207A65726F206164647265737300 PUSH1 0x0 DUP3 ADD MSTORE POP JUMP JUMPDEST PUSH1 0x0 PUSH3 0x5E5 PUSH1 0x1F DUP4 PUSH3 0x59C JUMP JUMPDEST SWAP2 POP PUSH3 0x5F2 DUP3 PUSH3 0x5AD JUMP JUMPDEST PUSH1 0x20 DUP3 ADD SWAP1 POP SWAP2 SWAP1 POP JUMP JUMPDEST PUSH1 0x0 PUSH1 0x20 DUP3 ADD SWAP1 POP DUP2 DUP2 SUB PUSH1 0x0 DUP4 ADD MSTORE PUSH3 0x618 DUP2 PUSH3 0x5D6 JUMP JUMPDEST SWAP1 POP SWAP2 SWAP1 POP JUMP JUMPDEST PUSH32 0x4E487B7100000000000000000000000000000000000000000000000000000000 PUSH1 0x0 MSTORE PUSH1 0x11 PUSH1 0x4 MSTORE PUSH1 0x24 PUSH1 0x0 REVERT JUMPDEST PUSH1 0x0 PUSH3 0x65B DUP3 PUSH3 0x361 JUMP JUMPDEST SWAP2 POP PUSH3 0x668 DUP4 PUSH3 0x361 JUMP JUMPDEST SWAP3 POP DUP3 PUSH32 0xFFFFFFFFFFFFFFFFFFFFFFFFFFFFFFFFFFFFFFFFFFFFFFFFFFFFFFFFFFFFFFFF SUB DUP3 GT ISZERO PUSH3 0x6A0 JUMPI PUSH3 0x69F PUSH3 0x61F JUMP JUMPDEST JUMPDEST DUP3 DUP3 ADD SWAP1 POP SWAP3 SWAP2 POP POP JUMP JUMPDEST PUSH3 0x6B6 DUP2 PUSH3 0x361 JUMP JUMPDEST DUP3 MSTORE POP POP JUMP JUMPDEST PUSH1 0x0 PUSH1 0x20 DUP3 ADD SWAP1 POP PUSH3 0x6D3 PUSH1 0x0 DUP4 ADD DUP5 PUSH3 0x6AB JUMP JUMPDEST SWAP3 SWAP2 POP POP JUMP JUMPDEST PUSH2 0x1BF6 DUP1 PUSH3 0x6E9 PUSH1 0x0 CODECOPY PUSH1 0x0 RETURN INVALID PUSH1 0x80 PUSH1 0x40 MSTORE CALLVALUE DUP1 ISZERO PUSH2 0x10 JUMPI PUSH1 0x0 DUP1 REVERT JUMPDEST POP PUSH1 0x4 CALLDATASIZE LT PUSH2 0xF5 JUMPI PUSH1 0x0 CALLDATALOAD PUSH1 0xE0 SHR DUP1 PUSH4 0x4E71D92D GT PUSH2 0x97 JUMPI DUP1 PUSH4 0xA457C2D7 GT PUSH2 0x66 JUMPI DUP1 PUSH4 0xA457C2D7 EQ PUSH2 0x288 JUMPI DUP1 PUSH4 0xA694FC3A EQ PUSH2 0x2B8 JUMPI DUP1 PUSH4 0xA9059CBB EQ PUSH2 0x2D4 JUMPI DUP1 PUSH4 0xDD62ED3E EQ PUSH2 0x304 JUMPI PUSH2 0xF5 JUMP JUMPDEST DUP1 PUSH4 0x4E71D92D EQ PUSH2 0x200 JUMPI DUP1 PUSH4 0x70A08231 EQ PUSH2 0x20A JUMPI DUP1 PUSH4 0x95D89B41 EQ PUSH2 0x23A JUMPI DUP1 PUSH4 0x98807D84 EQ PUSH2 0x258 JUMPI PUSH2 0xF5 JUMP JUMPDEST DUP1 PUSH4 0x23B872DD GT PUSH2 0xD3 JUMPI DUP1 PUSH4 0x23B872DD EQ PUSH2 0x166 JUMPI DUP1 PUSH4 0x2E17DE78 EQ PUSH2 0x196 JUMPI DUP1 PUSH4 0x313CE567 EQ PUSH2 0x1B2 JUMPI DUP1 PUSH4 0x39509351 EQ PUSH2 0x1D0 JUMPI PUSH2 0xF5 JUMP JUMPDEST DUP1 PUSH4 0x6FDDE03 EQ PUSH2 0xFA JUMPI DUP1 PUSH4 0x95EA7B3 EQ PUSH2 0x118 JUMPI DUP1 PUSH4 0x18160DDD EQ PUSH2 0x148 JUMPI JUMPDEST PUSH1 0x0 DUP1 REVERT JUMPDEST PUSH2 0x102 PUSH2 0x334 JUMP JUMPDEST PUSH1 0x40 MLOAD PUSH2 0x10F SWAP2 SWAP1 PUSH2 0x117A JUMP JUMPDEST PUSH1 0x40 MLOAD DUP1 SWAP2 SUB SWAP1 RETURN JUMPDEST PUSH2 0x132 PUSH1 0x4 DUP1 CALLDATASIZE SUB DUP2 ADD SWAP1 PUSH2 0x12D SWAP2 SWAP1 PUSH2 0x1235 JUMP JUMPDEST PUSH2 0x3C6 JUMP JUMPDEST PUSH1 0x40 MLOAD PUSH2 0x13F SWAP2 SWAP1 PUSH2 0x1290 JUMP JUMPDEST PUSH1 0x40 MLOAD DUP1 SWAP2 SUB SWAP1 RETURN JUMPDEST PUSH2 0x150 PUSH2 0x3E9 JUMP JUMPDEST PUSH1 0x40 MLOAD PUSH2 0x15D SWAP2 SWAP1 PUSH2 0x12BA JUMP JUMPDEST PUSH1 0x40 MLOAD DUP1 SWAP2 SUB SWAP1 RETURN JUMPDEST PUSH2 0x180 PUSH1 0x4 DUP1 CALLDATASIZE SUB DUP2 ADD SWAP1 PUSH2 0x17B SWAP2 SWAP1 PUSH2 0x12D5 JUMP JUMPDEST PUSH2 0x3F3 JUMP JUMPDEST PUSH1 0x40 MLOAD PUSH2 0x18D SWAP2 SWAP1 PUSH2 0x1290 JUMP JUMPDEST PUSH1 0x40 MLOAD DUP1 SWAP2 SUB SWAP1 RETURN JUMPDEST PUSH2 0x1B0 PUSH1 0x4 DUP1 CALLDATASIZE SUB DUP2 ADD SWAP1 PUSH2 0x1AB SWAP2 SWAP1 PUSH2 0x1328 JUMP JUMPDEST PUSH2 0x422 JUMP JUMPDEST STOP JUMPDEST PUSH2 0x1BA PUSH2 0x553 JUMP JUMPDEST PUSH1 0x40 MLOAD PUSH2 0x1C7 SWAP2 SWAP1 PUSH2 0x1371 JUMP JUMPDEST PUSH1 0x40 MLOAD DUP1 SWAP2 SUB SWAP1 RETURN JUMPDEST PUSH2 0x1EA PUSH1 0x4 DUP1 CALLDATASIZE SUB DUP2 ADD SWAP1 PUSH2 0x1E5 SWAP2 SWAP1 PUSH2 0x1235 JUMP JUMPDEST PUSH2 0x55C JUMP JUMPDEST PUSH1 0x40 MLOAD PUSH2 0x1F7 SWAP2 SWAP1 PUSH2 0x1290 JUMP JUMPDEST PUSH1 0x40 MLOAD DUP1 SWAP2 SUB SWAP1 RETURN JUMPDEST PUSH2 0x208 PUSH2 0x593 JUMP JUMPDEST STOP JUMPDEST PUSH2 0x224 PUSH1 0x4 DUP1 CALLDATASIZE SUB DUP2 ADD SWAP1 PUSH2 0x21F SWAP2 SWAP1 PUSH2 0x138C JUMP JUMPDEST PUSH2 0x714 JUMP JUMPDEST PUSH1 0x40 MLOAD PUSH2 0x231 SWAP2 SWAP1 PUSH2 0x12BA JUMP JUMPDEST PUSH1 0x40 MLOAD DUP1 SWAP2 SUB SWAP1 RETURN JUMPDEST PUSH2 0x242 PUSH2 0x75C JUMP JUMPDEST PUSH1 0x40 MLOAD PUSH2 0x24F SWAP2 SWAP1 PUSH2 0x117A JUMP JUMPDEST PUSH1 0x40 MLOAD DUP1 SWAP2 SUB SWAP1 RETURN JUMPDEST PUSH2 0x272 PUSH1 0x4 DUP1 CALLDATASIZE SUB DUP2 ADD SWAP1 PUSH2 0x26D SWAP2 SWAP1 PUSH2 0x138C JUMP JUMPDEST PUSH2 0x7EE JUMP JUMPDEST PUSH1 0x40 MLOAD PUSH2 0x27F SWAP2 SWAP1 PUSH2 0x12BA JUMP JUMPDEST PUSH1 0x40 MLOAD DUP1 SWAP2 SUB SWAP1 RETURN JUMPDEST PUSH2 0x2A2 PUSH1 0x4 DUP1 CALLDATASIZE SUB DUP2 ADD SWAP1 PUSH2 0x29D SWAP2 SWAP1 PUSH2 0x1235 JUMP JUMPDEST PUSH2 0x806 JUMP JUMPDEST PUSH1 0x40 MLOAD PUSH2 0x2AF SWAP2 SWAP1 PUSH2 0x1290 JUMP JUMPDEST PUSH1 0x40 MLOAD DUP1 SWAP2 SUB SWAP1 RETURN JUMPDEST PUSH2 0x2D2 PUSH1 0x4 DUP1 CALLDATASIZE SUB DUP2 ADD SWAP1 PUSH2 0x2CD SWAP2 SWAP1 PUSH2 0x1328 JUMP JUMPDEST PUSH2 0x87D JUMP JUMPDEST STOP JUMPDEST PUSH2 0x2EE PUSH1 0x4 DUP1 CALLDATASIZE SUB DUP2 ADD SWAP1 PUSH2 0x2E9 SWAP2 SWAP1 PUSH2 0x1235 JUMP JUMPDEST PUSH2 0xA04 JUMP JUMPDEST PUSH1 0x40 MLOAD PUSH2 0x2FB SWAP2 SWAP1 PUSH2 0x1290 JUMP JUMPDEST PUSH1 0x40 MLOAD DUP1 SWAP2 SUB SWAP1 RETURN JUMPDEST PUSH2 0x31E PUSH1 0x4 DUP1 CALLDATASIZE SUB DUP2 ADD SWAP1 PUSH2 0x319 SWAP2 SWAP1 PUSH2 0x13B9 JUMP JUMPDEST PUSH2 0xA27 JUMP JUMPDEST PUSH1 0x40 MLOAD PUSH2 0x32B SWAP2 SWAP1 PUSH2 0x12BA JUMP JUMPDEST PUSH1 0x40 MLOAD DUP1 SWAP2 SUB SWAP1 RETURN JUMPDEST PUSH1 0x60 PUSH1 0x3 DUP1 SLOAD PUSH2 0x343 SWAP1 PUSH2 0x1428 JUMP JUMPDEST DUP1 PUSH1 0x1F ADD PUSH1 0x20 DUP1 SWAP2 DIV MUL PUSH1 0x20 ADD PUSH1 0x40 MLOAD SWAP1 DUP2 ADD PUSH1 0x40 MSTORE DUP1 SWAP3 SWAP2 SWAP1 DUP2 DUP2 MSTORE PUSH1 0x20 ADD DUP3 DUP1 SLOAD PUSH2 0x36F SWAP1 PUSH2 0x1428 JUMP JUMPDEST DUP1 ISZERO PUSH2 0x3BC JUMPI DUP1 PUSH1 0x1F LT PUSH2 0x391 JUMPI PUSH2 0x100 DUP1 DUP4 SLOAD DIV MUL DUP4 MSTORE SWAP2 PUSH1 0x20 ADD SWAP2 PUSH2 0x3BC JUMP JUMPDEST DUP3 ADD SWAP2 SWAP1 PUSH1 0x0 MSTORE PUSH1 0x20 PUSH1 0x0 KECCAK256 SWAP1 JUMPDEST DUP2 SLOAD DUP2 MSTORE SWAP1 PUSH1 0x1 ADD SWAP1 PUSH1 0x20 ADD DUP1 DUP4 GT PUSH2 0x39F JUMPI DUP3 SWAP1 SUB PUSH1 0x1F AND DUP3 ADD SWAP2 JUMPDEST POP POP POP POP POP SWAP1 POP SWAP1 JUMP JUMPDEST PUSH1 0x0 DUP1 PUSH2 0x3D1 PUSH2 0xAAE JUMP JUMPDEST SWAP1 POP PUSH2 0x3DE DUP2 DUP6 DUP6 PUSH2 0xAB6 JUMP JUMPDEST PUSH1 0x1 SWAP2 POP POP SWAP3 SWAP2 POP POP JUMP JUMPDEST PUSH1 0x0 PUSH1 0x2 SLOAD SWAP1 POP SWAP1 JUMP JUMPDEST PUSH1 0x0 DUP1 PUSH2 0x3FE PUSH2 0xAAE JUMP JUMPDEST SWAP1 POP PUSH2 0x40B DUP6 DUP3 DUP6 PUSH2 0xC7F JUMP JUMPDEST PUSH2 0x416 DUP6 DUP6 DUP6 PUSH2 0xD0B JUMP JUMPDEST PUSH1 0x1 SWAP2 POP POP SWAP4 SWAP3 POP POP POP JUMP JUMPDEST PUSH1 0x0 DUP2 GT PUSH2 0x465 JUMPI PUSH1 0x40 MLOAD PUSH32 0x8C379A000000000000000000000000000000000000000000000000000000000 DUP2 MSTORE PUSH1 0x4 ADD PUSH2 0x45C SWAP1 PUSH2 0x14A5 JUMP JUMPDEST PUSH1 0x40 MLOAD DUP1 SWAP2 SUB SWAP1 REVERT JUMPDEST DUP1 PUSH1 0x5 PUSH1 0x0 CALLER PUSH20 0xFFFFFFFFFFFFFFFFFFFFFFFFFFFFFFFFFFFFFFFF AND PUSH20 0xFFFFFFFFFFFFFFFFFFFFFFFFFFFFFFFFFFFFFFFF AND DUP2 MSTORE PUSH1 0x20 ADD SWAP1 DUP2 MSTORE PUSH1 0x20 ADD PUSH1 0x0 KECCAK256 SLOAD LT ISZERO PUSH2 0x4E7 JUMPI PUSH1 0x40 MLOAD PUSH32 0x8C379A000000000000000000000000000000000000000000000000000000000 DUP2 MSTORE PUSH1 0x4 ADD PUSH2 0x4DE SWAP1 PUSH2 0x1511 JUMP JUMPDEST PUSH1 0x40 MLOAD DUP1 SWAP2 SUB SWAP1 REVERT JUMPDEST PUSH2 0x4EF PUSH2 0x593 JUMP JUMPDEST DUP1 PUSH1 0x5 PUSH1 0x0 CALLER PUSH20 0xFFFFFFFFFFFFFFFFFFFFFFFFFFFFFFFFFFFFFFFF AND PUSH20 0xFFFFFFFFFFFFFFFFFFFFFFFFFFFFFFFFFFFFFFFF AND DUP2 MSTORE PUSH1 0x20 ADD SWAP1 DUP2 MSTORE PUSH1 0x20 ADD PUSH1 0x0 KECCAK256 PUSH1 0x0 DUP3 DUP3 SLOAD PUSH2 0x53E SWAP2 SWAP1 PUSH2 0x1560 JUMP JUMPDEST SWAP3 POP POP DUP2 SWAP1 SSTORE POP PUSH2 0x550 ADDRESS CALLER DUP4 PUSH2 0xD0B JUMP JUMPDEST POP JUMP JUMPDEST PUSH1 0x0 PUSH1 0x12 SWAP1 POP SWAP1 JUMP JUMPDEST PUSH1 0x0 DUP1 PUSH2 0x567 PUSH2 0xAAE JUMP JUMPDEST SWAP1 POP PUSH2 0x588 DUP2 DUP6 DUP6 PUSH2 0x579 DUP6 DUP10 PUSH2 0xA27 JUMP JUMPDEST PUSH2 0x583 SWAP2 SWAP1 PUSH2 0x1594 JUMP JUMPDEST PUSH2 0xAB6 JUMP JUMPDEST PUSH1 0x1 SWAP2 POP POP SWAP3 SWAP2 POP POP JUMP JUMPDEST PUSH1 0x0 PUSH1 0x5 PUSH1 0x0 CALLER PUSH20 0xFFFFFFFFFFFFFFFFFFFFFFFFFFFFFFFFFFFFFFFF AND PUSH20 0xFFFFFFFFFFFFFFFFFFFFFFFFFFFFFFFFFFFFFFFF AND DUP2 MSTORE PUSH1 0x20 ADD SWAP1 DUP2 MSTORE PUSH1 0x20 ADD PUSH1 0x0 KECCAK256 SLOAD GT PUSH2 0x615 JUMPI PUSH1 0x40 MLOAD PUSH32 0x8C379A000000000000000000000000000000000000000000000000000000000 DUP2 MSTORE PUSH1 0x4 ADD PUSH2 0x60C SWAP1 PUSH2 0x1636 JUMP JUMPDEST PUSH1 0x40 MLOAD DUP1 SWAP2 SUB SWAP1 REVERT JUMPDEST PUSH1 0x0 PUSH1 0x6 PUSH1 0x0 CALLER PUSH20 0xFFFFFFFFFFFFFFFFFFFFFFFFFFFFFFFFFFFFFFFF AND PUSH20 0xFFFFFFFFFFFFFFFFFFFFFFFFFFFFFFFFFFFFFFFF AND DUP2 MSTORE PUSH1 0x20 ADD SWAP1 DUP2 MSTORE PUSH1 0x20 ADD PUSH1 0x0 KECCAK256 SLOAD TIMESTAMP PUSH2 0x662 SWAP2 SWAP1 PUSH2 0x1560 JUMP JUMPDEST SWAP1 POP PUSH1 0x0 PUSH4 0x1E14320 DUP3 PUSH1 0x5 PUSH1 0x0 CALLER PUSH20 0xFFFFFFFFFFFFFFFFFFFFFFFFFFFFFFFFFFFFFFFF AND PUSH20 0xFFFFFFFFFFFFFFFFFFFFFFFFFFFFFFFFFFFFFFFF AND DUP2 MSTORE PUSH1 0x20 ADD SWAP1 DUP2 MSTORE PUSH1 0x20 ADD PUSH1 0x0 KECCAK256 SLOAD PUSH2 0x6B6 SWAP2 SWAP1 PUSH2 0x1656 JUMP JUMPDEST PUSH2 0x6C0 SWAP2 SWAP1 PUSH2 0x16DF JUMP JUMPDEST SWAP1 POP PUSH2 0x6CC CALLER DUP3 PUSH2 0xF81 JUMP JUMPDEST TIMESTAMP PUSH1 0x6 PUSH1 0x0 CALLER PUSH20 0xFFFFFFFFFFFFFFFFFFFFFFFFFFFFFFFFFFFFFFFF AND PUSH20 0xFFFFFFFFFFFFFFFFFFFFFFFFFFFFFFFFFFFFFFFF AND DUP2 MSTORE PUSH1 0x20 ADD SWAP1 DUP2 MSTORE PUSH1 0x20 ADD PUSH1 0x0 KECCAK256 DUP2 SWAP1 SSTORE POP POP POP JUMP JUMPDEST PUSH1 0x0 DUP1 PUSH1 0x0 DUP4 PUSH20 0xFFFFFFFFFFFFFFFFFFFFFFFFFFFFFFFFFFFFFFFF AND PUSH20 0xFFFFFFFFFFFFFFFFFFFFFFFFFFFFFFFFFFFFFFFF AND DUP2 MSTORE PUSH1 0x20 ADD SWAP1 DUP2 MSTORE PUSH1 0x20 ADD PUSH1 0x0 KECCAK256 SLOAD SWAP1 POP SWAP2 SWAP1 POP JUMP JUMPDEST PUSH1 0x60 PUSH1 0x4 DUP1 SLOAD PUSH2 0x76B SWAP1 PUSH2 0x1428 JUMP JUMPDEST DUP1 PUSH1 0x1F ADD PUSH1 0x20 DUP1 SWAP2 DIV MUL PUSH1 0x20 ADD PUSH1 0x40 MLOAD SWAP1 DUP2 ADD PUSH1 0x40 MSTORE DUP1 SWAP3 SWAP2 SWAP1 DUP2 DUP2 MSTORE PUSH1 0x20 ADD DUP3 DUP1 SLOAD PUSH2 0x797 SWAP1 PUSH2 0x1428 JUMP JUMPDEST DUP1 ISZERO PUSH2 0x7E4 JUMPI DUP1 PUSH1 0x1F LT PUSH2 0x7B9 JUMPI PUSH2 0x100 DUP1 DUP4 SLOAD DIV MUL DUP4 MSTORE SWAP2 PUSH1 0x20 ADD SWAP2 PUSH2 0x7E4 JUMP JUMPDEST DUP3 ADD SWAP2 SWAP1 PUSH1 0x0 MSTORE PUSH1 0x20 PUSH1 0x0 KECCAK256 SWAP1 JUMPDEST DUP2 SLOAD DUP2 MSTORE SWAP1 PUSH1 0x1 ADD SWAP1 PUSH1 0x20 ADD DUP1 DUP4 GT PUSH2 0x7C7 JUMPI DUP3 SWAP1 SUB PUSH1 0x1F AND DUP3 ADD SWAP2 JUMPDEST POP POP POP POP POP SWAP1 POP SWAP1 JUMP JUMPDEST PUSH1 0x5 PUSH1 0x20 MSTORE DUP1 PUSH1 0x0 MSTORE PUSH1 0x40 PUSH1 0x0 KECCAK256 PUSH1 0x0 SWAP2 POP SWAP1 POP SLOAD DUP2 JUMP JUMPDEST PUSH1 0x0 DUP1 PUSH2 0x811 PUSH2 0xAAE JUMP JUMPDEST SWAP1 POP PUSH1 0x0 PUSH2 0x81F DUP3 DUP7 PUSH2 0xA27 JUMP JUMPDEST SWAP1 POP DUP4 DUP2 LT ISZERO PUSH2 0x864 JUMPI PUSH1 0x40 MLOAD PUSH32 0x8C379A000000000000000000000000000000000000000000000000000000000 DUP2 MSTORE PUSH1 0x4 ADD PUSH2 0x85B SWAP1 PUSH2 0x1782 JUMP JUMPDEST PUSH1 0x40 MLOAD DUP1 SWAP2 SUB SWAP1 REVERT JUMPDEST PUSH2 0x871 DUP3 DUP7 DUP7 DUP5 SUB PUSH2 0xAB6 JUMP JUMPDEST PUSH1 0x1 SWAP3 POP POP POP SWAP3 SWAP2 POP POP JUMP JUMPDEST PUSH1 0x0 DUP2 GT PUSH2 0x8C0 JUMPI PUSH1 0x40 MLOAD PUSH32 0x8C379A000000000000000000000000000000000000000000000000000000000 DUP2 MSTORE PUSH1 0x4 ADD PUSH2 0x8B7 SWAP1 PUSH2 0x14A5 JUMP JUMPDEST PUSH1 0x40 MLOAD DUP1 SWAP2 SUB SWAP1 REVERT JUMPDEST DUP1 PUSH2 0x8CA CALLER PUSH2 0x714 JUMP JUMPDEST LT ISZERO PUSH2 0x90B JUMPI PUSH1 0x40 MLOAD PUSH32 0x8C379A000000000000000000000000000000000000000000000000000000000 DUP2 MSTORE PUSH1 0x4 ADD PUSH2 0x902 SWAP1 PUSH2 0x17EE JUMP JUMPDEST PUSH1 0x40 MLOAD DUP1 SWAP2 SUB SWAP1 REVERT JUMPDEST PUSH2 0x916 CALLER ADDRESS DUP4 PUSH2 0xD0B JUMP JUMPDEST PUSH1 0x0 PUSH1 0x5 PUSH1 0x0 CALLER PUSH20 0xFFFFFFFFFFFFFFFFFFFFFFFFFFFFFFFFFFFFFFFF AND PUSH20 0xFFFFFFFFFFFFFFFFFFFFFFFFFFFFFFFFFFFFFFFF AND DUP2 MSTORE PUSH1 0x20 ADD SWAP1 DUP2 MSTORE PUSH1 0x20 ADD PUSH1 0x0 KECCAK256 SLOAD GT ISZERO PUSH2 0x967 JUMPI PUSH2 0x966 PUSH2 0x593 JUMP JUMPDEST JUMPDEST TIMESTAMP PUSH1 0x6 PUSH1 0x0 CALLER PUSH20 0xFFFFFFFFFFFFFFFFFFFFFFFFFFFFFFFFFFFFFFFF AND PUSH20 0xFFFFFFFFFFFFFFFFFFFFFFFFFFFFFFFFFFFFFFFF AND DUP2 MSTORE PUSH1 0x20 ADD SWAP1 DUP2 MSTORE PUSH1 0x20 ADD PUSH1 0x0 KECCAK256 DUP2 SWAP1 SSTORE POP DUP1 PUSH1 0x5 PUSH1 0x0 CALLER PUSH20 0xFFFFFFFFFFFFFFFFFFFFFFFFFFFFFFFFFFFFFFFF AND PUSH20 0xFFFFFFFFFFFFFFFFFFFFFFFFFFFFFFFFFFFFFFFF AND DUP2 MSTORE PUSH1 0x20 ADD SWAP1 DUP2 MSTORE PUSH1 0x20 ADD PUSH1 0x0 KECCAK256 PUSH1 0x0 DUP3 DUP3 SLOAD PUSH2 0x9FA SWAP2 SWAP1 PUSH2 0x1594 JUMP JUMPDEST SWAP3 POP POP DUP2 SWAP1 SSTORE POP POP JUMP JUMPDEST PUSH1 0x0 DUP1 PUSH2 0xA0F PUSH2 0xAAE JUMP JUMPDEST SWAP1 POP PUSH2 0xA1C DUP2 DUP6 DUP6 PUSH2 0xD0B JUMP JUMPDEST PUSH1 0x1 SWAP2 POP POP SWAP3 SWAP2 POP POP JUMP JUMPDEST PUSH1 0x0 PUSH1 0x1 PUSH1 0x0 DUP5 PUSH20 0xFFFFFFFFFFFFFFFFFFFFFFFFFFFFFFFFFFFFFFFF AND PUSH20 0xFFFFFFFFFFFFFFFFFFFFFFFFFFFFFFFFFFFFFFFF AND DUP2 MSTORE PUSH1 0x20 ADD SWAP1 DUP2 MSTORE PUSH1 0x20 ADD PUSH1 0x0 KECCAK256 PUSH1 0x0 DUP4 PUSH20 0xFFFFFFFFFFFFFFFFFFFFFFFFFFFFFFFFFFFFFFFF AND PUSH20 0xFFFFFFFFFFFFFFFFFFFFFFFFFFFFFFFFFFFFFFFF AND DUP2 MSTORE PUSH1 0x20 ADD SWAP1 DUP2 MSTORE PUSH1 0x20 ADD PUSH1 0x0 KECCAK256 SLOAD SWAP1 POP SWAP3 SWAP2 POP POP JUMP JUMPDEST PUSH1 0x0 CALLER SWAP1 POP SWAP1 JUMP JUMPDEST PUSH1 0x0 PUSH20 0xFFFFFFFFFFFFFFFFFFFFFFFFFFFFFFFFFFFFFFFF AND DUP4 PUSH20 0xFFFFFFFFFFFFFFFFFFFFFFFFFFFFFFFFFFFFFFFF AND SUB PUSH2 0xB25 JUMPI PUSH1 0x40 MLOAD PUSH32 0x8C379A000000000000000000000000000000000000000000000000000000000 DUP2 MSTORE PUSH1 0x4 ADD PUSH2 0xB1C SWAP1 PUSH2 0x1880 JUMP JUMPDEST PUSH1 0x40 MLOAD DUP1 SWAP2 SUB SWAP1 REVERT JUMPDEST PUSH1 0x0 PUSH20 0xFFFFFFFFFFFFFFFFFFFFFFFFFFFFFFFFFFFFFFFF AND DUP3 PUSH20 0xFFFFFFFFFFFFFFFFFFFFFFFFFFFFFFFFFFFFFFFF AND SUB PUSH2 0xB94 JUMPI PUSH1 0x40 MLOAD PUSH32 0x8C379A000000000000000000000000000000000000000000000000000000000 DUP2 MSTORE PUSH1 0x4 ADD PUSH2 0xB8B SWAP1 PUSH2 0x1912 JUMP JUMPDEST PUSH1 0x40 MLOAD DUP1 SWAP2 SUB SWAP1 REVERT JUMPDEST DUP1 PUSH1 0x1 PUSH1 0x0 DUP6 PUSH20 0xFFFFFFFFFFFFFFFFFFFFFFFFFFFFFFFFFFFFFFFF AND PUSH20 0xFFFFFFFFFFFFFFFFFFFFFFFFFFFFFFFFFFFFFFFF AND DUP2 MSTORE PUSH1 0x20 ADD SWAP1 DUP2 MSTORE PUSH1 0x20 ADD PUSH1 0x0 KECCAK256 PUSH1 0x0 DUP5 PUSH20 0xFFFFFFFFFFFFFFFFFFFFFFFFFFFFFFFFFFFFFFFF AND PUSH20 0xFFFFFFFFFFFFFFFFFFFFFFFFFFFFFFFFFFFFFFFF AND DUP2 MSTORE PUSH1 0x20 ADD SWAP1 DUP2 MSTORE PUSH1 0x20 ADD PUSH1 0x0 KECCAK256 DUP2 SWAP1 SSTORE POP DUP2 PUSH20 0xFFFFFFFFFFFFFFFFFFFFFFFFFFFFFFFFFFFFFFFF AND DUP4 PUSH20 0xFFFFFFFFFFFFFFFFFFFFFFFFFFFFFFFFFFFFFFFF AND PUSH32 0x8C5BE1E5EBEC7D5BD14F71427D1E84F3DD0314C0F7B2291E5B200AC8C7C3B925 DUP4 PUSH1 0x40 MLOAD PUSH2 0xC72 SWAP2 SWAP1 PUSH2 0x12BA JUMP JUMPDEST PUSH1 0x40 MLOAD DUP1 SWAP2 SUB SWAP1 LOG3 POP POP POP JUMP JUMPDEST PUSH1 0x0 PUSH2 0xC8B DUP5 DUP5 PUSH2 0xA27 JUMP JUMPDEST SWAP1 POP PUSH32 0xFFFFFFFFFFFFFFFFFFFFFFFFFFFFFFFFFFFFFFFFFFFFFFFFFFFFFFFFFFFFFFFF DUP2 EQ PUSH2 0xD05 JUMPI DUP2 DUP2 LT ISZERO PUSH2 0xCF7 JUMPI PUSH1 0x40 MLOAD PUSH32 0x8C379A000000000000000000000000000000000000000000000000000000000 DUP2 MSTORE PUSH1 0x4 ADD PUSH2 0xCEE SWAP1 PUSH2 0x197E JUMP JUMPDEST PUSH1 0x40 MLOAD DUP1 SWAP2 SUB SWAP1 REVERT JUMPDEST PUSH2 0xD04 DUP5 DUP5 DUP5 DUP5 SUB PUSH2 0xAB6 JUMP JUMPDEST JUMPDEST POP POP POP POP JUMP JUMPDEST PUSH1 0x0 PUSH20 0xFFFFFFFFFFFFFFFFFFFFFFFFFFFFFFFFFFFFFFFF AND DUP4 PUSH20 0xFFFFFFFFFFFFFFFFFFFFFFFFFFFFFFFFFFFFFFFF AND SUB PUSH2 0xD7A JUMPI PUSH1 0x40 MLOAD PUSH32 0x8C379A000000000000000000000000000000000000000000000000000000000 DUP2 MSTORE PUSH1 0x4 ADD PUSH2 0xD71 SWAP1 PUSH2 0x1A10 JUMP JUMPDEST PUSH1 0x40 MLOAD DUP1 SWAP2 SUB SWAP1 REVERT JUMPDEST PUSH1 0x0 PUSH20 0xFFFFFFFFFFFFFFFFFFFFFFFFFFFFFFFFFFFFFFFF AND DUP3 PUSH20 0xFFFFFFFFFFFFFFFFFFFFFFFFFFFFFFFFFFFFFFFF AND SUB PUSH2 0xDE9 JUMPI PUSH1 0x40 MLOAD PUSH32 0x8C379A000000000000000000000000000000000000000000000000000000000 DUP2 MSTORE PUSH1 0x4 ADD PUSH2 0xDE0 SWAP1 PUSH2 0x1AA2 JUMP JUMPDEST PUSH1 0x40 MLOAD DUP1 SWAP2 SUB SWAP1 REVERT JUMPDEST PUSH2 0xDF4 DUP4 DUP4 DUP4 PUSH2 0x10D7 JUMP JUMPDEST PUSH1 0x0 DUP1 PUSH1 0x0 DUP6 PUSH20 0xFFFFFFFFFFFFFFFFFFFFFFFFFFFFFFFFFFFFFFFF AND PUSH20 0xFFFFFFFFFFFFFFFFFFFFFFFFFFFFFFFFFFFFFFFF AND DUP2 MSTORE PUSH1 0x20 ADD SWAP1 DUP2 MSTORE PUSH1 0x20 ADD PUSH1 0x0 KECCAK256 SLOAD SWAP1 POP DUP2 DUP2 LT ISZERO PUSH2 0xE7A JUMPI PUSH1 0x40 MLOAD PUSH32 0x8C379A000000000000000000000000000000000000000000000000000000000 DUP2 MSTORE PUSH1 0x4 ADD PUSH2 0xE71 SWAP1 PUSH2 0x1B34 JUMP JUMPDEST PUSH1 0x40 MLOAD DUP1 SWAP2 SUB SWAP1 REVERT JUMPDEST DUP2 DUP2 SUB PUSH1 0x0 DUP1 DUP7 PUSH20 0xFFFFFFFFFFFFFFFFFFFFFFFFFFFFFFFFFFFFFFFF AND PUSH20 0xFFFFFFFFFFFFFFFFFFFFFFFFFFFFFFFFFFFFFFFF AND DUP2 MSTORE PUSH1 0x20 ADD SWAP1 DUP2 MSTORE PUSH1 0x20 ADD PUSH1 0x0 KECCAK256 DUP2 SWAP1 SSTORE POP DUP2 PUSH1 0x0 DUP1 DUP6 PUSH20 0xFFFFFFFFFFFFFFFFFFFFFFFFFFFFFFFFFFFFFFFF AND PUSH20 0xFFFFFFFFFFFFFFFFFFFFFFFFFFFFFFFFFFFFFFFF AND DUP2 MSTORE PUSH1 0x20 ADD SWAP1 DUP2 MSTORE PUSH1 0x20 ADD PUSH1 0x0 KECCAK256 PUSH1 0x0 DUP3 DUP3 SLOAD ADD SWAP3 POP POP DUP2 SWAP1 SSTORE POP DUP3 PUSH20 0xFFFFFFFFFFFFFFFFFFFFFFFFFFFFFFFFFFFFFFFF AND DUP5 PUSH20 0xFFFFFFFFFFFFFFFFFFFFFFFFFFFFFFFFFFFFFFFF AND PUSH32 0xDDF252AD1BE2C89B69C2B068FC378DAA952BA7F163C4A11628F55A4DF523B3EF DUP5 PUSH1 0x40 MLOAD PUSH2 0xF68 SWAP2 SWAP1 PUSH2 0x12BA JUMP JUMPDEST PUSH1 0x40 MLOAD DUP1 SWAP2 SUB SWAP1 LOG3 PUSH2 0xF7B DUP5 DUP5 DUP5 PUSH2 0x10DC JUMP JUMPDEST POP POP POP POP JUMP JUMPDEST PUSH1 0x0 PUSH20 0xFFFFFFFFFFFFFFFFFFFFFFFFFFFFFFFFFFFFFFFF AND DUP3 PUSH20 0xFFFFFFFFFFFFFFFFFFFFFFFFFFFFFFFFFFFFFFFF AND SUB PUSH2 0xFF0 JUMPI PUSH1 0x40 MLOAD PUSH32 0x8C379A000000000000000000000000000000000000000000000000000000000 DUP2 MSTORE PUSH1 0x4 ADD PUSH2 0xFE7 SWAP1 PUSH2 0x1BA0 JUMP JUMPDEST PUSH1 0x40 MLOAD DUP1 SWAP2 SUB SWAP1 REVERT JUMPDEST PUSH2 0xFFC PUSH1 0x0 DUP4 DUP4 PUSH2 0x10D7 JUMP JUMPDEST DUP1 PUSH1 0x2 PUSH1 0x0 DUP3 DUP3 SLOAD PUSH2 0x100E SWAP2 SWAP1 PUSH2 0x1594 JUMP JUMPDEST SWAP3 POP POP DUP2 SWAP1 SSTORE POP DUP1 PUSH1 0x0 DUP1 DUP5 PUSH20 0xFFFFFFFFFFFFFFFFFFFFFFFFFFFFFFFFFFFFFFFF AND PUSH20 0xFFFFFFFFFFFFFFFFFFFFFFFFFFFFFFFFFFFFFFFF AND DUP2 MSTORE PUSH1 0x20 ADD SWAP1 DUP2 MSTORE PUSH1 0x20 ADD PUSH1 0x0 KECCAK256 PUSH1 0x0 DUP3 DUP3 SLOAD ADD SWAP3 POP POP DUP2 SWAP1 SSTORE POP DUP2 PUSH20 0xFFFFFFFFFFFFFFFFFFFFFFFFFFFFFFFFFFFFFFFF AND PUSH1 0x0 PUSH20 0xFFFFFFFFFFFFFFFFFFFFFFFFFFFFFFFFFFFFFFFF AND PUSH32 0xDDF252AD1BE2C89B69C2B068FC378DAA952BA7F163C4A11628F55A4DF523B3EF DUP4 PUSH1 0x40 MLOAD PUSH2 0x10BF SWAP2 SWAP1 PUSH2 0x12BA JUMP JUMPDEST PUSH1 0x40 MLOAD DUP1 SWAP2 SUB SWAP1 LOG3 PUSH2 0x10D3 PUSH1 0x0 DUP4 DUP4 PUSH2 0x10DC JUMP JUMPDEST POP POP JUMP JUMPDEST POP POP POP JUMP JUMPDEST POP POP POP JUMP JUMPDEST PUSH1 0x0 DUP2 MLOAD SWAP1 POP SWAP2 SWAP1 POP JUMP JUMPDEST PUSH1 0x0 DUP3 DUP3 MSTORE PUSH1 0x20 DUP3 ADD SWAP1 POP SWAP3 SWAP2 POP POP JUMP JUMPDEST PUSH1 0x0 JUMPDEST DUP4 DUP2 LT ISZERO PUSH2 0x111B JUMPI DUP1 DUP3 ADD MLOAD DUP2 DUP5 ADD MSTORE PUSH1 0x20 DUP2 ADD SWAP1 POP PUSH2 0x1100 JUMP JUMPDEST DUP4 DUP2 GT ISZERO PUSH2 0x112A JUMPI PUSH1 0x0 DUP5 DUP5 ADD MSTORE JUMPDEST POP POP POP POP JUMP JUMPDEST PUSH1 0x0 PUSH1 0x1F NOT PUSH1 0x1F DUP4 ADD AND SWAP1 POP SWAP2 SWAP1 POP JUMP JUMPDEST PUSH1 0x0 PUSH2 0x114C DUP3 PUSH2 0x10E1 JUMP JUMPDEST PUSH2 0x1156 DUP2 DUP6 PUSH2 0x10EC JUMP JUMPDEST SWAP4 POP PUSH2 0x1166 DUP2 DUP6 PUSH1 0x20 DUP7 ADD PUSH2 0x10FD JUMP JUMPDEST PUSH2 0x116F DUP2 PUSH2 0x1130 JUMP JUMPDEST DUP5 ADD SWAP2 POP POP SWAP3 SWAP2 POP POP JUMP JUMPDEST PUSH1 0x0 PUSH1 0x20 DUP3 ADD SWAP1 POP DUP2 DUP2 SUB PUSH1 0x0 DUP4 ADD MSTORE PUSH2 0x1194 DUP2 DUP5 PUSH2 0x1141 JUMP JUMPDEST SWAP1 POP SWAP3 SWAP2 POP POP JUMP JUMPDEST PUSH1 0x0 DUP1 REVERT JUMPDEST PUSH1 0x0 PUSH20 0xFFFFFFFFFFFFFFFFFFFFFFFFFFFFFFFFFFFFFFFF DUP3 AND SWAP1 POP SWAP2 SWAP1 POP JUMP JUMPDEST PUSH1 0x0 PUSH2 0x11CC DUP3 PUSH2 0x11A1 JUMP JUMPDEST SWAP1 POP SWAP2 SWAP1 POP JUMP JUMPDEST PUSH2 0x11DC DUP2 PUSH2 0x11C1 JUMP JUMPDEST DUP2 EQ PUSH2 0x11E7 JUMPI PUSH1 0x0 DUP1 REVERT JUMPDEST POP JUMP JUMPDEST PUSH1 0x0 DUP2 CALLDATALOAD SWAP1 POP PUSH2 0x11F9 DUP2 PUSH2 0x11D3 JUMP JUMPDEST SWAP3 SWAP2 POP POP JUMP JUMPDEST PUSH1 0x0 DUP2 SWAP1 POP SWAP2 SWAP1 POP JUMP JUMPDEST PUSH2 0x1212 DUP2 PUSH2 0x11FF JUMP JUMPDEST DUP2 EQ PUSH2 0x121D JUMPI PUSH1 0x0 DUP1 REVERT JUMPDEST POP JUMP JUMPDEST PUSH1 0x0 DUP2 CALLDATALOAD SWAP1 POP PUSH2 0x122F DUP2 PUSH2 0x1209 JUMP JUMPDEST SWAP3 SWAP2 POP POP JUMP JUMPDEST PUSH1 0x0 DUP1 PUSH1 0x40 DUP4 DUP6 SUB SLT ISZERO PUSH2 0x124C JUMPI PUSH2 0x124B PUSH2 0x119C JUMP JUMPDEST JUMPDEST PUSH1 0x0 PUSH2 0x125A DUP6 DUP3 DUP7 ADD PUSH2 0x11EA JUMP JUMPDEST SWAP3 POP POP PUSH1 0x20 PUSH2 0x126B DUP6 DUP3 DUP7 ADD PUSH2 0x1220 JUMP JUMPDEST SWAP2 POP POP SWAP3 POP SWAP3 SWAP1 POP JUMP JUMPDEST PUSH1 0x0 DUP2 ISZERO ISZERO SWAP1 POP SWAP2 SWAP1 POP JUMP JUMPDEST PUSH2 0x128A DUP2 PUSH2 0x1275 JUMP JUMPDEST DUP3 MSTORE POP POP JUMP JUMPDEST PUSH1 0x0 PUSH1 0x20 DUP3 ADD SWAP1 POP PUSH2 0x12A5 PUSH1 0x0 DUP4 ADD DUP5 PUSH2 0x1281 JUMP JUMPDEST SWAP3 SWAP2 POP POP JUMP JUMPDEST PUSH2 0x12B4 DUP2 PUSH2 0x11FF JUMP JUMPDEST DUP3 MSTORE POP POP JUMP JUMPDEST PUSH1 0x0 PUSH1 0x20 DUP3 ADD SWAP1 POP PUSH2 0x12CF PUSH1 0x0 DUP4 ADD DUP5 PUSH2 0x12AB JUMP JUMPDEST SWAP3 SWAP2 POP POP JUMP JUMPDEST PUSH1 0x0 DUP1 PUSH1 0x0 PUSH1 0x60 DUP5 DUP7 SUB SLT ISZERO PUSH2 0x12EE JUMPI PUSH2 0x12ED PUSH2 0x119C JUMP JUMPDEST JUMPDEST PUSH1 0x0 PUSH2 0x12FC DUP7 DUP3 DUP8 ADD PUSH2 0x11EA JUMP JUMPDEST SWAP4 POP POP PUSH1 0x20 PUSH2 0x130D DUP7 DUP3 DUP8 ADD PUSH2 0x11EA JUMP JUMPDEST SWAP3 POP POP PUSH1 0x40 PUSH2 0x131E DUP7 DUP3 DUP8 ADD PUSH2 0x1220 JUMP JUMPDEST SWAP2 POP POP SWAP3 POP SWAP3 POP SWAP3 JUMP JUMPDEST PUSH1 0x0 PUSH1 0x20 DUP3 DUP5 SUB SLT ISZERO PUSH2 0x133E JUMPI PUSH2 0x133D PUSH2 0x119C JUMP JUMPDEST JUMPDEST PUSH1 0x0 PUSH2 0x134C DUP5 DUP3 DUP6 ADD PUSH2 0x1220 JUMP JUMPDEST SWAP2 POP POP SWAP3 SWAP2 POP POP JUMP JUMPDEST PUSH1 0x0 PUSH1 0xFF DUP3 AND SWAP1 POP SWAP2 SWAP1 POP JUMP JUMPDEST PUSH2 0x136B DUP2 PUSH2 0x1355 JUMP JUMPDEST DUP3 MSTORE POP POP JUMP JUMPDEST PUSH1 0x0 PUSH1 0x20 DUP3 ADD SWAP1 POP PUSH2 0x1386 PUSH1 0x0 DUP4 ADD DUP5 PUSH2 0x1362 JUMP JUMPDEST SWAP3 SWAP2 POP POP JUMP JUMPDEST PUSH1 0x0 PUSH1 0x20 DUP3 DUP5 SUB SLT ISZERO PUSH2 0x13A2 JUMPI PUSH2 0x13A1 PUSH2 0x119C JUMP JUMPDEST JUMPDEST PUSH1 0x0 PUSH2 0x13B0 DUP5 DUP3 DUP6 ADD PUSH2 0x11EA JUMP JUMPDEST SWAP2 POP POP SWAP3 SWAP2 POP POP JUMP JUMPDEST PUSH1 0x0 DUP1 PUSH1 0x40 DUP4 DUP6 SUB SLT ISZERO PUSH2 0x13D0 JUMPI PUSH2 0x13CF PUSH2 0x119C JUMP JUMPDEST JUMPDEST PUSH1 0x0 PUSH2 0x13DE DUP6 DUP3 DUP7 ADD PUSH2 0x11EA JUMP JUMPDEST SWAP3 POP POP PUSH1 0x20 PUSH2 0x13EF DUP6 DUP3 DUP7 ADD PUSH2 0x11EA JUMP JUMPDEST SWAP2 POP POP SWAP3 POP SWAP3 SWAP1 POP JUMP JUMPDEST PUSH32 0x4E487B7100000000000000000000000000000000000000000000000000000000 PUSH1 0x0 MSTORE PUSH1 0x22 PUSH1 0x4 MSTORE PUSH1 0x24 PUSH1 0x0 REVERT JUMPDEST PUSH1 0x0 PUSH1 0x2 DUP3 DIV SWAP1 POP PUSH1 0x1 DUP3 AND DUP1 PUSH2 0x1440 JUMPI PUSH1 0x7F DUP3 AND SWAP2 POP JUMPDEST PUSH1 0x20 DUP3 LT DUP2 SUB PUSH2 0x1453 JUMPI PUSH2 0x1452 PUSH2 0x13F9 JUMP JUMPDEST JUMPDEST POP SWAP2 SWAP1 POP JUMP JUMPDEST PUSH32 0x616D6F756E74206973203C3D2030000000000000000000000000000000000000 PUSH1 0x0 DUP3 ADD MSTORE POP JUMP JUMPDEST PUSH1 0x0 PUSH2 0x148F PUSH1 0xE DUP4 PUSH2 0x10EC JUMP JUMPDEST SWAP2 POP PUSH2 0x149A DUP3 PUSH2 0x1459 JUMP JUMPDEST PUSH1 0x20 DUP3 ADD SWAP1 POP SWAP2 SWAP1 POP JUMP JUMPDEST PUSH1 0x0 PUSH1 0x20 DUP3 ADD SWAP1 POP DUP2 DUP2 SUB PUSH1 0x0 DUP4 ADD MSTORE PUSH2 0x14BE DUP2 PUSH2 0x1482 JUMP JUMPDEST SWAP1 POP SWAP2 SWAP1 POP JUMP JUMPDEST PUSH32 0x616D6F756E74206973203E207374616B65640000000000000000000000000000 PUSH1 0x0 DUP3 ADD MSTORE POP JUMP JUMPDEST PUSH1 0x0 PUSH2 0x14FB PUSH1 0x12 DUP4 PUSH2 0x10EC JUMP JUMPDEST SWAP2 POP PUSH2 0x1506 DUP3 PUSH2 0x14C5 JUMP JUMPDEST PUSH1 0x20 DUP3 ADD SWAP1 POP SWAP2 SWAP1 POP JUMP JUMPDEST PUSH1 0x0 PUSH1 0x20 DUP3 ADD SWAP1 POP DUP2 DUP2 SUB PUSH1 0x0 DUP4 ADD MSTORE PUSH2 0x152A DUP2 PUSH2 0x14EE JUMP JUMPDEST SWAP1 POP SWAP2 SWAP1 POP JUMP JUMPDEST PUSH32 0x4E487B7100000000000000000000000000000000000000000000000000000000 PUSH1 0x0 MSTORE PUSH1 0x11 PUSH1 0x4 MSTORE PUSH1 0x24 PUSH1 0x0 REVERT JUMPDEST PUSH1 0x0 PUSH2 0x156B DUP3 PUSH2 0x11FF JUMP JUMPDEST SWAP2 POP PUSH2 0x1576 DUP4 PUSH2 0x11FF JUMP JUMPDEST SWAP3 POP DUP3 DUP3 LT ISZERO PUSH2 0x1589 JUMPI PUSH2 0x1588 PUSH2 0x1531 JUMP JUMPDEST JUMPDEST DUP3 DUP3 SUB SWAP1 POP SWAP3 SWAP2 POP POP JUMP JUMPDEST PUSH1 0x0 PUSH2 0x159F DUP3 PUSH2 0x11FF JUMP JUMPDEST SWAP2 POP PUSH2 0x15AA DUP4 PUSH2 0x11FF JUMP JUMPDEST SWAP3 POP DUP3 PUSH32 0xFFFFFFFFFFFFFFFFFFFFFFFFFFFFFFFFFFFFFFFFFFFFFFFFFFFFFFFFFFFFFFFF SUB DUP3 GT ISZERO PUSH2 0x15DF JUMPI PUSH2 0x15DE PUSH2 0x1531 JUMP JUMPDEST JUMPDEST DUP3 DUP3 ADD SWAP1 POP SWAP3 SWAP2 POP POP JUMP JUMPDEST PUSH32 0x7374616B6564206973203C3D2030000000000000000000000000000000000000 PUSH1 0x0 DUP3 ADD MSTORE POP JUMP JUMPDEST PUSH1 0x0 PUSH2 0x1620 PUSH1 0xE DUP4 PUSH2 0x10EC JUMP JUMPDEST SWAP2 POP PUSH2 0x162B DUP3 PUSH2 0x15EA JUMP JUMPDEST PUSH1 0x20 DUP3 ADD SWAP1 POP SWAP2 SWAP1 POP JUMP JUMPDEST PUSH1 0x0 PUSH1 0x20 DUP3 ADD SWAP1 POP DUP2 DUP2 SUB PUSH1 0x0 DUP4 ADD MSTORE PUSH2 0x164F DUP2 PUSH2 0x1613 JUMP JUMPDEST SWAP1 POP SWAP2 SWAP1 POP JUMP JUMPDEST PUSH1 0x0 PUSH2 0x1661 DUP3 PUSH2 0x11FF JUMP JUMPDEST SWAP2 POP PUSH2 0x166C DUP4 PUSH2 0x11FF JUMP JUMPDEST SWAP3 POP DUP2 PUSH32 0xFFFFFFFFFFFFFFFFFFFFFFFFFFFFFFFFFFFFFFFFFFFFFFFFFFFFFFFFFFFFFFFF DIV DUP4 GT DUP3 ISZERO ISZERO AND ISZERO PUSH2 0x16A5 JUMPI PUSH2 0x16A4 PUSH2 0x1531 JUMP JUMPDEST JUMPDEST DUP3 DUP3 MUL SWAP1 POP SWAP3 SWAP2 POP POP JUMP JUMPDEST PUSH32 0x4E487B7100000000000000000000000000000000000000000000000000000000 PUSH1 0x0 MSTORE PUSH1 0x12 PUSH1 0x4 MSTORE PUSH1 0x24 PUSH1 0x0 REVERT JUMPDEST PUSH1 0x0 PUSH2 0x16EA DUP3 PUSH2 0x11FF JUMP JUMPDEST SWAP2 POP PUSH2 0x16F5 DUP4 PUSH2 0x11FF JUMP JUMPDEST SWAP3 POP DUP3 PUSH2 0x1705 JUMPI PUSH2 0x1704 PUSH2 0x16B0 JUMP JUMPDEST JUMPDEST DUP3 DUP3 DIV SWAP1 POP SWAP3 SWAP2 POP POP JUMP JUMPDEST PUSH32 0x45524332303A2064656372656173656420616C6C6F77616E63652062656C6F77 PUSH1 0x0 DUP3 ADD MSTORE PUSH32 0x207A65726F000000000000000000000000000000000000000000000000000000 PUSH1 0x20 DUP3 ADD MSTORE POP JUMP JUMPDEST PUSH1 0x0 PUSH2 0x176C PUSH1 0x25 DUP4 PUSH2 0x10EC JUMP JUMPDEST SWAP2 POP PUSH2 0x1777 DUP3 PUSH2 0x1710 JUMP JUMPDEST PUSH1 0x40 DUP3 ADD SWAP1 POP SWAP2 SWAP1 POP JUMP JUMPDEST PUSH1 0x0 PUSH1 0x20 DUP3 ADD SWAP1 POP DUP2 DUP2 SUB PUSH1 0x0 DUP4 ADD MSTORE PUSH2 0x179B DUP2 PUSH2 0x175F JUMP JUMPDEST SWAP1 POP SWAP2 SWAP1 POP JUMP JUMPDEST PUSH32 0x62616C616E6365206973203C3D20616D6F756E74000000000000000000000000 PUSH1 0x0 DUP3 ADD MSTORE POP JUMP JUMPDEST PUSH1 0x0 PUSH2 0x17D8 PUSH1 0x14 DUP4 PUSH2 0x10EC JUMP JUMPDEST SWAP2 POP PUSH2 0x17E3 DUP3 PUSH2 0x17A2 JUMP JUMPDEST PUSH1 0x20 DUP3 ADD SWAP1 POP SWAP2 SWAP1 POP JUMP JUMPDEST PUSH1 0x0 PUSH1 0x20 DUP3 ADD SWAP1 POP DUP2 DUP2 SUB PUSH1 0x0 DUP4 ADD MSTORE PUSH2 0x1807 DUP2 PUSH2 0x17CB JUMP JUMPDEST SWAP1 POP SWAP2 SWAP1 POP JUMP JUMPDEST PUSH32 0x45524332303A20617070726F76652066726F6D20746865207A65726F20616464 PUSH1 0x0 DUP3 ADD MSTORE PUSH32 0x7265737300000000000000000000000000000000000000000000000000000000 PUSH1 0x20 DUP3 ADD MSTORE POP JUMP JUMPDEST PUSH1 0x0 PUSH2 0x186A PUSH1 0x24 DUP4 PUSH2 0x10EC JUMP JUMPDEST SWAP2 POP PUSH2 0x1875 DUP3 PUSH2 0x180E JUMP JUMPDEST PUSH1 0x40 DUP3 ADD SWAP1 POP SWAP2 SWAP1 POP JUMP JUMPDEST PUSH1 0x0 PUSH1 0x20 DUP3 ADD SWAP1 POP DUP2 DUP2 SUB PUSH1 0x0 DUP4 ADD MSTORE PUSH2 0x1899 DUP2 PUSH2 0x185D JUMP JUMPDEST SWAP1 POP SWAP2 SWAP1 POP JUMP JUMPDEST PUSH32 0x45524332303A20617070726F766520746F20746865207A65726F206164647265 PUSH1 0x0 DUP3 ADD MSTORE PUSH32 0x7373000000000000000000000000000000000000000000000000000000000000 PUSH1 0x20 DUP3 ADD MSTORE POP JUMP JUMPDEST PUSH1 0x0 PUSH2 0x18FC PUSH1 0x22 DUP4 PUSH2 0x10EC JUMP JUMPDEST SWAP2 POP PUSH2 0x1907 DUP3 PUSH2 0x18A0 JUMP JUMPDEST PUSH1 0x40 DUP3 ADD SWAP1 POP SWAP2 SWAP1 POP JUMP JUMPDEST PUSH1 0x0 PUSH1 0x20 DUP3 ADD SWAP1 POP DUP2 DUP2 SUB PUSH1 0x0 DUP4 ADD MSTORE PUSH2 0x192B DUP2 PUSH2 0x18EF JUMP JUMPDEST SWAP1 POP SWAP2 SWAP1 POP JUMP JUMPDEST PUSH32 0x45524332303A20696E73756666696369656E7420616C6C6F77616E6365000000 PUSH1 0x0 DUP3 ADD MSTORE POP JUMP JUMPDEST PUSH1 0x0 PUSH2 0x1968 PUSH1 0x1D DUP4 PUSH2 0x10EC JUMP JUMPDEST SWAP2 POP PUSH2 0x1973 DUP3 PUSH2 0x1932 JUMP JUMPDEST PUSH1 0x20 DUP3 ADD SWAP1 POP SWAP2 SWAP1 POP JUMP JUMPDEST PUSH1 0x0 PUSH1 0x20 DUP3 ADD SWAP1 POP DUP2 DUP2 SUB PUSH1 0x0 DUP4 ADD MSTORE PUSH2 0x1997 DUP2 PUSH2 0x195B JUMP JUMPDEST SWAP1 POP SWAP2 SWAP1 POP JUMP JUMPDEST PUSH32 0x45524332303A207472616E736665722066726F6D20746865207A65726F206164 PUSH1 0x0 DUP3 ADD MSTORE PUSH32 0x6472657373000000000000000000000000000000000000000000000000000000 PUSH1 0x20 DUP3 ADD MSTORE POP JUMP JUMPDEST PUSH1 0x0 PUSH2 0x19FA PUSH1 0x25 DUP4 PUSH2 0x10EC JUMP JUMPDEST SWAP2 POP PUSH2 0x1A05 DUP3 PUSH2 0x199E JUMP JUMPDEST PUSH1 0x40 DUP3 ADD SWAP1 POP SWAP2 SWAP1 POP JUMP JUMPDEST PUSH1 0x0 PUSH1 0x20 DUP3 ADD SWAP1 POP DUP2 DUP2 SUB PUSH1 0x0 DUP4 ADD MSTORE PUSH2 0x1A29 DUP2 PUSH2 0x19ED JUMP JUMPDEST SWAP1 POP SWAP2 SWAP1 POP JUMP JUMPDEST PUSH32 0x45524332303A207472616E7366657220746F20746865207A65726F2061646472 PUSH1 0x0 DUP3 ADD MSTORE PUSH32 0x6573730000000000000000000000000000000000000000000000000000000000 PUSH1 0x20 DUP3 ADD MSTORE POP JUMP JUMPDEST PUSH1 0x0 PUSH2 0x1A8C PUSH1 0x23 DUP4 PUSH2 0x10EC JUMP JUMPDEST SWAP2 POP PUSH2 0x1A97 DUP3 PUSH2 0x1A30 JUMP JUMPDEST PUSH1 0x40 DUP3 ADD SWAP1 POP SWAP2 SWAP1 POP JUMP JUMPDEST PUSH1 0x0 PUSH1 0x20 DUP3 ADD SWAP1 POP DUP2 DUP2 SUB PUSH1 0x0 DUP4 ADD MSTORE PUSH2 0x1ABB DUP2 PUSH2 0x1A7F JUMP JUMPDEST SWAP1 POP SWAP2 SWAP1 POP JUMP JUMPDEST PUSH32 0x45524332303A207472616E7366657220616D6F756E7420657863656564732062 PUSH1 0x0 DUP3 ADD MSTORE PUSH32 0x616C616E63650000000000000000000000000000000000000000000000000000 PUSH1 0x20 DUP3 ADD MSTORE POP JUMP JUMPDEST PUSH1 0x0 PUSH2 0x1B1E PUSH1 0x26 DUP4 PUSH2 0x10EC JUMP JUMPDEST SWAP2 POP PUSH2 0x1B29 DUP3 PUSH2 0x1AC2 JUMP JUMPDEST PUSH1 0x40 DUP3 ADD SWAP1 POP SWAP2 SWAP1 POP JUMP JUMPDEST PUSH1 0x0 PUSH1 0x20 DUP3 ADD SWAP1 POP DUP2 DUP2 SUB PUSH1 0x0 DUP4 ADD MSTORE PUSH2 0x1B4D DUP2 PUSH2 0x1B11 JUMP JUMPDEST SWAP1 POP SWAP2 SWAP1 POP JUMP JUMPDEST PUSH32 0x45524332303A206D696E7420746F20746865207A65726F206164647265737300 PUSH1 0x0 DUP3 ADD MSTORE POP JUMP JUMPDEST PUSH1 0x0 PUSH2 0x1B8A PUSH1 0x1F DUP4 PUSH2 0x10EC JUMP JUMPDEST SWAP2 POP PUSH2 0x1B95 DUP3 PUSH2 0x1B54 JUMP JUMPDEST PUSH1 0x20 DUP3 ADD SWAP1 POP SWAP2 SWAP1 POP JUMP JUMPDEST PUSH1 0x0 PUSH1 0x20 DUP3 ADD SWAP1 POP DUP2 DUP2 SUB PUSH1 0x0 DUP4 ADD MSTORE PUSH2 0x1BB9 DUP2 PUSH2 0x1B7D JUMP JUMPDEST SWAP1 POP SWAP2 SWAP1 POP JUMP INVALID LOG2 PUSH5 0x6970667358 0x22 SLT KECCAK256 0xAB DELEGATECALL 0xB2 LT 0xA9 0xC4 CREATE2 SWAP14 0xD2 0x2F PUSH22 0xB89B9C9139E2442E927E37D115F6984F0DCD2F350564 PUSH20 0x6F6C634300080F00330000000000000000000000 "
				},
				"gasEstimates": {
					"creation": {
						"codeDepositCost": "1431600",
						"executionCost": "infinite",
						"totalCost": "infinite"
					},
					"external": {
						"allowance(address,address)": "infinite",
						"approve(address,uint256)": "infinite",
						"balanceOf(address)": "2886",
						"claim()": "infinite",
						"decimals()": "410",
						"decreaseAllowance(address,uint256)": "infinite",
						"increaseAllowance(address,uint256)": "infinite",
						"name()": "infinite",
						"stake(uint256)": "infinite",
						"staked(address)": "2903",
						"symbol()": "infinite",
						"totalSupply()": "2505",
						"transfer(address,uint256)": "infinite",
						"transferFrom(address,address,uint256)": "infinite",
						"unstake(uint256)": "infinite"
					}
				},
				"methodIdentifiers": {
					"allowance(address,address)": "dd62ed3e",
					"approve(address,uint256)": "095ea7b3",
					"balanceOf(address)": "70a08231",
					"claim()": "4e71d92d",
					"decimals()": "313ce567",
					"decreaseAllowance(address,uint256)": "a457c2d7",
					"increaseAllowance(address,uint256)": "39509351",
					"name()": "06fdde03",
					"stake(uint256)": "a694fc3a",
					"staked(address)": "98807d84",
					"symbol()": "95d89b41",
					"totalSupply()": "18160ddd",
					"transfer(address,uint256)": "a9059cbb",
					"transferFrom(address,address,uint256)": "23b872dd",
					"unstake(uint256)": "2e17de78"
				}
			},
			"storageLayout": {
				"storage": [
					{
						"astId": 15,
						"contract": "contracts/FixedStaking.sol:FixedStaking",
						"label": "_balances",
						"offset": 0,
						"slot": "0",
						"type": "t_mapping(t_address,t_uint256)"
					},
					{
						"astId": 21,
						"contract": "contracts/FixedStaking.sol:FixedStaking",
						"label": "_allowances",
						"offset": 0,
						"slot": "1",
						"type": "t_mapping(t_address,t_mapping(t_address,t_uint256))"
					},
					{
						"astId": 23,
						"contract": "contracts/FixedStaking.sol:FixedStaking",
						"label": "_totalSupply",
						"offset": 0,
						"slot": "2",
						"type": "t_uint256"
					},
					{
						"astId": 25,
						"contract": "contracts/FixedStaking.sol:FixedStaking",
						"label": "_name",
						"offset": 0,
						"slot": "3",
						"type": "t_string_storage"
					},
					{
						"astId": 27,
						"contract": "contracts/FixedStaking.sol:FixedStaking",
						"label": "_symbol",
						"offset": 0,
						"slot": "4",
						"type": "t_string_storage"
					},
					{
						"astId": 720,
						"contract": "contracts/FixedStaking.sol:FixedStaking",
						"label": "staked",
						"offset": 0,
						"slot": "5",
						"type": "t_mapping(t_address,t_uint256)"
					},
					{
						"astId": 724,
						"contract": "contracts/FixedStaking.sol:FixedStaking",
						"label": "stakedFromTS",
						"offset": 0,
						"slot": "6",
						"type": "t_mapping(t_address,t_uint256)"
					}
				],
				"types": {
					"t_address": {
						"encoding": "inplace",
						"label": "address",
						"numberOfBytes": "20"
					},
					"t_mapping(t_address,t_mapping(t_address,t_uint256))": {
						"encoding": "mapping",
						"key": "t_address",
						"label": "mapping(address => mapping(address => uint256))",
						"numberOfBytes": "32",
						"value": "t_mapping(t_address,t_uint256)"
					},
					"t_mapping(t_address,t_uint256)": {
						"encoding": "mapping",
						"key": "t_address",
						"label": "mapping(address => uint256)",
						"numberOfBytes": "32",
						"value": "t_uint256"
					},
					"t_string_storage": {
						"encoding": "bytes",
						"label": "string",
						"numberOfBytes": "32"
					},
					"t_uint256": {
						"encoding": "inplace",
						"label": "uint256",
						"numberOfBytes": "32"
					}
				}
			},
			"userdoc": {
				"kind": "user",
				"methods": {},
				"version": 1
			}
		}
	}
}